{
  "contractName": "ERC165",
  "abi": [
    {
      "inputs": [],
      "stateMutability": "nonpayable",
      "type": "constructor"
    },
    {
      "inputs": [
        {
          "internalType": "bytes4",
          "name": "interfaceId",
          "type": "bytes4"
        }
      ],
      "name": "supportsInterface",
      "outputs": [
        {
          "internalType": "bool",
          "name": "",
          "type": "bool"
        }
      ],
      "stateMutability": "view",
      "type": "function"
    },
    {
      "inputs": [
        {
          "internalType": "bytes4",
          "name": "interfaceId",
          "type": "bytes4"
        }
      ],
      "name": "registerInterface",
      "outputs": [],
      "stateMutability": "nonpayable",
      "type": "function"
    }
  ],
  "bytecode": "0x608060405234801561000f575f80fd5b5061002c61002161003160201b60201c565b61005860201b60201c565b6101a1565b5f7f01ffc9a7a5cef8baa21ed3c5c0d7e23accb804b619e9333b597f47a0d84076e2905090565b63ffffffff60e01b817bffffffffffffffffffffffffffffffffffffffffffffffffffffffff1916036100c0576040517f08c379a00000000000000000000000000000000000000000000000000000000081526004016100b790610183565b60405180910390fd5b60015f80837bffffffffffffffffffffffffffffffffffffffffffffffffffffffff19167bffffffffffffffffffffffffffffffffffffffffffffffffffffffff191681526020019081526020015f205f6101000a81548160ff02191690831515021790555050565b5f82825260208201905092915050565b7f4552433136353a20696e76616c696420696e74657266616365000000000000005f82015250565b5f61016d601983610129565b915061017882610139565b602082019050919050565b5f6020820190508181035f83015261019a81610161565b9050919050565b61031d806101ae5f395ff3fe608060405234801561000f575f80fd5b5060043610610034575f3560e01c806301ffc9a714610038578063214cdb8014610068575b5f80fd5b610052600480360381019061004d9190610211565b610084565b60405161005f9190610256565b60405180910390f35b610082600480360381019061007d9190610211565b6100e7565b005b5f805f837bffffffffffffffffffffffffffffffffffffffffffffffffffffffff19167bffffffffffffffffffffffffffffffffffffffffffffffffffffffff191681526020019081526020015f205f9054906101000a900460ff169050919050565b63ffffffff60e01b817bffffffffffffffffffffffffffffffffffffffffffffffffffffffff19160361014f576040517f08c379a0000000000000000000000000000000000000000000000000000000008152600401610146906102c9565b60405180910390fd5b60015f80837bffffffffffffffffffffffffffffffffffffffffffffffffffffffff19167bffffffffffffffffffffffffffffffffffffffffffffffffffffffff191681526020019081526020015f205f6101000a81548160ff02191690831515021790555050565b5f80fd5b5f7fffffffff0000000000000000000000000000000000000000000000000000000082169050919050565b6101f0816101bc565b81146101fa575f80fd5b50565b5f8135905061020b816101e7565b92915050565b5f60208284031215610226576102256101b8565b5b5f610233848285016101fd565b91505092915050565b5f8115159050919050565b6102508161023c565b82525050565b5f6020820190506102695f830184610247565b92915050565b5f82825260208201905092915050565b7f4552433136353a20696e76616c696420696e74657266616365000000000000005f82015250565b5f6102b360198361026f565b91506102be8261027f565b602082019050919050565b5f6020820190508181035f8301526102e0816102a7565b905091905056fea26469706673582212207d1c52c9a8ed69519f94af9a7123bffe615b3646996dfd844b61d9ac9fe5070964736f6c63430008170033",
  "immutableReferences": {},
  "source": "// SPDX-License-Identifier: MIT\npragma solidity ^0.8.0;\n\nimport \"../interfaces/IERC165.sol\";\n\ncontract ERC165 is IERC165 {\n    mapping(bytes4 => bool) private _supportedInterfaces;\n\n    constructor() {\n        registerInterface(_calcFingerPrint());\n    }\n\n    function _calcFingerPrint() private pure returns (bytes4) {\n        return bytes4(keccak256(\"supportsInterface(bytes4)\"));\n    }\n\n    function supportsInterface(\n        bytes4 interfaceId\n    ) external view override returns (bool) {\n        return _supportedInterfaces[interfaceId];\n    }\n\n    function registerInterface(bytes4 interfaceId) public {\n        require(interfaceId != 0xffffffff, \"ERC165: invalid interface\");\n        _supportedInterfaces[interfaceId] = true;\n    }\n}\n",
  "sourcePath": "/home/david/projects/web3/nft-neonz-marketplace/src/contracts/ERC165.sol",
  "compiler": {
    "name": "solc",
    "version": "0.8.23+commit.f704f362.Emscripten.clang"
  },
  "schemaVersion": "3.4.16",
  "updatedAt": "2023-11-29T13:47:49.675Z",
  "devdoc": {
    "kind": "dev",
    "methods": {},
    "version": 1
  },
  "userdoc": {
    "kind": "user",
    "methods": {},
    "version": 1
  }
}