{
  "contractName": "ERC721Enumerable",
  "abi": [
    {
      "anonymous": false,
      "inputs": [
        {
          "indexed": true,
          "internalType": "address",
          "name": "from",
          "type": "address"
        },
        {
          "indexed": true,
          "internalType": "address",
          "name": "to",
          "type": "address"
        },
        {
          "indexed": true,
          "internalType": "uint256",
          "name": "tokenId",
          "type": "uint256"
        }
      ],
      "name": "Transfer",
      "type": "event"
    },
    {
      "inputs": [
        {
          "internalType": "address",
          "name": "_owner",
          "type": "address"
        }
      ],
      "name": "balanceOf",
      "outputs": [
        {
          "internalType": "uint256",
          "name": "",
          "type": "uint256"
        }
      ],
      "stateMutability": "view",
      "type": "function"
    },
    {
      "inputs": [
        {
          "internalType": "uint256",
          "name": "_tokenId",
          "type": "uint256"
        }
      ],
      "name": "ownerOf",
      "outputs": [
        {
          "internalType": "address",
          "name": "",
          "type": "address"
        }
      ],
      "stateMutability": "view",
      "type": "function"
    },
    {
      "inputs": [],
      "name": "totalSupply",
      "outputs": [
        {
          "internalType": "uint256",
          "name": "",
          "type": "uint256"
        }
      ],
      "stateMutability": "view",
      "type": "function"
    },
    {
      "inputs": [
        {
          "internalType": "uint256",
          "name": "_index",
          "type": "uint256"
        }
      ],
      "name": "tokenByIndex",
      "outputs": [
        {
          "internalType": "uint256",
          "name": "",
          "type": "uint256"
        }
      ],
      "stateMutability": "view",
      "type": "function"
    },
    {
      "inputs": [
        {
          "internalType": "address",
          "name": "_owner",
          "type": "address"
        },
        {
          "internalType": "uint256",
          "name": "_index",
          "type": "uint256"
        }
      ],
      "name": "tokenOfOwnerByIndex",
      "outputs": [
        {
          "internalType": "uint256",
          "name": "",
          "type": "uint256"
        }
      ],
      "stateMutability": "view",
      "type": "function"
    }
  ],
  "bytecode": "0x608060405234801561000f575f80fd5b506105c78061001d5f395ff3fe608060405234801561000f575f80fd5b5060043610610055575f3560e01c806318160ddd146100595780632f745c59146100775780634f6ccce7146100a75780636352211e146100d757806370a0823114610107575b5f80fd5b610061610137565b60405161006e9190610308565b60405180910390f35b610091600480360381019061008c91906103a9565b610143565b60405161009e9190610308565b60405180910390f35b6100c160048036038101906100bc91906103e7565b61014a565b6040516100ce9190610308565b60405180910390f35b6100f160048036038101906100ec91906103e7565b610150565b6040516100fe9190610421565b60405180910390f35b610121600480360381019061011c919061043a565b6101d0565b60405161012e9190610308565b60405180910390f35b5f600280549050905090565b5f92915050565b5f919050565b5f61015a82610284565b610199576040517f08c379a0000000000000000000000000000000000000000000000000000000008152600401610190906104e5565b60405180910390fd5b5f808381526020019081526020015f205f9054906101000a900473ffffffffffffffffffffffffffffffffffffffff169050919050565b5f8073ffffffffffffffffffffffffffffffffffffffff168273ffffffffffffffffffffffffffffffffffffffff160361023f576040517f08c379a000000000000000000000000000000000000000000000000000000000815260040161023690610573565b60405180910390fd5b60015f8373ffffffffffffffffffffffffffffffffffffffff1673ffffffffffffffffffffffffffffffffffffffff1681526020019081526020015f20549050919050565b5f805f808481526020019081526020015f205f9054906101000a900473ffffffffffffffffffffffffffffffffffffffff1690505f73ffffffffffffffffffffffffffffffffffffffff168173ffffffffffffffffffffffffffffffffffffffff161415915050919050565b5f819050919050565b610302816102f0565b82525050565b5f60208201905061031b5f8301846102f9565b92915050565b5f80fd5b5f73ffffffffffffffffffffffffffffffffffffffff82169050919050565b5f61034e82610325565b9050919050565b61035e81610344565b8114610368575f80fd5b50565b5f8135905061037981610355565b92915050565b610388816102f0565b8114610392575f80fd5b50565b5f813590506103a38161037f565b92915050565b5f80604083850312156103bf576103be610321565b5b5f6103cc8582860161036b565b92505060206103dd85828601610395565b9150509250929050565b5f602082840312156103fc576103fb610321565b5b5f61040984828501610395565b91505092915050565b61041b81610344565b82525050565b5f6020820190506104345f830184610412565b92915050565b5f6020828403121561044f5761044e610321565b5b5f61045c8482850161036b565b91505092915050565b5f82825260208201905092915050565b7f6f776e657220717565727920666f72206e6f6e2d717565727920666f72206e6f5f8201527f6e2d6578697374656e7420746f6b656e00000000000000000000000000000000602082015250565b5f6104cf603083610465565b91506104da82610475565b604082019050919050565b5f6020820190508181035f8301526104fc816104c3565b9050919050565b7f4552433732313a206f776e657220717565727920666f72206e6f6e2d657869735f8201527f74656e7420746f6b656e00000000000000000000000000000000000000000000602082015250565b5f61055d602a83610465565b915061056882610503565b604082019050919050565b5f6020820190508181035f83015261058a81610551565b905091905056fea2646970667358221220de034da28aeb51e9873e60e3ba51668fd0d2b9203531fdd57736f1a60c3b969564736f6c63430008170033",
  "immutableReferences": {},
  "source": "// SPDX-License-Identifier: MIT\npragma solidity ^0.8.0;\n\nimport \"./ERC721.sol\";\n\ncontract ERC721Enumerable is ERC721 {\n    uint256[] private _allTokens;\n\n    mapping(uint256 => uint256) private _allTokensIndex;\n\n    mapping(address => uint256[]) private _ownedTokens;\n\n    mapping(uint256 => uint256) private _ownedTokensIndex;\n\n    function totalSupply() external view returns (uint256) {\n        return _allTokens.length;\n    }\n\n    function tokenByIndex(uint256 _index) external view returns (uint256) {}\n\n    function tokenOfOwnerByIndex(\n        address _owner,\n        uint256 _index\n    ) external view returns (uint256) {}\n\n    function _mint(address _to, uint256 _tokenId) internal override(ERC721) {\n        super._mint(_to, _tokenId);\n        _addTokensToTotalSupply(_tokenId);\n    }\n\n    function _addTokensToTotalSupply(uint256 _tokenId) private {\n        _allTokens.push(_tokenId);\n    }\n}\n",
  "sourcePath": "/home/david/projects/web3/nft-neonz-marketplace/src/contracts/ERC721Enumerable.sol",
  "compiler": {
    "name": "solc",
    "version": "0.8.23+commit.f704f362.Emscripten.clang"
  },
  "schemaVersion": "3.4.16",
  "updatedAt": "2023-11-24T16:16:37.876Z",
  "devdoc": {
    "kind": "dev",
    "methods": {},
    "version": 1
  },
  "userdoc": {
    "kind": "user",
    "methods": {},
    "version": 1
  }
}