{
  "contractName": "ERC721Connector",
  "abi": [
    {
      "inputs": [
        {
          "internalType": "string",
          "name": "n",
          "type": "string"
        },
        {
          "internalType": "string",
          "name": "s",
          "type": "string"
        }
      ],
      "stateMutability": "nonpayable",
      "type": "constructor"
    },
    {
      "anonymous": false,
      "inputs": [
        {
          "indexed": true,
          "internalType": "address",
          "name": "_owner",
          "type": "address"
        },
        {
          "indexed": true,
          "internalType": "address",
          "name": "_approved",
          "type": "address"
        },
        {
          "indexed": true,
          "internalType": "uint256",
          "name": "_tokenId",
          "type": "uint256"
        }
      ],
      "name": "Approval",
      "type": "event"
    },
    {
      "anonymous": false,
      "inputs": [
        {
          "indexed": true,
          "internalType": "address",
          "name": "_from",
          "type": "address"
        },
        {
          "indexed": true,
          "internalType": "address",
          "name": "_to",
          "type": "address"
        },
        {
          "indexed": true,
          "internalType": "uint256",
          "name": "_tokenId",
          "type": "uint256"
        }
      ],
      "name": "Transfer",
      "type": "event"
    },
    {
      "inputs": [
        {
          "internalType": "address",
          "name": "_to",
          "type": "address"
        },
        {
          "internalType": "uint256",
          "name": "_tokenId",
          "type": "uint256"
        }
      ],
      "name": "approve",
      "outputs": [],
      "stateMutability": "nonpayable",
      "type": "function"
    },
    {
      "inputs": [
        {
          "internalType": "address",
          "name": "_owner",
          "type": "address"
        }
      ],
      "name": "balanceOf",
      "outputs": [
        {
          "internalType": "uint256",
          "name": "",
          "type": "uint256"
        }
      ],
      "stateMutability": "view",
      "type": "function"
    },
    {
      "inputs": [],
      "name": "name",
      "outputs": [
        {
          "internalType": "string",
          "name": "",
          "type": "string"
        }
      ],
      "stateMutability": "view",
      "type": "function"
    },
    {
      "inputs": [
        {
          "internalType": "uint256",
          "name": "_tokenId",
          "type": "uint256"
        }
      ],
      "name": "ownerOf",
      "outputs": [
        {
          "internalType": "address",
          "name": "",
          "type": "address"
        }
      ],
      "stateMutability": "view",
      "type": "function"
    },
    {
      "inputs": [
        {
          "internalType": "bytes4",
          "name": "interfaceId",
          "type": "bytes4"
        }
      ],
      "name": "registerInterface",
      "outputs": [],
      "stateMutability": "nonpayable",
      "type": "function"
    },
    {
      "inputs": [
        {
          "internalType": "bytes4",
          "name": "interfaceId",
          "type": "bytes4"
        }
      ],
      "name": "supportsInterface",
      "outputs": [
        {
          "internalType": "bool",
          "name": "",
          "type": "bool"
        }
      ],
      "stateMutability": "view",
      "type": "function"
    },
    {
      "inputs": [],
      "name": "symbol",
      "outputs": [
        {
          "internalType": "string",
          "name": "",
          "type": "string"
        }
      ],
      "stateMutability": "view",
      "type": "function"
    },
    {
      "inputs": [
        {
          "internalType": "uint256",
          "name": "_index",
          "type": "uint256"
        }
      ],
      "name": "tokenByIndex",
      "outputs": [
        {
          "internalType": "uint256",
          "name": "",
          "type": "uint256"
        }
      ],
      "stateMutability": "view",
      "type": "function"
    },
    {
      "inputs": [
        {
          "internalType": "address",
          "name": "_owner",
          "type": "address"
        },
        {
          "internalType": "uint256",
          "name": "_index",
          "type": "uint256"
        }
      ],
      "name": "tokenOfOwnerByIndex",
      "outputs": [
        {
          "internalType": "uint256",
          "name": "",
          "type": "uint256"
        }
      ],
      "stateMutability": "view",
      "type": "function"
    },
    {
      "inputs": [],
      "name": "totalSupply",
      "outputs": [
        {
          "internalType": "uint256",
          "name": "",
          "type": "uint256"
        }
      ],
      "stateMutability": "view",
      "type": "function"
    },
    {
      "inputs": [
        {
          "internalType": "address",
          "name": "_from",
          "type": "address"
        },
        {
          "internalType": "address",
          "name": "_to",
          "type": "address"
        },
        {
          "internalType": "uint256",
          "name": "_tokenId",
          "type": "uint256"
        }
      ],
      "name": "transferFrom",
      "outputs": [],
      "stateMutability": "payable",
      "type": "function"
    }
  ],
  "bytecode": "0x608060405234801562000010575f80fd5b5060405162001ec638038062001ec6833981810160405281019062000036919062000443565b8181620000586200004c620001c360201b60201c565b620001ea60201b60201c565b8160019081620000699190620006fd565b5080600290816200007b9190620006fd565b50620000cf7f13b182f4c0e5b2efbac0efe6cf6d756c8b89f4b79c5707a043ed9ea740574ee97f7feaf19471f34a12a7eaf32d5f3090aa2260ea8624dc8a138e74e0bf0f62307618620001ea60201b60201c565b5050620001467f22c82707ba960a14c7592ffb6b8cfaa073fed0048a84cc7fa41f6b5bd8e7f2e47f3a6eb71757dfc6e784c1459d26270140c2c147d95ca985c80026fc5301c3eca17f8a7e378434598edc36d108689a030cbc9d7d465de4f74c71bae1028eed6a881b1818620001ea60201b60201c565b620001bb7f8230223f691b981717299fae9549350a0d894555723531f02108b1f522c1a7977f6da5e1284143cdd2d15038a59bde3be031250f00291d64494c12d967b3a4e0c37fc53637662700e6c65104059db8bba34439e0c32483ab7c34e3ccae52c73954951818620001ea60201b60201c565b50506200085f565b5f7f01ffc9a7a5cef8baa21ed3c5c0d7e23accb804b619e9333b597f47a0d84076e2905090565b63ffffffff60e01b817bffffffffffffffffffffffffffffffffffffffffffffffffffffffff19160362000255576040517f08c379a00000000000000000000000000000000000000000000000000000000081526004016200024c906200083f565b60405180910390fd5b60015f80837bffffffffffffffffffffffffffffffffffffffffffffffffffffffff19167bffffffffffffffffffffffffffffffffffffffffffffffffffffffff191681526020019081526020015f205f6101000a81548160ff02191690831515021790555050565b5f604051905090565b5f80fd5b5f80fd5b5f80fd5b5f80fd5b5f601f19601f8301169050919050565b7f4e487b71000000000000000000000000000000000000000000000000000000005f52604160045260245ffd5b6200031f82620002d7565b810181811067ffffffffffffffff82111715620003415762000340620002e7565b5b80604052505050565b5f62000355620002be565b905062000363828262000314565b919050565b5f67ffffffffffffffff821115620003855762000384620002e7565b5b6200039082620002d7565b9050602081019050919050565b5f5b83811015620003bc5780820151818401526020810190506200039f565b5f8484015250505050565b5f620003dd620003d78462000368565b6200034a565b905082815260208101848484011115620003fc57620003fb620002d3565b5b620004098482856200039d565b509392505050565b5f82601f830112620004285762000427620002cf565b5b81516200043a848260208601620003c7565b91505092915050565b5f80604083850312156200045c576200045b620002c7565b5b5f83015167ffffffffffffffff8111156200047c576200047b620002cb565b5b6200048a8582860162000411565b925050602083015167ffffffffffffffff811115620004ae57620004ad620002cb565b5b620004bc8582860162000411565b9150509250929050565b5f81519050919050565b7f4e487b71000000000000000000000000000000000000000000000000000000005f52602260045260245ffd5b5f60028204905060018216806200051557607f821691505b6020821081036200052b576200052a620004d0565b5b50919050565b5f819050815f5260205f209050919050565b5f6020601f8301049050919050565b5f82821b905092915050565b5f600883026200058f7fffffffffffffffffffffffffffffffffffffffffffffffffffffffffffffffff8262000552565b6200059b868362000552565b95508019841693508086168417925050509392505050565b5f819050919050565b5f819050919050565b5f620005e5620005df620005d984620005b3565b620005bc565b620005b3565b9050919050565b5f819050919050565b6200060083620005c5565b620006186200060f82620005ec565b8484546200055e565b825550505050565b5f90565b6200062e62000620565b6200063b818484620005f5565b505050565b5b818110156200066257620006565f8262000624565b60018101905062000641565b5050565b601f821115620006b1576200067b8162000531565b620006868462000543565b8101602085101562000696578190505b620006ae620006a58562000543565b83018262000640565b50505b505050565b5f82821c905092915050565b5f620006d35f1984600802620006b6565b1980831691505092915050565b5f620006ed8383620006c2565b9150826002028217905092915050565b6200070882620004c6565b67ffffffffffffffff811115620007245762000723620002e7565b5b620007308254620004fd565b6200073d82828562000666565b5f60209050601f83116001811462000773575f84156200075e578287015190505b6200076a8582620006e0565b865550620007d9565b601f198416620007838662000531565b5f5b82811015620007ac5784890151825560018201915060208501945060208101905062000785565b86831015620007cc5784890151620007c8601f891682620006c2565b8355505b6001600288020188555050505b505050505050565b5f82825260208201905092915050565b7f4552433136353a20696e76616c696420696e74657266616365000000000000005f82015250565b5f62000827601983620007e1565b91506200083482620007f1565b602082019050919050565b5f6020820190508181035f830152620008588162000819565b9050919050565b611659806200086d5f395ff3fe60806040526004361061009b575f3560e01c806323b872dd1161006357806323b872dd1461017f5780632f745c591461019b5780634f6ccce7146101d75780636352211e1461021357806370a082311461024f57806395d89b411461028b5761009b565b806301ffc9a71461009f57806306fdde03146100db578063095ea7b31461010557806318160ddd1461012d578063214cdb8014610157575b5f80fd5b3480156100aa575f80fd5b506100c560048036038101906100c09190610ce1565b6102b5565b6040516100d29190610d26565b60405180910390f35b3480156100e6575f80fd5b506100ef610318565b6040516100fc9190610dc9565b60405180910390f35b348015610110575f80fd5b5061012b60048036038101906101269190610e76565b6103a8565b005b348015610138575f80fd5b5061014161053f565b60405161014e9190610ec3565b60405180910390f35b348015610162575f80fd5b5061017d60048036038101906101789190610ce1565b61054b565b005b61019960048036038101906101949190610edc565b61061c565b005b3480156101a6575f80fd5b506101c160048036038101906101bc9190610e76565b610675565b6040516101ce9190610ec3565b60405180910390f35b3480156101e2575f80fd5b506101fd60048036038101906101f89190610f2c565b610720565b60405161020a9190610ec3565b60405180910390f35b34801561021e575f80fd5b5061023960048036038101906102349190610f2c565b61078e565b6040516102469190610f66565b60405180910390f35b34801561025a575f80fd5b5061027560048036038101906102709190610f7f565b61080f565b6040516102829190610ec3565b60405180910390f35b348015610296575f80fd5b5061029f6108c3565b6040516102ac9190610dc9565b60405180910390f35b5f805f837bffffffffffffffffffffffffffffffffffffffffffffffffffffffff19167bffffffffffffffffffffffffffffffffffffffffffffffffffffffff191681526020019081526020015f205f9054906101000a900460ff169050919050565b60606001805461032790610fd7565b80601f016020809104026020016040519081016040528092919081815260200182805461035390610fd7565b801561039e5780601f106103755761010080835404028352916020019161039e565b820191905f5260205f20905b81548152906001019060200180831161038157829003601f168201915b5050505050905090565b5f6103b28261078e565b90508073ffffffffffffffffffffffffffffffffffffffff168373ffffffffffffffffffffffffffffffffffffffff1603610422576040517f08c379a000000000000000000000000000000000000000000000000000000000815260040161041990611077565b60405180910390fd5b8073ffffffffffffffffffffffffffffffffffffffff163373ffffffffffffffffffffffffffffffffffffffff1614610490576040517f08c379a000000000000000000000000000000000000000000000000000000000815260040161048790611105565b60405180910390fd5b8260055f8481526020019081526020015f205f6101000a81548173ffffffffffffffffffffffffffffffffffffffff021916908373ffffffffffffffffffffffffffffffffffffffff160217905550818373ffffffffffffffffffffffffffffffffffffffff168273ffffffffffffffffffffffffffffffffffffffff167f8c5be1e5ebec7d5bd14f71427d1e84f3dd0314c0f7b2291e5b200ac8c7c3b92560405160405180910390a4505050565b5f600680549050905090565b63ffffffff60e01b817bffffffffffffffffffffffffffffffffffffffffffffffffffffffff1916036105b3576040517f08c379a00000000000000000000000000000000000000000000000000000000081526004016105aa9061116d565b60405180910390fd5b60015f80837bffffffffffffffffffffffffffffffffffffffffffffffffffffffff19167bffffffffffffffffffffffffffffffffffffffffffffffffffffffff191681526020019081526020015f205f6101000a81548160ff02191690831515021790555050565b6106263382610953565b610665576040517f08c379a000000000000000000000000000000000000000000000000000000000815260040161065c906111d5565b60405180910390fd5b6106708383836109e0565b505050565b5f61067f8361080f565b82106106c0576040517f08c379a00000000000000000000000000000000000000000000000000000000081526004016106b79061123d565b60405180910390fd5b60085f8473ffffffffffffffffffffffffffffffffffffffff1673ffffffffffffffffffffffffffffffffffffffff1681526020019081526020015f20828154811061070f5761070e61125b565b5b905f5260205f200154905092915050565b5f61072961053f565b821061076a576040517f08c379a0000000000000000000000000000000000000000000000000000000008152600401610761906112d2565b60405180910390fd5b6006828154811061077e5761077d61125b565b5b905f5260205f2001549050919050565b5f61079882610c1b565b6107d7576040517f08c379a00000000000000000000000000000000000000000000000000000000081526004016107ce90611360565b60405180910390fd5b60035f8381526020019081526020015f205f9054906101000a900473ffffffffffffffffffffffffffffffffffffffff169050919050565b5f8073ffffffffffffffffffffffffffffffffffffffff168273ffffffffffffffffffffffffffffffffffffffff160361087e576040517f08c379a0000000000000000000000000000000000000000000000000000000008152600401610875906113ee565b60405180910390fd5b60045f8373ffffffffffffffffffffffffffffffffffffffff1673ffffffffffffffffffffffffffffffffffffffff1681526020019081526020015f20549050919050565b6060600280546108d290610fd7565b80601f01602080910402602001604051908101604052809291908181526020018280546108fe90610fd7565b80156109495780601f1061092057610100808354040283529160200191610949565b820191905f5260205f20905b81548152906001019060200180831161092c57829003601f168201915b5050505050905090565b5f61095d82610c1b565b61099c576040517f08c379a000000000000000000000000000000000000000000000000000000000815260040161099390611456565b60405180910390fd5b5f6109a68361078e565b90508073ffffffffffffffffffffffffffffffffffffffff168473ffffffffffffffffffffffffffffffffffffffff161491505092915050565b5f73ffffffffffffffffffffffffffffffffffffffff168273ffffffffffffffffffffffffffffffffffffffff1603610a4e576040517f08c379a0000000000000000000000000000000000000000000000000000000008152600401610a45906114e4565b60405180910390fd5b8273ffffffffffffffffffffffffffffffffffffffff16610a6e8261078e565b73ffffffffffffffffffffffffffffffffffffffff1614610ac4576040517f08c379a0000000000000000000000000000000000000000000000000000000008152600401610abb90611572565b60405180910390fd5b600160045f8573ffffffffffffffffffffffffffffffffffffffff1673ffffffffffffffffffffffffffffffffffffffff1681526020019081526020015f205f828254610b1191906115bd565b92505081905550600160045f8473ffffffffffffffffffffffffffffffffffffffff1673ffffffffffffffffffffffffffffffffffffffff1681526020019081526020015f205f828254610b6591906115f0565b925050819055508160035f8381526020019081526020015f205f6101000a81548173ffffffffffffffffffffffffffffffffffffffff021916908373ffffffffffffffffffffffffffffffffffffffff160217905550808273ffffffffffffffffffffffffffffffffffffffff168473ffffffffffffffffffffffffffffffffffffffff167fddf252ad1be2c89b69c2b068fc378daa952ba7f163c4a11628f55a4df523b3ef60405160405180910390a4505050565b5f8060035f8481526020019081526020015f205f9054906101000a900473ffffffffffffffffffffffffffffffffffffffff1690505f73ffffffffffffffffffffffffffffffffffffffff168173ffffffffffffffffffffffffffffffffffffffff161415915050919050565b5f80fd5b5f7fffffffff0000000000000000000000000000000000000000000000000000000082169050919050565b610cc081610c8c565b8114610cca575f80fd5b50565b5f81359050610cdb81610cb7565b92915050565b5f60208284031215610cf657610cf5610c88565b5b5f610d0384828501610ccd565b91505092915050565b5f8115159050919050565b610d2081610d0c565b82525050565b5f602082019050610d395f830184610d17565b92915050565b5f81519050919050565b5f82825260208201905092915050565b5f5b83811015610d76578082015181840152602081019050610d5b565b5f8484015250505050565b5f601f19601f8301169050919050565b5f610d9b82610d3f565b610da58185610d49565b9350610db5818560208601610d59565b610dbe81610d81565b840191505092915050565b5f6020820190508181035f830152610de18184610d91565b905092915050565b5f73ffffffffffffffffffffffffffffffffffffffff82169050919050565b5f610e1282610de9565b9050919050565b610e2281610e08565b8114610e2c575f80fd5b50565b5f81359050610e3d81610e19565b92915050565b5f819050919050565b610e5581610e43565b8114610e5f575f80fd5b50565b5f81359050610e7081610e4c565b92915050565b5f8060408385031215610e8c57610e8b610c88565b5b5f610e9985828601610e2f565b9250506020610eaa85828601610e62565b9150509250929050565b610ebd81610e43565b82525050565b5f602082019050610ed65f830184610eb4565b92915050565b5f805f60608486031215610ef357610ef2610c88565b5b5f610f0086828701610e2f565b9350506020610f1186828701610e2f565b9250506040610f2286828701610e62565b9150509250925092565b5f60208284031215610f4157610f40610c88565b5b5f610f4e84828501610e62565b91505092915050565b610f6081610e08565b82525050565b5f602082019050610f795f830184610f57565b92915050565b5f60208284031215610f9457610f93610c88565b5b5f610fa184828501610e2f565b91505092915050565b7f4e487b71000000000000000000000000000000000000000000000000000000005f52602260045260245ffd5b5f6002820490506001821680610fee57607f821691505b60208210810361100157611000610faa565b5b50919050565b7f4552433732313a20617070726f76616c20746f2063757272656e74206f776e655f8201527f7200000000000000000000000000000000000000000000000000000000000000602082015250565b5f611061602183610d49565b915061106c82611007565b604082019050919050565b5f6020820190508181035f83015261108e81611055565b9050919050565b7f4552433732313a2063757272656e742063616c6c6572206973206e6f742074685f8201527f65206f776e6572206f662074686520746f6b656e000000000000000000000000602082015250565b5f6110ef603483610d49565b91506110fa82611095565b604082019050919050565b5f6020820190508181035f83015261111c816110e3565b9050919050565b7f4552433136353a20696e76616c696420696e74657266616365000000000000005f82015250565b5f611157601983610d49565b915061116282611123565b602082019050919050565b5f6020820190508181035f8301526111848161114b565b9050919050565b7f4f776e6572206973206e6f7420617070726f76656400000000000000000000005f82015250565b5f6111bf601583610d49565b91506111ca8261118b565b602082019050919050565b5f6020820190508181035f8301526111ec816111b3565b9050919050565b7f6f776e657220696e646578206f7574206f6620626f756e6473000000000000005f82015250565b5f611227601983610d49565b9150611232826111f3565b602082019050919050565b5f6020820190508181035f8301526112548161121b565b9050919050565b7f4e487b71000000000000000000000000000000000000000000000000000000005f52603260045260245ffd5b7f676c6f62616c20696e646578206f7574206f6620626f756e64730000000000005f82015250565b5f6112bc601a83610d49565b91506112c782611288565b602082019050919050565b5f6020820190508181035f8301526112e9816112b0565b9050919050565b7f6f776e657220717565727920666f72206e6f6e2d717565727920666f72206e6f5f8201527f6e2d6578697374656e7420746f6b656e00000000000000000000000000000000602082015250565b5f61134a603083610d49565b9150611355826112f0565b604082019050919050565b5f6020820190508181035f8301526113778161133e565b9050919050565b7f4552433732313a206f776e657220717565727920666f72206e6f6e2d657869735f8201527f74656e7420746f6b656e00000000000000000000000000000000000000000000602082015250565b5f6113d8602a83610d49565b91506113e38261137e565b604082019050919050565b5f6020820190508181035f830152611405816113cc565b9050919050565b7f546f6b656e20646f6573206e6f742065786973747300000000000000000000005f82015250565b5f611440601583610d49565b915061144b8261140c565b602082019050919050565b5f6020820190508181035f83015261146d81611434565b9050919050565b7f4552433732313a205472616e7366657220746f20746865207a65726f206164645f8201527f7265737300000000000000000000000000000000000000000000000000000000602082015250565b5f6114ce602483610d49565b91506114d982611474565b604082019050919050565b5f6020820190508181035f8301526114fb816114c2565b9050919050565b7f4552433732313a20547279696e6720746f207472616e73666572206120746f6b5f8201527f656e20746865206164647265737320646f6573206e6f74206f776e0000000000602082015250565b5f61155c603b83610d49565b915061156782611502565b604082019050919050565b5f6020820190508181035f83015261158981611550565b9050919050565b7f4e487b71000000000000000000000000000000000000000000000000000000005f52601160045260245ffd5b5f6115c782610e43565b91506115d283610e43565b92508282039050818111156115ea576115e9611590565b5b92915050565b5f6115fa82610e43565b915061160583610e43565b925082820190508082111561161d5761161c611590565b5b9291505056fea264697066735822122091d104e5749313c092f29112df56c96b2602903bee840c447084fa9e3d7f2a6f64736f6c63430008170033",
  "immutableReferences": {},
  "source": "// SPDX-License-Identifier: MIT\npragma solidity ^0.8.0;\n\nimport \"./ERC721Enumerable.sol\";\nimport \"./ERC721MetaData.sol\";\n\ncontract ERC721Connector is ERC721MetaData, ERC721Enumerable {\n    constructor(string memory n, string memory s) ERC721MetaData(n, s) {}\n}\n",
  "sourcePath": "/home/david/projects/web3/nft-neonz-marketplace/src/contracts/ERC721Connector.sol",
  "compiler": {
    "name": "solc",
    "version": "0.8.23+commit.f704f362.Emscripten.clang"
  },
  "schemaVersion": "3.4.16",
  "updatedAt": "2023-11-30T09:18:47.155Z",
  "devdoc": {
    "events": {
      "Approval(address,address,uint256)": {
        "details": "This emits when the approved address for an NFT is changed or  reaffirmed. The zero address indicates there is no approved address.  When a Transfer event emits, this also indicates that the approved  address for that NFT (if any) is reset to none."
      },
      "Transfer(address,address,uint256)": {
        "details": "This emits when ownership of any NFT changes by any mechanism.  This event emits when NFTs are created (`from` == 0) and destroyed  (`to` == 0). Exception: during contract creation, any number of NFTs  may be created and assigned without emitting Transfer. At the time of  any transfer, the approved address for that NFT (if any) is reset to none."
      }
    },
    "kind": "dev",
    "methods": {
      "balanceOf(address)": {
        "details": "NFTs assigned to the zero address are considered invalid, and this  function throws for queries about the zero address.",
        "params": {
          "_owner": "An address for whom to query the balance"
        },
        "returns": {
          "_0": "The number of NFTs owned by `_owner`, possibly zero"
        }
      },
      "ownerOf(uint256)": {
        "details": "NFTs assigned to zero address are considered invalid, and queries  about them do throw.",
        "params": {
          "_tokenId": "The identifier for an NFT"
        },
        "returns": {
          "_0": "The address of the owner of the NFT"
        }
      },
      "tokenByIndex(uint256)": {
        "details": "Throws if `_index` >= `totalSupply()`.",
        "params": {
          "_index": "A counter less than `totalSupply()`"
        },
        "returns": {
          "_0": "The token identifier for the `_index`th NFT,  (sort order not specified)"
        }
      },
      "tokenOfOwnerByIndex(address,uint256)": {
        "details": "Throws if `_index` >= `balanceOf(_owner)` or if  `_owner` is the zero address, representing invalid NFTs.",
        "params": {
          "_index": "A counter less than `balanceOf(_owner)`",
          "_owner": "An address where we are interested in NFTs owned by them"
        },
        "returns": {
          "_0": "The token identifier for the `_index`th NFT assigned to `_owner`,   (sort order not specified)"
        }
      },
      "totalSupply()": {
        "returns": {
          "_0": "A count of valid NFTs tracked by this contract, where each one of  them has an assigned and queryable owner not equal to the zero address"
        }
      },
      "transferFrom(address,address,uint256)": {
        "details": "Throws unless `msg.sender` is the current owner, an authorized  operator, or the approved address for this NFT. Throws if `_from` is  not the current owner. Throws if `_to` is the zero address. Throws if  `_tokenId` is not a valid NFT.",
        "params": {
          "_from": "The current owner of the NFT",
          "_to": "The new owner",
          "_tokenId": "The NFT to transfer"
        }
      }
    },
    "version": 1
  },
  "userdoc": {
    "kind": "user",
    "methods": {
      "balanceOf(address)": {
        "notice": "Count all NFTs assigned to an owner"
      },
      "name()": {
        "notice": "A descriptive name for a collection of NFTs in this contract"
      },
      "ownerOf(uint256)": {
        "notice": "Find the owner of an NFT"
      },
      "symbol()": {
        "notice": "An abbreviated name for NFTs in this contract"
      },
      "tokenByIndex(uint256)": {
        "notice": "Enumerate valid NFTs"
      },
      "tokenOfOwnerByIndex(address,uint256)": {
        "notice": "Enumerate NFTs assigned to an owner"
      },
      "totalSupply()": {
        "notice": "Count NFTs tracked by this contract"
      },
      "transferFrom(address,address,uint256)": {
        "notice": "Transfer ownership of an NFT -- THE CALLER IS RESPONSIBLE  TO CONFIRM THAT `_to` IS CAPABLE OF RECEIVING NFTS OR ELSE  THEY MAY BE PERMANENTLY LOST"
      }
    },
    "version": 1
  }
}