{
  "contractName": "ERC721Enumerable",
  "abi": [
    {
      "anonymous": false,
      "inputs": [
        {
          "indexed": true,
          "internalType": "address",
          "name": "_owner",
          "type": "address"
        },
        {
          "indexed": true,
          "internalType": "address",
          "name": "_approved",
          "type": "address"
        },
        {
          "indexed": true,
          "internalType": "uint256",
          "name": "_tokenId",
          "type": "uint256"
        }
      ],
      "name": "Approval",
      "type": "event"
    },
    {
      "anonymous": false,
      "inputs": [
        {
          "indexed": true,
          "internalType": "address",
          "name": "_from",
          "type": "address"
        },
        {
          "indexed": true,
          "internalType": "address",
          "name": "_to",
          "type": "address"
        },
        {
          "indexed": true,
          "internalType": "uint256",
          "name": "_tokenId",
          "type": "uint256"
        }
      ],
      "name": "Transfer",
      "type": "event"
    },
    {
      "inputs": [
        {
          "internalType": "address",
          "name": "_to",
          "type": "address"
        },
        {
          "internalType": "uint256",
          "name": "_tokenId",
          "type": "uint256"
        }
      ],
      "name": "approve",
      "outputs": [],
      "stateMutability": "nonpayable",
      "type": "function"
    },
    {
      "inputs": [
        {
          "internalType": "address",
          "name": "_owner",
          "type": "address"
        }
      ],
      "name": "balanceOf",
      "outputs": [
        {
          "internalType": "uint256",
          "name": "",
          "type": "uint256"
        }
      ],
      "stateMutability": "view",
      "type": "function"
    },
    {
      "inputs": [
        {
          "internalType": "uint256",
          "name": "_tokenId",
          "type": "uint256"
        }
      ],
      "name": "ownerOf",
      "outputs": [
        {
          "internalType": "address",
          "name": "",
          "type": "address"
        }
      ],
      "stateMutability": "view",
      "type": "function"
    },
    {
      "inputs": [
        {
          "internalType": "bytes4",
          "name": "interfaceId",
          "type": "bytes4"
        }
      ],
      "name": "registerInterface",
      "outputs": [],
      "stateMutability": "nonpayable",
      "type": "function"
    },
    {
      "inputs": [
        {
          "internalType": "bytes4",
          "name": "interfaceId",
          "type": "bytes4"
        }
      ],
      "name": "supportsInterface",
      "outputs": [
        {
          "internalType": "bool",
          "name": "",
          "type": "bool"
        }
      ],
      "stateMutability": "view",
      "type": "function"
    },
    {
      "inputs": [
        {
          "internalType": "address",
          "name": "_from",
          "type": "address"
        },
        {
          "internalType": "address",
          "name": "_to",
          "type": "address"
        },
        {
          "internalType": "uint256",
          "name": "_tokenId",
          "type": "uint256"
        }
      ],
      "name": "transferFrom",
      "outputs": [],
      "stateMutability": "payable",
      "type": "function"
    },
    {
      "inputs": [],
      "name": "totalSupply",
      "outputs": [
        {
          "internalType": "uint256",
          "name": "",
          "type": "uint256"
        }
      ],
      "stateMutability": "view",
      "type": "function"
    },
    {
      "inputs": [
        {
          "internalType": "uint256",
          "name": "_index",
          "type": "uint256"
        }
      ],
      "name": "tokenByIndex",
      "outputs": [
        {
          "internalType": "uint256",
          "name": "",
          "type": "uint256"
        }
      ],
      "stateMutability": "view",
      "type": "function"
    },
    {
      "inputs": [
        {
          "internalType": "address",
          "name": "_owner",
          "type": "address"
        },
        {
          "internalType": "uint256",
          "name": "_index",
          "type": "uint256"
        }
      ],
      "name": "tokenOfOwnerByIndex",
      "outputs": [
        {
          "internalType": "uint256",
          "name": "",
          "type": "uint256"
        }
      ],
      "stateMutability": "view",
      "type": "function"
    }
  ],
  "bytecode": "0x608060405234801562000010575f80fd5b5062000031620000256200003760201b60201c565b6200005e60201b60201c565b620001b0565b5f7f01ffc9a7a5cef8baa21ed3c5c0d7e23accb804b619e9333b597f47a0d84076e2905090565b63ffffffff60e01b817bffffffffffffffffffffffffffffffffffffffffffffffffffffffff191603620000c9576040517f08c379a0000000000000000000000000000000000000000000000000000000008152600401620000c09062000190565b60405180910390fd5b60015f80837bffffffffffffffffffffffffffffffffffffffffffffffffffffffff19167bffffffffffffffffffffffffffffffffffffffffffffffffffffffff191681526020019081526020015f205f6101000a81548160ff02191690831515021790555050565b5f82825260208201905092915050565b7f4552433136353a20696e76616c696420696e74657266616365000000000000005f82015250565b5f6200017860198362000132565b9150620001858262000142565b602082019050919050565b5f6020820190508181035f830152620001a9816200016a565b9050919050565b6113d880620001be5f395ff3fe608060405260043610610085575f3560e01c806323b872dd1161005857806323b872dd1461013f5780632f745c591461015b5780634f6ccce7146101975780636352211e146101d357806370a082311461020f57610085565b806301ffc9a714610089578063095ea7b3146100c557806318160ddd146100ed578063214cdb8014610117575b5f80fd5b348015610094575f80fd5b506100af60048036038101906100aa9190610b57565b61024b565b6040516100bc9190610b9c565b60405180910390f35b3480156100d0575f80fd5b506100eb60048036038101906100e69190610c42565b6102ae565b005b3480156100f8575f80fd5b50610101610445565b60405161010e9190610c8f565b60405180910390f35b348015610122575f80fd5b5061013d60048036038101906101389190610b57565b610451565b005b61015960048036038101906101549190610ca8565b610522565b005b348015610166575f80fd5b50610181600480360381019061017c9190610c42565b61057b565b60405161018e9190610c8f565b60405180910390f35b3480156101a2575f80fd5b506101bd60048036038101906101b89190610cf8565b610626565b6040516101ca9190610c8f565b60405180910390f35b3480156101de575f80fd5b506101f960048036038101906101f49190610cf8565b610694565b6040516102069190610d32565b60405180910390f35b34801561021a575f80fd5b5061023560048036038101906102309190610d4b565b610715565b6040516102429190610c8f565b60405180910390f35b5f805f837bffffffffffffffffffffffffffffffffffffffffffffffffffffffff19167bffffffffffffffffffffffffffffffffffffffffffffffffffffffff191681526020019081526020015f205f9054906101000a900460ff169050919050565b5f6102b882610694565b90508073ffffffffffffffffffffffffffffffffffffffff168373ffffffffffffffffffffffffffffffffffffffff1603610328576040517f08c379a000000000000000000000000000000000000000000000000000000000815260040161031f90610df6565b60405180910390fd5b8073ffffffffffffffffffffffffffffffffffffffff163373ffffffffffffffffffffffffffffffffffffffff1614610396576040517f08c379a000000000000000000000000000000000000000000000000000000000815260040161038d90610e84565b60405180910390fd5b8260035f8481526020019081526020015f205f6101000a81548173ffffffffffffffffffffffffffffffffffffffff021916908373ffffffffffffffffffffffffffffffffffffffff160217905550818373ffffffffffffffffffffffffffffffffffffffff168273ffffffffffffffffffffffffffffffffffffffff167f8c5be1e5ebec7d5bd14f71427d1e84f3dd0314c0f7b2291e5b200ac8c7c3b92560405160405180910390a4505050565b5f600480549050905090565b63ffffffff60e01b817bffffffffffffffffffffffffffffffffffffffffffffffffffffffff1916036104b9576040517f08c379a00000000000000000000000000000000000000000000000000000000081526004016104b090610eec565b60405180910390fd5b60015f80837bffffffffffffffffffffffffffffffffffffffffffffffffffffffff19167bffffffffffffffffffffffffffffffffffffffffffffffffffffffff191681526020019081526020015f205f6101000a81548160ff02191690831515021790555050565b61052c33826107c9565b61056b576040517f08c379a000000000000000000000000000000000000000000000000000000000815260040161056290610f54565b60405180910390fd5b610576838383610856565b505050565b5f61058583610715565b82106105c6576040517f08c379a00000000000000000000000000000000000000000000000000000000081526004016105bd90610fbc565b60405180910390fd5b60065f8473ffffffffffffffffffffffffffffffffffffffff1673ffffffffffffffffffffffffffffffffffffffff1681526020019081526020015f20828154811061061557610614610fda565b5b905f5260205f200154905092915050565b5f61062f610445565b8210610670576040517f08c379a000000000000000000000000000000000000000000000000000000000815260040161066790611051565b60405180910390fd5b6004828154811061068457610683610fda565b5b905f5260205f2001549050919050565b5f61069e82610a91565b6106dd576040517f08c379a00000000000000000000000000000000000000000000000000000000081526004016106d4906110df565b60405180910390fd5b60015f8381526020019081526020015f205f9054906101000a900473ffffffffffffffffffffffffffffffffffffffff169050919050565b5f8073ffffffffffffffffffffffffffffffffffffffff168273ffffffffffffffffffffffffffffffffffffffff1603610784576040517f08c379a000000000000000000000000000000000000000000000000000000000815260040161077b9061116d565b60405180910390fd5b60025f8373ffffffffffffffffffffffffffffffffffffffff1673ffffffffffffffffffffffffffffffffffffffff1681526020019081526020015f20549050919050565b5f6107d382610a91565b610812576040517f08c379a0000000000000000000000000000000000000000000000000000000008152600401610809906111d5565b60405180910390fd5b5f61081c83610694565b90508073ffffffffffffffffffffffffffffffffffffffff168473ffffffffffffffffffffffffffffffffffffffff161491505092915050565b5f73ffffffffffffffffffffffffffffffffffffffff168273ffffffffffffffffffffffffffffffffffffffff16036108c4576040517f08c379a00000000000000000000000000000000000000000000000000000000081526004016108bb90611263565b60405180910390fd5b8273ffffffffffffffffffffffffffffffffffffffff166108e482610694565b73ffffffffffffffffffffffffffffffffffffffff161461093a576040517f08c379a0000000000000000000000000000000000000000000000000000000008152600401610931906112f1565b60405180910390fd5b600160025f8573ffffffffffffffffffffffffffffffffffffffff1673ffffffffffffffffffffffffffffffffffffffff1681526020019081526020015f205f828254610987919061133c565b92505081905550600160025f8473ffffffffffffffffffffffffffffffffffffffff1673ffffffffffffffffffffffffffffffffffffffff1681526020019081526020015f205f8282546109db919061136f565b925050819055508160015f8381526020019081526020015f205f6101000a81548173ffffffffffffffffffffffffffffffffffffffff021916908373ffffffffffffffffffffffffffffffffffffffff160217905550808273ffffffffffffffffffffffffffffffffffffffff168473ffffffffffffffffffffffffffffffffffffffff167fddf252ad1be2c89b69c2b068fc378daa952ba7f163c4a11628f55a4df523b3ef60405160405180910390a4505050565b5f8060015f8481526020019081526020015f205f9054906101000a900473ffffffffffffffffffffffffffffffffffffffff1690505f73ffffffffffffffffffffffffffffffffffffffff168173ffffffffffffffffffffffffffffffffffffffff161415915050919050565b5f80fd5b5f7fffffffff0000000000000000000000000000000000000000000000000000000082169050919050565b610b3681610b02565b8114610b40575f80fd5b50565b5f81359050610b5181610b2d565b92915050565b5f60208284031215610b6c57610b6b610afe565b5b5f610b7984828501610b43565b91505092915050565b5f8115159050919050565b610b9681610b82565b82525050565b5f602082019050610baf5f830184610b8d565b92915050565b5f73ffffffffffffffffffffffffffffffffffffffff82169050919050565b5f610bde82610bb5565b9050919050565b610bee81610bd4565b8114610bf8575f80fd5b50565b5f81359050610c0981610be5565b92915050565b5f819050919050565b610c2181610c0f565b8114610c2b575f80fd5b50565b5f81359050610c3c81610c18565b92915050565b5f8060408385031215610c5857610c57610afe565b5b5f610c6585828601610bfb565b9250506020610c7685828601610c2e565b9150509250929050565b610c8981610c0f565b82525050565b5f602082019050610ca25f830184610c80565b92915050565b5f805f60608486031215610cbf57610cbe610afe565b5b5f610ccc86828701610bfb565b9350506020610cdd86828701610bfb565b9250506040610cee86828701610c2e565b9150509250925092565b5f60208284031215610d0d57610d0c610afe565b5b5f610d1a84828501610c2e565b91505092915050565b610d2c81610bd4565b82525050565b5f602082019050610d455f830184610d23565b92915050565b5f60208284031215610d6057610d5f610afe565b5b5f610d6d84828501610bfb565b91505092915050565b5f82825260208201905092915050565b7f4552433732313a20617070726f76616c20746f2063757272656e74206f776e655f8201527f7200000000000000000000000000000000000000000000000000000000000000602082015250565b5f610de0602183610d76565b9150610deb82610d86565b604082019050919050565b5f6020820190508181035f830152610e0d81610dd4565b9050919050565b7f4552433732313a2063757272656e742063616c6c6572206973206e6f742074685f8201527f65206f776e6572206f662074686520746f6b656e000000000000000000000000602082015250565b5f610e6e603483610d76565b9150610e7982610e14565b604082019050919050565b5f6020820190508181035f830152610e9b81610e62565b9050919050565b7f4552433136353a20696e76616c696420696e74657266616365000000000000005f82015250565b5f610ed6601983610d76565b9150610ee182610ea2565b602082019050919050565b5f6020820190508181035f830152610f0381610eca565b9050919050565b7f4f776e6572206973206e6f7420617070726f76656400000000000000000000005f82015250565b5f610f3e601583610d76565b9150610f4982610f0a565b602082019050919050565b5f6020820190508181035f830152610f6b81610f32565b9050919050565b7f6f776e657220696e646578206f7574206f6620626f756e6473000000000000005f82015250565b5f610fa6601983610d76565b9150610fb182610f72565b602082019050919050565b5f6020820190508181035f830152610fd381610f9a565b9050919050565b7f4e487b71000000000000000000000000000000000000000000000000000000005f52603260045260245ffd5b7f676c6f62616c20696e646578206f7574206f6620626f756e64730000000000005f82015250565b5f61103b601a83610d76565b915061104682611007565b602082019050919050565b5f6020820190508181035f8301526110688161102f565b9050919050565b7f6f776e657220717565727920666f72206e6f6e2d717565727920666f72206e6f5f8201527f6e2d6578697374656e7420746f6b656e00000000000000000000000000000000602082015250565b5f6110c9603083610d76565b91506110d48261106f565b604082019050919050565b5f6020820190508181035f8301526110f6816110bd565b9050919050565b7f4552433732313a206f776e657220717565727920666f72206e6f6e2d657869735f8201527f74656e7420746f6b656e00000000000000000000000000000000000000000000602082015250565b5f611157602a83610d76565b9150611162826110fd565b604082019050919050565b5f6020820190508181035f8301526111848161114b565b9050919050565b7f546f6b656e20646f6573206e6f742065786973747300000000000000000000005f82015250565b5f6111bf601583610d76565b91506111ca8261118b565b602082019050919050565b5f6020820190508181035f8301526111ec816111b3565b9050919050565b7f4552433732313a205472616e7366657220746f20746865207a65726f206164645f8201527f7265737300000000000000000000000000000000000000000000000000000000602082015250565b5f61124d602483610d76565b9150611258826111f3565b604082019050919050565b5f6020820190508181035f83015261127a81611241565b9050919050565b7f4552433732313a20547279696e6720746f207472616e73666572206120746f6b5f8201527f656e20746865206164647265737320646f6573206e6f74206f776e0000000000602082015250565b5f6112db603b83610d76565b91506112e682611281565b604082019050919050565b5f6020820190508181035f830152611308816112cf565b9050919050565b7f4e487b71000000000000000000000000000000000000000000000000000000005f52601160045260245ffd5b5f61134682610c0f565b915061135183610c0f565b92508282039050818111156113695761136861130f565b5b92915050565b5f61137982610c0f565b915061138483610c0f565b925082820190508082111561139c5761139b61130f565b5b9291505056fea264697066735822122052a0d4449128d61e70d33003e9ff477bc52a1955c07fd2a5130c1386b8b67dfe64736f6c63430008170033",
  "immutableReferences": {},
  "source": "// SPDX-License-Identifier: MIT\r\npragma solidity ^0.8.0;\r\n\r\nimport \"./ERC721.sol\";\r\n\r\ncontract ERC721Enumerable is ERC721 {\r\n    uint256[] private _allTokens;\r\n\r\n    mapping(uint256 => uint256) private _allTokensIndex;\r\n\r\n    mapping(address => uint256[]) private _ownedTokens;\r\n\r\n    mapping(uint256 => uint256) private _ownedTokensIndex;\r\n\r\n    function totalSupply() public view returns (uint256) {\r\n        return _allTokens.length;\r\n    }\r\n\r\n    function tokenByIndex(uint256 _index) external view returns (uint256) {\r\n        require(_index < totalSupply(), \"global index out of bounds\");\r\n        return _allTokens[_index];\r\n    }\r\n\r\n    function tokenOfOwnerByIndex(\r\n        address _owner,\r\n        uint256 _index\r\n    ) external view returns (uint256) {\r\n        require(_index < balanceOf(_owner), \"owner index out of bounds\");\r\n        return _ownedTokens[_owner][_index];\r\n    }\r\n\r\n    function _mint(address _to, uint256 _tokenId) internal override(ERC721) {\r\n        super._mint(_to, _tokenId);\r\n        _addTokensToAllTokenEnumeration(_tokenId);\r\n        _addTokensToOwnerEnumeration(_to, _tokenId);\r\n    }\r\n\r\n    function _addTokensToAllTokenEnumeration(uint256 _tokenId) private {\r\n        _allTokensIndex[_tokenId] = _allTokens.length;\r\n        _allTokens.push(_tokenId);\r\n    }\r\n\r\n    function _addTokensToOwnerEnumeration(\r\n        address _to,\r\n        uint256 _tokenId\r\n    ) private {\r\n        _ownedTokensIndex[_tokenId] = _ownedTokens[_to].length;\r\n        _ownedTokens[_to].push(_tokenId);\r\n    }\r\n}\r\n",
  "sourcePath": "/home/davaux/projects/web3-projects/nft-neonz-marketplace/src/contracts/ERC721Enumerable.sol",
  "compiler": {
    "name": "solc",
    "version": "0.8.23+commit.f704f362.Emscripten.clang"
  },
  "schemaVersion": "3.4.16",
  "updatedAt": "2023-11-28T15:59:06.537Z",
  "devdoc": {
    "events": {
      "Approval(address,address,uint256)": {
        "details": "This emits when the approved address for an NFT is changed or  reaffirmed. The zero address indicates there is no approved address.  When a Transfer event emits, this also indicates that the approved  address for that NFT (if any) is reset to none."
      },
      "Transfer(address,address,uint256)": {
        "details": "This emits when ownership of any NFT changes by any mechanism.  This event emits when NFTs are created (`from` == 0) and destroyed  (`to` == 0). Exception: during contract creation, any number of NFTs  may be created and assigned without emitting Transfer. At the time of  any transfer, the approved address for that NFT (if any) is reset to none."
      }
    },
    "kind": "dev",
    "methods": {
      "balanceOf(address)": {
        "details": "NFTs assigned to the zero address are considered invalid, and this  function throws for queries about the zero address.",
        "params": {
          "_owner": "An address for whom to query the balance"
        },
        "returns": {
          "_0": "The number of NFTs owned by `_owner`, possibly zero"
        }
      },
      "ownerOf(uint256)": {
        "details": "NFTs assigned to zero address are considered invalid, and queries  about them do throw.",
        "params": {
          "_tokenId": "The identifier for an NFT"
        },
        "returns": {
          "_0": "The address of the owner of the NFT"
        }
      },
      "transferFrom(address,address,uint256)": {
        "details": "Throws unless `msg.sender` is the current owner, an authorized  operator, or the approved address for this NFT. Throws if `_from` is  not the current owner. Throws if `_to` is the zero address. Throws if  `_tokenId` is not a valid NFT.",
        "params": {
          "_from": "The current owner of the NFT",
          "_to": "The new owner",
          "_tokenId": "The NFT to transfer"
        }
      }
    },
    "version": 1
  },
  "userdoc": {
    "kind": "user",
    "methods": {
      "balanceOf(address)": {
        "notice": "Count all NFTs assigned to an owner"
      },
      "ownerOf(uint256)": {
        "notice": "Find the owner of an NFT"
      },
      "transferFrom(address,address,uint256)": {
        "notice": "Transfer ownership of an NFT -- THE CALLER IS RESPONSIBLE  TO CONFIRM THAT `_to` IS CAPABLE OF RECEIVING NFTS OR ELSE  THEY MAY BE PERMANENTLY LOST"
      }
    },
    "version": 1
  }
}