{
  "contractName": "ERC721Connector",
  "abi": [
    {
      "inputs": [
        {
          "internalType": "string",
          "name": "n",
          "type": "string"
        },
        {
          "internalType": "string",
          "name": "s",
          "type": "string"
        }
      ],
      "stateMutability": "nonpayable",
      "type": "constructor"
    },
    {
      "anonymous": false,
      "inputs": [
        {
          "indexed": true,
          "internalType": "address",
          "name": "_owner",
          "type": "address"
        },
        {
          "indexed": true,
          "internalType": "address",
          "name": "_approved",
          "type": "address"
        },
        {
          "indexed": true,
          "internalType": "uint256",
          "name": "_tokenId",
          "type": "uint256"
        }
      ],
      "name": "Approval",
      "type": "event"
    },
    {
      "anonymous": false,
      "inputs": [
        {
          "indexed": true,
          "internalType": "address",
          "name": "_from",
          "type": "address"
        },
        {
          "indexed": true,
          "internalType": "address",
          "name": "_to",
          "type": "address"
        },
        {
          "indexed": true,
          "internalType": "uint256",
          "name": "_tokenId",
          "type": "uint256"
        }
      ],
      "name": "Transfer",
      "type": "event"
    },
    {
      "inputs": [
        {
          "internalType": "address",
          "name": "_to",
          "type": "address"
        },
        {
          "internalType": "uint256",
          "name": "_tokenId",
          "type": "uint256"
        }
      ],
      "name": "approve",
      "outputs": [],
      "stateMutability": "nonpayable",
      "type": "function"
    },
    {
      "inputs": [
        {
          "internalType": "address",
          "name": "_owner",
          "type": "address"
        }
      ],
      "name": "balanceOf",
      "outputs": [
        {
          "internalType": "uint256",
          "name": "",
          "type": "uint256"
        }
      ],
      "stateMutability": "view",
      "type": "function"
    },
    {
      "inputs": [],
      "name": "name",
      "outputs": [
        {
          "internalType": "string",
          "name": "",
          "type": "string"
        }
      ],
      "stateMutability": "view",
      "type": "function"
    },
    {
      "inputs": [
        {
          "internalType": "uint256",
          "name": "_tokenId",
          "type": "uint256"
        }
      ],
      "name": "ownerOf",
      "outputs": [
        {
          "internalType": "address",
          "name": "",
          "type": "address"
        }
      ],
      "stateMutability": "view",
      "type": "function"
    },
    {
      "inputs": [
        {
          "internalType": "bytes4",
          "name": "interfaceId",
          "type": "bytes4"
        }
      ],
      "name": "registerInterface",
      "outputs": [],
      "stateMutability": "nonpayable",
      "type": "function"
    },
    {
      "inputs": [
        {
          "internalType": "bytes4",
          "name": "interfaceId",
          "type": "bytes4"
        }
      ],
      "name": "supportsInterface",
      "outputs": [
        {
          "internalType": "bool",
          "name": "",
          "type": "bool"
        }
      ],
      "stateMutability": "view",
      "type": "function"
    },
    {
      "inputs": [],
      "name": "symbol",
      "outputs": [
        {
          "internalType": "string",
          "name": "",
          "type": "string"
        }
      ],
      "stateMutability": "view",
      "type": "function"
    },
    {
      "inputs": [
        {
          "internalType": "uint256",
          "name": "_index",
          "type": "uint256"
        }
      ],
      "name": "tokenByIndex",
      "outputs": [
        {
          "internalType": "uint256",
          "name": "",
          "type": "uint256"
        }
      ],
      "stateMutability": "view",
      "type": "function"
    },
    {
      "inputs": [
        {
          "internalType": "address",
          "name": "_owner",
          "type": "address"
        },
        {
          "internalType": "uint256",
          "name": "_index",
          "type": "uint256"
        }
      ],
      "name": "tokenOfOwnerByIndex",
      "outputs": [
        {
          "internalType": "uint256",
          "name": "",
          "type": "uint256"
        }
      ],
      "stateMutability": "view",
      "type": "function"
    },
    {
      "inputs": [],
      "name": "totalSupply",
      "outputs": [
        {
          "internalType": "uint256",
          "name": "",
          "type": "uint256"
        }
      ],
      "stateMutability": "view",
      "type": "function"
    },
    {
      "inputs": [
        {
          "internalType": "address",
          "name": "_from",
          "type": "address"
        },
        {
          "internalType": "address",
          "name": "_to",
          "type": "address"
        },
        {
          "internalType": "uint256",
          "name": "_tokenId",
          "type": "uint256"
        }
      ],
      "name": "transferFrom",
      "outputs": [],
      "stateMutability": "payable",
      "type": "function"
    }
  ],
  "bytecode": "0x608060405234801562000010575f80fd5b5060405162001d8a38038062001d8a833981810160405281019062000036919062000306565b8181815f9081620000489190620005c0565b5080600190816200005a9190620005c0565b5050506200007d620000716200008560201b60201c565b620000ac60201b60201c565b505062000722565b5f7f01ffc9a7a5cef8baa21ed3c5c0d7e23accb804b619e9333b597f47a0d84076e2905090565b63ffffffff60e01b817bffffffffffffffffffffffffffffffffffffffffffffffffffffffff19160362000117576040517f08c379a00000000000000000000000000000000000000000000000000000000081526004016200010e9062000702565b60405180910390fd5b600160025f837bffffffffffffffffffffffffffffffffffffffffffffffffffffffff19167bffffffffffffffffffffffffffffffffffffffffffffffffffffffff191681526020019081526020015f205f6101000a81548160ff02191690831515021790555050565b5f604051905090565b5f80fd5b5f80fd5b5f80fd5b5f80fd5b5f601f19601f8301169050919050565b7f4e487b71000000000000000000000000000000000000000000000000000000005f52604160045260245ffd5b620001e2826200019a565b810181811067ffffffffffffffff82111715620002045762000203620001aa565b5b80604052505050565b5f6200021862000181565b9050620002268282620001d7565b919050565b5f67ffffffffffffffff821115620002485762000247620001aa565b5b62000253826200019a565b9050602081019050919050565b5f5b838110156200027f57808201518184015260208101905062000262565b5f8484015250505050565b5f620002a06200029a846200022b565b6200020d565b905082815260208101848484011115620002bf57620002be62000196565b5b620002cc84828562000260565b509392505050565b5f82601f830112620002eb57620002ea62000192565b5b8151620002fd8482602086016200028a565b91505092915050565b5f80604083850312156200031f576200031e6200018a565b5b5f83015167ffffffffffffffff8111156200033f576200033e6200018e565b5b6200034d85828601620002d4565b925050602083015167ffffffffffffffff8111156200037157620003706200018e565b5b6200037f85828601620002d4565b9150509250929050565b5f81519050919050565b7f4e487b71000000000000000000000000000000000000000000000000000000005f52602260045260245ffd5b5f6002820490506001821680620003d857607f821691505b602082108103620003ee57620003ed62000393565b5b50919050565b5f819050815f5260205f209050919050565b5f6020601f8301049050919050565b5f82821b905092915050565b5f60088302620004527fffffffffffffffffffffffffffffffffffffffffffffffffffffffffffffffff8262000415565b6200045e868362000415565b95508019841693508086168417925050509392505050565b5f819050919050565b5f819050919050565b5f620004a8620004a26200049c8462000476565b6200047f565b62000476565b9050919050565b5f819050919050565b620004c38362000488565b620004db620004d282620004af565b84845462000421565b825550505050565b5f90565b620004f1620004e3565b620004fe818484620004b8565b505050565b5b818110156200052557620005195f82620004e7565b60018101905062000504565b5050565b601f82111562000574576200053e81620003f4565b620005498462000406565b8101602085101562000559578190505b62000571620005688562000406565b83018262000503565b50505b505050565b5f82821c905092915050565b5f620005965f198460080262000579565b1980831691505092915050565b5f620005b0838362000585565b9150826002028217905092915050565b620005cb8262000389565b67ffffffffffffffff811115620005e757620005e6620001aa565b5b620005f38254620003c0565b6200060082828562000529565b5f60209050601f83116001811462000636575f841562000621578287015190505b6200062d8582620005a3565b8655506200069c565b601f1984166200064686620003f4565b5f5b828110156200066f5784890151825560018201915060208501945060208101905062000648565b868310156200068f57848901516200068b601f89168262000585565b8355505b6001600288020188555050505b505050505050565b5f82825260208201905092915050565b7f4552433136353a20696e76616c696420696e74657266616365000000000000005f82015250565b5f620006ea601983620006a4565b9150620006f782620006b4565b602082019050919050565b5f6020820190508181035f8301526200071b81620006dc565b9050919050565b61165a80620007305f395ff3fe60806040526004361061009b575f3560e01c806323b872dd1161006357806323b872dd1461017f5780632f745c591461019b5780634f6ccce7146101d75780636352211e1461021357806370a082311461024f57806395d89b411461028b5761009b565b806301ffc9a71461009f57806306fdde03146100db578063095ea7b31461010557806318160ddd1461012d578063214cdb8014610157575b5f80fd5b3480156100aa575f80fd5b506100c560048036038101906100c09190610ce2565b6102b5565b6040516100d29190610d27565b60405180910390f35b3480156100e6575f80fd5b506100ef610319565b6040516100fc9190610dca565b60405180910390f35b348015610110575f80fd5b5061012b60048036038101906101269190610e77565b6103a8565b005b348015610138575f80fd5b5061014161053f565b60405161014e9190610ec4565b60405180910390f35b348015610162575f80fd5b5061017d60048036038101906101789190610ce2565b61054b565b005b61019960048036038101906101949190610edd565b61061d565b005b3480156101a6575f80fd5b506101c160048036038101906101bc9190610e77565b610676565b6040516101ce9190610ec4565b60405180910390f35b3480156101e2575f80fd5b506101fd60048036038101906101f89190610f2d565b610721565b60405161020a9190610ec4565b60405180910390f35b34801561021e575f80fd5b5061023960048036038101906102349190610f2d565b61078f565b6040516102469190610f67565b60405180910390f35b34801561025a575f80fd5b5061027560048036038101906102709190610f80565b610810565b6040516102829190610ec4565b60405180910390f35b348015610296575f80fd5b5061029f6108c4565b6040516102ac9190610dca565b60405180910390f35b5f60025f837bffffffffffffffffffffffffffffffffffffffffffffffffffffffff19167bffffffffffffffffffffffffffffffffffffffffffffffffffffffff191681526020019081526020015f205f9054906101000a900460ff169050919050565b60605f805461032790610fd8565b80601f016020809104026020016040519081016040528092919081815260200182805461035390610fd8565b801561039e5780601f106103755761010080835404028352916020019161039e565b820191905f5260205f20905b81548152906001019060200180831161038157829003601f168201915b5050505050905090565b5f6103b28261078f565b90508073ffffffffffffffffffffffffffffffffffffffff168373ffffffffffffffffffffffffffffffffffffffff1603610422576040517f08c379a000000000000000000000000000000000000000000000000000000000815260040161041990611078565b60405180910390fd5b8073ffffffffffffffffffffffffffffffffffffffff163373ffffffffffffffffffffffffffffffffffffffff1614610490576040517f08c379a000000000000000000000000000000000000000000000000000000000815260040161048790611106565b60405180910390fd5b8260055f8481526020019081526020015f205f6101000a81548173ffffffffffffffffffffffffffffffffffffffff021916908373ffffffffffffffffffffffffffffffffffffffff160217905550818373ffffffffffffffffffffffffffffffffffffffff168273ffffffffffffffffffffffffffffffffffffffff167f8c5be1e5ebec7d5bd14f71427d1e84f3dd0314c0f7b2291e5b200ac8c7c3b92560405160405180910390a4505050565b5f600680549050905090565b63ffffffff60e01b817bffffffffffffffffffffffffffffffffffffffffffffffffffffffff1916036105b3576040517f08c379a00000000000000000000000000000000000000000000000000000000081526004016105aa9061116e565b60405180910390fd5b600160025f837bffffffffffffffffffffffffffffffffffffffffffffffffffffffff19167bffffffffffffffffffffffffffffffffffffffffffffffffffffffff191681526020019081526020015f205f6101000a81548160ff02191690831515021790555050565b6106273382610954565b610666576040517f08c379a000000000000000000000000000000000000000000000000000000000815260040161065d906111d6565b60405180910390fd5b6106718383836109e1565b505050565b5f61068083610810565b82106106c1576040517f08c379a00000000000000000000000000000000000000000000000000000000081526004016106b89061123e565b60405180910390fd5b60085f8473ffffffffffffffffffffffffffffffffffffffff1673ffffffffffffffffffffffffffffffffffffffff1681526020019081526020015f2082815481106107105761070f61125c565b5b905f5260205f200154905092915050565b5f61072a61053f565b821061076b576040517f08c379a0000000000000000000000000000000000000000000000000000000008152600401610762906112d3565b60405180910390fd5b6006828154811061077f5761077e61125c565b5b905f5260205f2001549050919050565b5f61079982610c1c565b6107d8576040517f08c379a00000000000000000000000000000000000000000000000000000000081526004016107cf90611361565b60405180910390fd5b60035f8381526020019081526020015f205f9054906101000a900473ffffffffffffffffffffffffffffffffffffffff169050919050565b5f8073ffffffffffffffffffffffffffffffffffffffff168273ffffffffffffffffffffffffffffffffffffffff160361087f576040517f08c379a0000000000000000000000000000000000000000000000000000000008152600401610876906113ef565b60405180910390fd5b60045f8373ffffffffffffffffffffffffffffffffffffffff1673ffffffffffffffffffffffffffffffffffffffff1681526020019081526020015f20549050919050565b6060600180546108d390610fd8565b80601f01602080910402602001604051908101604052809291908181526020018280546108ff90610fd8565b801561094a5780601f106109215761010080835404028352916020019161094a565b820191905f5260205f20905b81548152906001019060200180831161092d57829003601f168201915b5050505050905090565b5f61095e82610c1c565b61099d576040517f08c379a000000000000000000000000000000000000000000000000000000000815260040161099490611457565b60405180910390fd5b5f6109a78361078f565b90508073ffffffffffffffffffffffffffffffffffffffff168473ffffffffffffffffffffffffffffffffffffffff161491505092915050565b5f73ffffffffffffffffffffffffffffffffffffffff168273ffffffffffffffffffffffffffffffffffffffff1603610a4f576040517f08c379a0000000000000000000000000000000000000000000000000000000008152600401610a46906114e5565b60405180910390fd5b8273ffffffffffffffffffffffffffffffffffffffff16610a6f8261078f565b73ffffffffffffffffffffffffffffffffffffffff1614610ac5576040517f08c379a0000000000000000000000000000000000000000000000000000000008152600401610abc90611573565b60405180910390fd5b600160045f8573ffffffffffffffffffffffffffffffffffffffff1673ffffffffffffffffffffffffffffffffffffffff1681526020019081526020015f205f828254610b1291906115be565b92505081905550600160045f8473ffffffffffffffffffffffffffffffffffffffff1673ffffffffffffffffffffffffffffffffffffffff1681526020019081526020015f205f828254610b6691906115f1565b925050819055508160035f8381526020019081526020015f205f6101000a81548173ffffffffffffffffffffffffffffffffffffffff021916908373ffffffffffffffffffffffffffffffffffffffff160217905550808273ffffffffffffffffffffffffffffffffffffffff168473ffffffffffffffffffffffffffffffffffffffff167fddf252ad1be2c89b69c2b068fc378daa952ba7f163c4a11628f55a4df523b3ef60405160405180910390a4505050565b5f8060035f8481526020019081526020015f205f9054906101000a900473ffffffffffffffffffffffffffffffffffffffff1690505f73ffffffffffffffffffffffffffffffffffffffff168173ffffffffffffffffffffffffffffffffffffffff161415915050919050565b5f80fd5b5f7fffffffff0000000000000000000000000000000000000000000000000000000082169050919050565b610cc181610c8d565b8114610ccb575f80fd5b50565b5f81359050610cdc81610cb8565b92915050565b5f60208284031215610cf757610cf6610c89565b5b5f610d0484828501610cce565b91505092915050565b5f8115159050919050565b610d2181610d0d565b82525050565b5f602082019050610d3a5f830184610d18565b92915050565b5f81519050919050565b5f82825260208201905092915050565b5f5b83811015610d77578082015181840152602081019050610d5c565b5f8484015250505050565b5f601f19601f8301169050919050565b5f610d9c82610d40565b610da68185610d4a565b9350610db6818560208601610d5a565b610dbf81610d82565b840191505092915050565b5f6020820190508181035f830152610de28184610d92565b905092915050565b5f73ffffffffffffffffffffffffffffffffffffffff82169050919050565b5f610e1382610dea565b9050919050565b610e2381610e09565b8114610e2d575f80fd5b50565b5f81359050610e3e81610e1a565b92915050565b5f819050919050565b610e5681610e44565b8114610e60575f80fd5b50565b5f81359050610e7181610e4d565b92915050565b5f8060408385031215610e8d57610e8c610c89565b5b5f610e9a85828601610e30565b9250506020610eab85828601610e63565b9150509250929050565b610ebe81610e44565b82525050565b5f602082019050610ed75f830184610eb5565b92915050565b5f805f60608486031215610ef457610ef3610c89565b5b5f610f0186828701610e30565b9350506020610f1286828701610e30565b9250506040610f2386828701610e63565b9150509250925092565b5f60208284031215610f4257610f41610c89565b5b5f610f4f84828501610e63565b91505092915050565b610f6181610e09565b82525050565b5f602082019050610f7a5f830184610f58565b92915050565b5f60208284031215610f9557610f94610c89565b5b5f610fa284828501610e30565b91505092915050565b7f4e487b71000000000000000000000000000000000000000000000000000000005f52602260045260245ffd5b5f6002820490506001821680610fef57607f821691505b60208210810361100257611001610fab565b5b50919050565b7f4552433732313a20617070726f76616c20746f2063757272656e74206f776e655f8201527f7200000000000000000000000000000000000000000000000000000000000000602082015250565b5f611062602183610d4a565b915061106d82611008565b604082019050919050565b5f6020820190508181035f83015261108f81611056565b9050919050565b7f4552433732313a2063757272656e742063616c6c6572206973206e6f742074685f8201527f65206f776e6572206f662074686520746f6b656e000000000000000000000000602082015250565b5f6110f0603483610d4a565b91506110fb82611096565b604082019050919050565b5f6020820190508181035f83015261111d816110e4565b9050919050565b7f4552433136353a20696e76616c696420696e74657266616365000000000000005f82015250565b5f611158601983610d4a565b915061116382611124565b602082019050919050565b5f6020820190508181035f8301526111858161114c565b9050919050565b7f4f776e6572206973206e6f7420617070726f76656400000000000000000000005f82015250565b5f6111c0601583610d4a565b91506111cb8261118c565b602082019050919050565b5f6020820190508181035f8301526111ed816111b4565b9050919050565b7f6f776e657220696e646578206f7574206f6620626f756e6473000000000000005f82015250565b5f611228601983610d4a565b9150611233826111f4565b602082019050919050565b5f6020820190508181035f8301526112558161121c565b9050919050565b7f4e487b71000000000000000000000000000000000000000000000000000000005f52603260045260245ffd5b7f676c6f62616c20696e646578206f7574206f6620626f756e64730000000000005f82015250565b5f6112bd601a83610d4a565b91506112c882611289565b602082019050919050565b5f6020820190508181035f8301526112ea816112b1565b9050919050565b7f6f776e657220717565727920666f72206e6f6e2d717565727920666f72206e6f5f8201527f6e2d6578697374656e7420746f6b656e00000000000000000000000000000000602082015250565b5f61134b603083610d4a565b9150611356826112f1565b604082019050919050565b5f6020820190508181035f8301526113788161133f565b9050919050565b7f4552433732313a206f776e657220717565727920666f72206e6f6e2d657869735f8201527f74656e7420746f6b656e00000000000000000000000000000000000000000000602082015250565b5f6113d9602a83610d4a565b91506113e48261137f565b604082019050919050565b5f6020820190508181035f830152611406816113cd565b9050919050565b7f546f6b656e20646f6573206e6f742065786973747300000000000000000000005f82015250565b5f611441601583610d4a565b915061144c8261140d565b602082019050919050565b5f6020820190508181035f83015261146e81611435565b9050919050565b7f4552433732313a205472616e7366657220746f20746865207a65726f206164645f8201527f7265737300000000000000000000000000000000000000000000000000000000602082015250565b5f6114cf602483610d4a565b91506114da82611475565b604082019050919050565b5f6020820190508181035f8301526114fc816114c3565b9050919050565b7f4552433732313a20547279696e6720746f207472616e73666572206120746f6b5f8201527f656e20746865206164647265737320646f6573206e6f74206f776e0000000000602082015250565b5f61155d603b83610d4a565b915061156882611503565b604082019050919050565b5f6020820190508181035f83015261158a81611551565b9050919050565b7f4e487b71000000000000000000000000000000000000000000000000000000005f52601160045260245ffd5b5f6115c882610e44565b91506115d383610e44565b92508282039050818111156115eb576115ea611591565b5b92915050565b5f6115fb82610e44565b915061160683610e44565b925082820190508082111561161e5761161d611591565b5b9291505056fea2646970667358221220f66cc905bded83285291a7d3d49f6229f3f8d24594537d4bdc70018ceebc3e8c64736f6c63430008170033",
  "immutableReferences": {},
  "source": "// SPDX-License-Identifier: MIT\r\npragma solidity ^0.8.0;\r\n\r\nimport \"./ERC721Enumerable.sol\";\r\nimport \"./ERC721MetaData.sol\";\r\n\r\ncontract ERC721Connector is ERC721MetaData, ERC721Enumerable {\r\n    constructor(string memory n, string memory s) ERC721MetaData(n, s) {}\r\n}\r\n",
  "sourcePath": "/home/davaux/projects/web3-projects/nft-neonz-marketplace/src/contracts/ERC721Connector.sol",
  "compiler": {
    "name": "solc",
    "version": "0.8.23+commit.f704f362.Emscripten.clang"
  },
  "schemaVersion": "3.4.16",
  "updatedAt": "2023-11-28T15:59:06.524Z",
  "devdoc": {
    "events": {
      "Approval(address,address,uint256)": {
        "details": "This emits when the approved address for an NFT is changed or  reaffirmed. The zero address indicates there is no approved address.  When a Transfer event emits, this also indicates that the approved  address for that NFT (if any) is reset to none."
      },
      "Transfer(address,address,uint256)": {
        "details": "This emits when ownership of any NFT changes by any mechanism.  This event emits when NFTs are created (`from` == 0) and destroyed  (`to` == 0). Exception: during contract creation, any number of NFTs  may be created and assigned without emitting Transfer. At the time of  any transfer, the approved address for that NFT (if any) is reset to none."
      }
    },
    "kind": "dev",
    "methods": {
      "balanceOf(address)": {
        "details": "NFTs assigned to the zero address are considered invalid, and this  function throws for queries about the zero address.",
        "params": {
          "_owner": "An address for whom to query the balance"
        },
        "returns": {
          "_0": "The number of NFTs owned by `_owner`, possibly zero"
        }
      },
      "ownerOf(uint256)": {
        "details": "NFTs assigned to zero address are considered invalid, and queries  about them do throw.",
        "params": {
          "_tokenId": "The identifier for an NFT"
        },
        "returns": {
          "_0": "The address of the owner of the NFT"
        }
      },
      "transferFrom(address,address,uint256)": {
        "details": "Throws unless `msg.sender` is the current owner, an authorized  operator, or the approved address for this NFT. Throws if `_from` is  not the current owner. Throws if `_to` is the zero address. Throws if  `_tokenId` is not a valid NFT.",
        "params": {
          "_from": "The current owner of the NFT",
          "_to": "The new owner",
          "_tokenId": "The NFT to transfer"
        }
      }
    },
    "version": 1
  },
  "userdoc": {
    "kind": "user",
    "methods": {
      "balanceOf(address)": {
        "notice": "Count all NFTs assigned to an owner"
      },
      "ownerOf(uint256)": {
        "notice": "Find the owner of an NFT"
      },
      "transferFrom(address,address,uint256)": {
        "notice": "Transfer ownership of an NFT -- THE CALLER IS RESPONSIBLE  TO CONFIRM THAT `_to` IS CAPABLE OF RECEIVING NFTS OR ELSE  THEY MAY BE PERMANENTLY LOST"
      }
    },
    "version": 1
  }
}