{
  "contractName": "ERC721",
  "abi": [
    {
      "inputs": [],
      "stateMutability": "nonpayable",
      "type": "constructor"
    },
    {
      "anonymous": false,
      "inputs": [
        {
          "indexed": true,
          "internalType": "address",
          "name": "_owner",
          "type": "address"
        },
        {
          "indexed": true,
          "internalType": "address",
          "name": "_approved",
          "type": "address"
        },
        {
          "indexed": true,
          "internalType": "uint256",
          "name": "_tokenId",
          "type": "uint256"
        }
      ],
      "name": "Approval",
      "type": "event"
    },
    {
      "anonymous": false,
      "inputs": [
        {
          "indexed": true,
          "internalType": "address",
          "name": "_from",
          "type": "address"
        },
        {
          "indexed": true,
          "internalType": "address",
          "name": "_to",
          "type": "address"
        },
        {
          "indexed": true,
          "internalType": "uint256",
          "name": "_tokenId",
          "type": "uint256"
        }
      ],
      "name": "Transfer",
      "type": "event"
    },
    {
      "inputs": [
        {
          "internalType": "bytes4",
          "name": "interfaceId",
          "type": "bytes4"
        }
      ],
      "name": "registerInterface",
      "outputs": [],
      "stateMutability": "nonpayable",
      "type": "function"
    },
    {
      "inputs": [
        {
          "internalType": "bytes4",
          "name": "interfaceId",
          "type": "bytes4"
        }
      ],
      "name": "supportsInterface",
      "outputs": [
        {
          "internalType": "bool",
          "name": "",
          "type": "bool"
        }
      ],
      "stateMutability": "view",
      "type": "function"
    },
    {
      "inputs": [
        {
          "internalType": "address",
          "name": "_owner",
          "type": "address"
        }
      ],
      "name": "balanceOf",
      "outputs": [
        {
          "internalType": "uint256",
          "name": "",
          "type": "uint256"
        }
      ],
      "stateMutability": "view",
      "type": "function"
    },
    {
      "inputs": [
        {
          "internalType": "uint256",
          "name": "_tokenId",
          "type": "uint256"
        }
      ],
      "name": "ownerOf",
      "outputs": [
        {
          "internalType": "address",
          "name": "",
          "type": "address"
        }
      ],
      "stateMutability": "view",
      "type": "function"
    },
    {
      "inputs": [
        {
          "internalType": "address",
          "name": "_from",
          "type": "address"
        },
        {
          "internalType": "address",
          "name": "_to",
          "type": "address"
        },
        {
          "internalType": "uint256",
          "name": "_tokenId",
          "type": "uint256"
        }
      ],
      "name": "transferFrom",
      "outputs": [],
      "stateMutability": "payable",
      "type": "function"
    },
    {
      "inputs": [
        {
          "internalType": "address",
          "name": "_to",
          "type": "address"
        },
        {
          "internalType": "uint256",
          "name": "_tokenId",
          "type": "uint256"
        }
      ],
      "name": "approve",
      "outputs": [],
      "stateMutability": "nonpayable",
      "type": "function"
    }
  ],
  "bytecode": "0x608060405234801562000010575f80fd5b506200003162000025620000ac60201b60201c565b620000d360201b60201c565b620000a67f22c82707ba960a14c7592ffb6b8cfaa073fed0048a84cc7fa41f6b5bd8e7f2e47f3a6eb71757dfc6e784c1459d26270140c2c147d95ca985c80026fc5301c3eca17f8a7e378434598edc36d108689a030cbc9d7d465de4f74c71bae1028eed6a881b1818620000d360201b60201c565b62000225565b5f7f01ffc9a7a5cef8baa21ed3c5c0d7e23accb804b619e9333b597f47a0d84076e2905090565b63ffffffff60e01b817bffffffffffffffffffffffffffffffffffffffffffffffffffffffff1916036200013e576040517f08c379a0000000000000000000000000000000000000000000000000000000008152600401620001359062000205565b60405180910390fd5b60015f80837bffffffffffffffffffffffffffffffffffffffffffffffffffffffff19167bffffffffffffffffffffffffffffffffffffffffffffffffffffffff191681526020019081526020015f205f6101000a81548160ff02191690831515021790555050565b5f82825260208201905092915050565b7f4552433136353a20696e76616c696420696e74657266616365000000000000005f82015250565b5f620001ed601983620001a7565b9150620001fa82620001b7565b602082019050919050565b5f6020820190508181035f8301526200021e81620001df565b9050919050565b6110e380620002335f395ff3fe608060405260043610610054575f3560e01c806301ffc9a714610058578063095ea7b314610094578063214cdb80146100bc57806323b872dd146100e45780636352211e1461010057806370a082311461013c575b5f80fd5b348015610063575f80fd5b5061007e6004803603810190610079919061095f565b610178565b60405161008b91906109a4565b60405180910390f35b34801561009f575f80fd5b506100ba60048036038101906100b59190610a4a565b6101db565b005b3480156100c7575f80fd5b506100e260048036038101906100dd919061095f565b610372565b005b6100fe60048036038101906100f99190610a88565b610443565b005b34801561010b575f80fd5b5061012660048036038101906101219190610ad8565b61049c565b6040516101339190610b12565b60405180910390f35b348015610147575f80fd5b50610162600480360381019061015d9190610b2b565b61051d565b60405161016f9190610b65565b60405180910390f35b5f805f837bffffffffffffffffffffffffffffffffffffffffffffffffffffffff19167bffffffffffffffffffffffffffffffffffffffffffffffffffffffff191681526020019081526020015f205f9054906101000a900460ff169050919050565b5f6101e58261049c565b90508073ffffffffffffffffffffffffffffffffffffffff168373ffffffffffffffffffffffffffffffffffffffff1603610255576040517f08c379a000000000000000000000000000000000000000000000000000000000815260040161024c90610bfe565b60405180910390fd5b8073ffffffffffffffffffffffffffffffffffffffff163373ffffffffffffffffffffffffffffffffffffffff16146102c3576040517f08c379a00000000000000000000000000000000000000000000000000000000081526004016102ba90610c8c565b60405180910390fd5b8260035f8481526020019081526020015f205f6101000a81548173ffffffffffffffffffffffffffffffffffffffff021916908373ffffffffffffffffffffffffffffffffffffffff160217905550818373ffffffffffffffffffffffffffffffffffffffff168273ffffffffffffffffffffffffffffffffffffffff167f8c5be1e5ebec7d5bd14f71427d1e84f3dd0314c0f7b2291e5b200ac8c7c3b92560405160405180910390a4505050565b63ffffffff60e01b817bffffffffffffffffffffffffffffffffffffffffffffffffffffffff1916036103da576040517f08c379a00000000000000000000000000000000000000000000000000000000081526004016103d190610cf4565b60405180910390fd5b60015f80837bffffffffffffffffffffffffffffffffffffffffffffffffffffffff19167bffffffffffffffffffffffffffffffffffffffffffffffffffffffff191681526020019081526020015f205f6101000a81548160ff02191690831515021790555050565b61044d33826105d1565b61048c576040517f08c379a000000000000000000000000000000000000000000000000000000000815260040161048390610d5c565b60405180910390fd5b61049783838361065e565b505050565b5f6104a682610899565b6104e5576040517f08c379a00000000000000000000000000000000000000000000000000000000081526004016104dc90610dea565b60405180910390fd5b60015f8381526020019081526020015f205f9054906101000a900473ffffffffffffffffffffffffffffffffffffffff169050919050565b5f8073ffffffffffffffffffffffffffffffffffffffff168273ffffffffffffffffffffffffffffffffffffffff160361058c576040517f08c379a000000000000000000000000000000000000000000000000000000000815260040161058390610e78565b60405180910390fd5b60025f8373ffffffffffffffffffffffffffffffffffffffff1673ffffffffffffffffffffffffffffffffffffffff1681526020019081526020015f20549050919050565b5f6105db82610899565b61061a576040517f08c379a000000000000000000000000000000000000000000000000000000000815260040161061190610ee0565b60405180910390fd5b5f6106248361049c565b90508073ffffffffffffffffffffffffffffffffffffffff168473ffffffffffffffffffffffffffffffffffffffff161491505092915050565b5f73ffffffffffffffffffffffffffffffffffffffff168273ffffffffffffffffffffffffffffffffffffffff16036106cc576040517f08c379a00000000000000000000000000000000000000000000000000000000081526004016106c390610f6e565b60405180910390fd5b8273ffffffffffffffffffffffffffffffffffffffff166106ec8261049c565b73ffffffffffffffffffffffffffffffffffffffff1614610742576040517f08c379a000000000000000000000000000000000000000000000000000000000815260040161073990610ffc565b60405180910390fd5b600160025f8573ffffffffffffffffffffffffffffffffffffffff1673ffffffffffffffffffffffffffffffffffffffff1681526020019081526020015f205f82825461078f9190611047565b92505081905550600160025f8473ffffffffffffffffffffffffffffffffffffffff1673ffffffffffffffffffffffffffffffffffffffff1681526020019081526020015f205f8282546107e3919061107a565b925050819055508160015f8381526020019081526020015f205f6101000a81548173ffffffffffffffffffffffffffffffffffffffff021916908373ffffffffffffffffffffffffffffffffffffffff160217905550808273ffffffffffffffffffffffffffffffffffffffff168473ffffffffffffffffffffffffffffffffffffffff167fddf252ad1be2c89b69c2b068fc378daa952ba7f163c4a11628f55a4df523b3ef60405160405180910390a4505050565b5f8060015f8481526020019081526020015f205f9054906101000a900473ffffffffffffffffffffffffffffffffffffffff1690505f73ffffffffffffffffffffffffffffffffffffffff168173ffffffffffffffffffffffffffffffffffffffff161415915050919050565b5f80fd5b5f7fffffffff0000000000000000000000000000000000000000000000000000000082169050919050565b61093e8161090a565b8114610948575f80fd5b50565b5f8135905061095981610935565b92915050565b5f6020828403121561097457610973610906565b5b5f6109818482850161094b565b91505092915050565b5f8115159050919050565b61099e8161098a565b82525050565b5f6020820190506109b75f830184610995565b92915050565b5f73ffffffffffffffffffffffffffffffffffffffff82169050919050565b5f6109e6826109bd565b9050919050565b6109f6816109dc565b8114610a00575f80fd5b50565b5f81359050610a11816109ed565b92915050565b5f819050919050565b610a2981610a17565b8114610a33575f80fd5b50565b5f81359050610a4481610a20565b92915050565b5f8060408385031215610a6057610a5f610906565b5b5f610a6d85828601610a03565b9250506020610a7e85828601610a36565b9150509250929050565b5f805f60608486031215610a9f57610a9e610906565b5b5f610aac86828701610a03565b9350506020610abd86828701610a03565b9250506040610ace86828701610a36565b9150509250925092565b5f60208284031215610aed57610aec610906565b5b5f610afa84828501610a36565b91505092915050565b610b0c816109dc565b82525050565b5f602082019050610b255f830184610b03565b92915050565b5f60208284031215610b4057610b3f610906565b5b5f610b4d84828501610a03565b91505092915050565b610b5f81610a17565b82525050565b5f602082019050610b785f830184610b56565b92915050565b5f82825260208201905092915050565b7f4552433732313a20617070726f76616c20746f2063757272656e74206f776e655f8201527f7200000000000000000000000000000000000000000000000000000000000000602082015250565b5f610be8602183610b7e565b9150610bf382610b8e565b604082019050919050565b5f6020820190508181035f830152610c1581610bdc565b9050919050565b7f4552433732313a2063757272656e742063616c6c6572206973206e6f742074685f8201527f65206f776e6572206f662074686520746f6b656e000000000000000000000000602082015250565b5f610c76603483610b7e565b9150610c8182610c1c565b604082019050919050565b5f6020820190508181035f830152610ca381610c6a565b9050919050565b7f4552433136353a20696e76616c696420696e74657266616365000000000000005f82015250565b5f610cde601983610b7e565b9150610ce982610caa565b602082019050919050565b5f6020820190508181035f830152610d0b81610cd2565b9050919050565b7f4f776e6572206973206e6f7420617070726f76656400000000000000000000005f82015250565b5f610d46601583610b7e565b9150610d5182610d12565b602082019050919050565b5f6020820190508181035f830152610d7381610d3a565b9050919050565b7f6f776e657220717565727920666f72206e6f6e2d717565727920666f72206e6f5f8201527f6e2d6578697374656e7420746f6b656e00000000000000000000000000000000602082015250565b5f610dd4603083610b7e565b9150610ddf82610d7a565b604082019050919050565b5f6020820190508181035f830152610e0181610dc8565b9050919050565b7f4552433732313a206f776e657220717565727920666f72206e6f6e2d657869735f8201527f74656e7420746f6b656e00000000000000000000000000000000000000000000602082015250565b5f610e62602a83610b7e565b9150610e6d82610e08565b604082019050919050565b5f6020820190508181035f830152610e8f81610e56565b9050919050565b7f546f6b656e20646f6573206e6f742065786973747300000000000000000000005f82015250565b5f610eca601583610b7e565b9150610ed582610e96565b602082019050919050565b5f6020820190508181035f830152610ef781610ebe565b9050919050565b7f4552433732313a205472616e7366657220746f20746865207a65726f206164645f8201527f7265737300000000000000000000000000000000000000000000000000000000602082015250565b5f610f58602483610b7e565b9150610f6382610efe565b604082019050919050565b5f6020820190508181035f830152610f8581610f4c565b9050919050565b7f4552433732313a20547279696e6720746f207472616e73666572206120746f6b5f8201527f656e20746865206164647265737320646f6573206e6f74206f776e0000000000602082015250565b5f610fe6603b83610b7e565b9150610ff182610f8c565b604082019050919050565b5f6020820190508181035f83015261101381610fda565b9050919050565b7f4e487b71000000000000000000000000000000000000000000000000000000005f52601160045260245ffd5b5f61105182610a17565b915061105c83610a17565b92508282039050818111156110745761107361101a565b5b92915050565b5f61108482610a17565b915061108f83610a17565b92508282019050808211156110a7576110a661101a565b5b9291505056fea2646970667358221220fc2e8a5dc473d9ee658544879bb3f29ded422dc869cef8711b283b35f11dd8c564736f6c63430008170033",
  "immutableReferences": {},
  "source": "// SPDX-License-Identifier: MIT\npragma solidity ^0.8.0;\n\nimport \"./ERC165.sol\";\nimport \"../interfaces/IERC721.sol\";\n\ncontract ERC721 is ERC165, IERC721 {\n    mapping(uint256 => address) private _tokensOwner;\n\n    mapping(address => uint256) private _tokensOwnedCount;\n\n    mapping(uint256 => address) private _tokenApprovals;\n\n    constructor() {\n        registerInterface(\n            bytes4(\n                keccak256(\"balanceOf(bytes4)\") ^\n                    keccak256(\"ownerOf(bytes4)\") ^\n                    keccak256(\"transferFrom(bytes4)\")\n            )\n        );\n    }\n\n    function _exists(uint256 tokenId) internal view returns (bool) {\n        address _owner = _tokensOwner[tokenId];\n        return _owner != address(0);\n    }\n\n    function _mint(address to, uint256 tokenId) internal virtual {\n        require(\n            to != address(0),\n            \"ERC721: minting to the zero address not possible\"\n        );\n        require(!_exists(tokenId), \"ERC721: token already minted\");\n        _tokensOwner[tokenId] = to;\n        _tokensOwnedCount[to] += 1;\n\n        emit Transfer(address(0), to, tokenId);\n    }\n\n    function _transferFrom(\n        address _from,\n        address _to,\n        uint256 _tokenId\n    ) internal {\n        require(_to != address(0), \"ERC721: Transfer to the zero address\");\n        require(\n            ownerOf(_tokenId) == _from,\n            \"ERC721: Trying to transfer a token the address does not own\"\n        );\n        _tokensOwnedCount[_from] -= 1;\n        _tokensOwnedCount[_to] += 1;\n        _tokensOwner[_tokenId] = _to;\n\n        emit Transfer(address(_from), _to, _tokenId);\n    }\n\n    function balanceOf(address _owner) public view returns (uint256) {\n        require(\n            _owner != address(0),\n            \"ERC721: owner query for non-existent token\"\n        );\n        return _tokensOwnedCount[_owner];\n    }\n\n    function ownerOf(uint256 _tokenId) public view returns (address) {\n        require(\n            _exists(_tokenId),\n            \"owner query for non-query for non-existent token\"\n        );\n        return _tokensOwner[_tokenId];\n    }\n\n    function transferFrom(\n        address _from,\n        address _to,\n        uint256 _tokenId\n    ) external payable {\n        require(\n            _isApprovedOrOwner(msg.sender, _tokenId),\n            \"Owner is not approved\"\n        );\n        _transferFrom(_from, _to, _tokenId);\n    }\n\n    function approve(address _to, uint256 _tokenId) external {\n        address _owner = ownerOf(_tokenId);\n        require(_to != _owner, \"ERC721: approval to current owner\");\n        require(\n            msg.sender == _owner,\n            \"ERC721: current caller is not the owner of the token\"\n        );\n        _tokenApprovals[_tokenId] = _to;\n\n        emit Approval(_owner, _to, _tokenId);\n    }\n\n    function _isApprovedOrOwner(\n        address _spender,\n        uint256 _tokenId\n    ) internal view returns (bool) {\n        require(_exists(_tokenId), \"Token does not exists\");\n        address _owner = ownerOf(_tokenId);\n        return (_spender == _owner);\n    }\n}\n",
  "sourcePath": "/home/david/projects/web3/nft-neonz-marketplace/src/contracts/ERC721.sol",
  "compiler": {
    "name": "solc",
    "version": "0.8.23+commit.f704f362.Emscripten.clang"
  },
  "schemaVersion": "3.4.16",
  "updatedAt": "2023-11-29T13:47:49.679Z",
  "devdoc": {
    "events": {
      "Approval(address,address,uint256)": {
        "details": "This emits when the approved address for an NFT is changed or  reaffirmed. The zero address indicates there is no approved address.  When a Transfer event emits, this also indicates that the approved  address for that NFT (if any) is reset to none."
      },
      "Transfer(address,address,uint256)": {
        "details": "This emits when ownership of any NFT changes by any mechanism.  This event emits when NFTs are created (`from` == 0) and destroyed  (`to` == 0). Exception: during contract creation, any number of NFTs  may be created and assigned without emitting Transfer. At the time of  any transfer, the approved address for that NFT (if any) is reset to none."
      }
    },
    "kind": "dev",
    "methods": {
      "balanceOf(address)": {
        "details": "NFTs assigned to the zero address are considered invalid, and this  function throws for queries about the zero address.",
        "params": {
          "_owner": "An address for whom to query the balance"
        },
        "returns": {
          "_0": "The number of NFTs owned by `_owner`, possibly zero"
        }
      },
      "ownerOf(uint256)": {
        "details": "NFTs assigned to zero address are considered invalid, and queries  about them do throw.",
        "params": {
          "_tokenId": "The identifier for an NFT"
        },
        "returns": {
          "_0": "The address of the owner of the NFT"
        }
      },
      "transferFrom(address,address,uint256)": {
        "details": "Throws unless `msg.sender` is the current owner, an authorized  operator, or the approved address for this NFT. Throws if `_from` is  not the current owner. Throws if `_to` is the zero address. Throws if  `_tokenId` is not a valid NFT.",
        "params": {
          "_from": "The current owner of the NFT",
          "_to": "The new owner",
          "_tokenId": "The NFT to transfer"
        }
      }
    },
    "version": 1
  },
  "userdoc": {
    "kind": "user",
    "methods": {
      "balanceOf(address)": {
        "notice": "Count all NFTs assigned to an owner"
      },
      "ownerOf(uint256)": {
        "notice": "Find the owner of an NFT"
      },
      "transferFrom(address,address,uint256)": {
        "notice": "Transfer ownership of an NFT -- THE CALLER IS RESPONSIBLE  TO CONFIRM THAT `_to` IS CAPABLE OF RECEIVING NFTS OR ELSE  THEY MAY BE PERMANENTLY LOST"
      }
    },
    "version": 1
  }
}