{
  "contractName": "ERC721Enumerable",
  "abi": [
    {
      "anonymous": false,
      "inputs": [
        {
          "indexed": true,
          "internalType": "address",
          "name": "from",
          "type": "address"
        },
        {
          "indexed": true,
          "internalType": "address",
          "name": "to",
          "type": "address"
        },
        {
          "indexed": true,
          "internalType": "uint256",
          "name": "tokenId",
          "type": "uint256"
        }
      ],
      "name": "Transfer",
      "type": "event"
    },
    {
      "inputs": [
        {
          "internalType": "address",
          "name": "_owner",
          "type": "address"
        }
      ],
      "name": "balanceOf",
      "outputs": [
        {
          "internalType": "uint256",
          "name": "",
          "type": "uint256"
        }
      ],
      "stateMutability": "view",
      "type": "function"
    },
    {
      "inputs": [
        {
          "internalType": "uint256",
          "name": "_tokenId",
          "type": "uint256"
        }
      ],
      "name": "ownerOf",
      "outputs": [
        {
          "internalType": "address",
          "name": "",
          "type": "address"
        }
      ],
      "stateMutability": "view",
      "type": "function"
    },
    {
      "inputs": [
        {
          "internalType": "address",
          "name": "_from",
          "type": "address"
        },
        {
          "internalType": "address",
          "name": "_to",
          "type": "address"
        },
        {
          "internalType": "uint256",
          "name": "_tokenId",
          "type": "uint256"
        }
      ],
      "name": "transferFrom",
      "outputs": [],
      "stateMutability": "payable",
      "type": "function"
    },
    {
      "inputs": [],
      "name": "totalSupply",
      "outputs": [
        {
          "internalType": "uint256",
          "name": "",
          "type": "uint256"
        }
      ],
      "stateMutability": "view",
      "type": "function"
    },
    {
      "inputs": [
        {
          "internalType": "uint256",
          "name": "_index",
          "type": "uint256"
        }
      ],
      "name": "tokenByIndex",
      "outputs": [
        {
          "internalType": "uint256",
          "name": "",
          "type": "uint256"
        }
      ],
      "stateMutability": "view",
      "type": "function"
    },
    {
      "inputs": [
        {
          "internalType": "address",
          "name": "_owner",
          "type": "address"
        },
        {
          "internalType": "uint256",
          "name": "_index",
          "type": "uint256"
        }
      ],
      "name": "tokenOfOwnerByIndex",
      "outputs": [
        {
          "internalType": "uint256",
          "name": "",
          "type": "uint256"
        }
      ],
      "stateMutability": "view",
      "type": "function"
    }
  ],
  "bytecode": "0x608060405234801561000f575f80fd5b50610c6e8061001d5f395ff3fe608060405260043610610054575f3560e01c806318160ddd1461005857806323b872dd146100825780632f745c591461009e5780634f6ccce7146100da5780636352211e1461011657806370a0823114610152575b5f80fd5b348015610063575f80fd5b5061006c61018e565b60405161007991906106b3565b60405180910390f35b61009c60048036038101906100979190610754565b61019a565b005b3480156100a9575f80fd5b506100c460048036038101906100bf91906107a4565b6101aa565b6040516100d191906106b3565b60405180910390f35b3480156100e5575f80fd5b5061010060048036038101906100fb91906107e2565b610255565b60405161010d91906106b3565b60405180910390f35b348015610121575f80fd5b5061013c600480360381019061013791906107e2565b6102c3565b604051610149919061081c565b60405180910390f35b34801561015d575f80fd5b5061017860048036038101906101739190610835565b610343565b60405161018591906106b3565b60405180910390f35b5f600380549050905090565b6101a58383836103f7565b505050565b5f6101b483610343565b82106101f5576040517f08c379a00000000000000000000000000000000000000000000000000000000081526004016101ec906108ba565b60405180910390fd5b60055f8473ffffffffffffffffffffffffffffffffffffffff1673ffffffffffffffffffffffffffffffffffffffff1681526020019081526020015f208281548110610244576102436108d8565b5b905f5260205f200154905092915050565b5f61025e61018e565b821061029f576040517f08c379a00000000000000000000000000000000000000000000000000000000081526004016102969061094f565b60405180910390fd5b600382815481106102b3576102b26108d8565b5b905f5260205f2001549050919050565b5f6102cd8261062f565b61030c576040517f08c379a0000000000000000000000000000000000000000000000000000000008152600401610303906109dd565b60405180910390fd5b5f808381526020019081526020015f205f9054906101000a900473ffffffffffffffffffffffffffffffffffffffff169050919050565b5f8073ffffffffffffffffffffffffffffffffffffffff168273ffffffffffffffffffffffffffffffffffffffff16036103b2576040517f08c379a00000000000000000000000000000000000000000000000000000000081526004016103a990610a6b565b60405180910390fd5b60015f8373ffffffffffffffffffffffffffffffffffffffff1673ffffffffffffffffffffffffffffffffffffffff1681526020019081526020015f20549050919050565b5f73ffffffffffffffffffffffffffffffffffffffff168273ffffffffffffffffffffffffffffffffffffffff1603610465576040517f08c379a000000000000000000000000000000000000000000000000000000000815260040161045c90610af9565b60405180910390fd5b8273ffffffffffffffffffffffffffffffffffffffff16610485826102c3565b73ffffffffffffffffffffffffffffffffffffffff16146104db576040517f08c379a00000000000000000000000000000000000000000000000000000000081526004016104d290610b87565b60405180910390fd5b6001805f8573ffffffffffffffffffffffffffffffffffffffff1673ffffffffffffffffffffffffffffffffffffffff1681526020019081526020015f205f8282546105279190610bd2565b925050819055506001805f8473ffffffffffffffffffffffffffffffffffffffff1673ffffffffffffffffffffffffffffffffffffffff1681526020019081526020015f205f82825461057a9190610c05565b92505081905550815f808381526020019081526020015f205f6101000a81548173ffffffffffffffffffffffffffffffffffffffff021916908373ffffffffffffffffffffffffffffffffffffffff160217905550808273ffffffffffffffffffffffffffffffffffffffff168473ffffffffffffffffffffffffffffffffffffffff167fddf252ad1be2c89b69c2b068fc378daa952ba7f163c4a11628f55a4df523b3ef60405160405180910390a4505050565b5f805f808481526020019081526020015f205f9054906101000a900473ffffffffffffffffffffffffffffffffffffffff1690505f73ffffffffffffffffffffffffffffffffffffffff168173ffffffffffffffffffffffffffffffffffffffff161415915050919050565b5f819050919050565b6106ad8161069b565b82525050565b5f6020820190506106c65f8301846106a4565b92915050565b5f80fd5b5f73ffffffffffffffffffffffffffffffffffffffff82169050919050565b5f6106f9826106d0565b9050919050565b610709816106ef565b8114610713575f80fd5b50565b5f8135905061072481610700565b92915050565b6107338161069b565b811461073d575f80fd5b50565b5f8135905061074e8161072a565b92915050565b5f805f6060848603121561076b5761076a6106cc565b5b5f61077886828701610716565b935050602061078986828701610716565b925050604061079a86828701610740565b9150509250925092565b5f80604083850312156107ba576107b96106cc565b5b5f6107c785828601610716565b92505060206107d885828601610740565b9150509250929050565b5f602082840312156107f7576107f66106cc565b5b5f61080484828501610740565b91505092915050565b610816816106ef565b82525050565b5f60208201905061082f5f83018461080d565b92915050565b5f6020828403121561084a576108496106cc565b5b5f61085784828501610716565b91505092915050565b5f82825260208201905092915050565b7f6f776e657220696e646578206f7574206f6620626f756e6473000000000000005f82015250565b5f6108a4601983610860565b91506108af82610870565b602082019050919050565b5f6020820190508181035f8301526108d181610898565b9050919050565b7f4e487b71000000000000000000000000000000000000000000000000000000005f52603260045260245ffd5b7f676c6f62616c20696e646578206f7574206f6620626f756e64730000000000005f82015250565b5f610939601a83610860565b915061094482610905565b602082019050919050565b5f6020820190508181035f8301526109668161092d565b9050919050565b7f6f776e657220717565727920666f72206e6f6e2d717565727920666f72206e6f5f8201527f6e2d6578697374656e7420746f6b656e00000000000000000000000000000000602082015250565b5f6109c7603083610860565b91506109d28261096d565b604082019050919050565b5f6020820190508181035f8301526109f4816109bb565b9050919050565b7f4552433732313a206f776e657220717565727920666f72206e6f6e2d657869735f8201527f74656e7420746f6b656e00000000000000000000000000000000000000000000602082015250565b5f610a55602a83610860565b9150610a60826109fb565b604082019050919050565b5f6020820190508181035f830152610a8281610a49565b9050919050565b7f4552433732313a205472616e7366657220746f20746865207a65726f206164645f8201527f7265737300000000000000000000000000000000000000000000000000000000602082015250565b5f610ae3602483610860565b9150610aee82610a89565b604082019050919050565b5f6020820190508181035f830152610b1081610ad7565b9050919050565b7f4552433732313a20547279696e6720746f207472616e73666572206120746f6b5f8201527f656e20746865206164647265737320646f6573206e6f74206f776e0000000000602082015250565b5f610b71603b83610860565b9150610b7c82610b17565b604082019050919050565b5f6020820190508181035f830152610b9e81610b65565b9050919050565b7f4e487b71000000000000000000000000000000000000000000000000000000005f52601160045260245ffd5b5f610bdc8261069b565b9150610be78361069b565b9250828203905081811115610bff57610bfe610ba5565b5b92915050565b5f610c0f8261069b565b9150610c1a8361069b565b9250828201905080821115610c3257610c31610ba5565b5b9291505056fea26469706673582212205244fc5367f35de90b5dddd86882650593393d7c23e4a199a97f1c8055097ae464736f6c63430008170033",
  "immutableReferences": {},
  "source": "// SPDX-License-Identifier: MIT\npragma solidity ^0.8.0;\n\nimport \"./ERC721.sol\";\n\ncontract ERC721Enumerable is ERC721 {\n    uint256[] private _allTokens;\n\n    mapping(uint256 => uint256) private _allTokensIndex;\n\n    mapping(address => uint256[]) private _ownedTokens;\n\n    mapping(uint256 => uint256) private _ownedTokensIndex;\n\n    function totalSupply() public view returns (uint256) {\n        return _allTokens.length;\n    }\n\n    function tokenByIndex(uint256 _index) external view returns (uint256) {\n        require(_index < totalSupply(), \"global index out of bounds\");\n        return _allTokens[_index];\n    }\n\n    function tokenOfOwnerByIndex(\n        address _owner,\n        uint256 _index\n    ) external view returns (uint256) {\n        require(_index < balanceOf(_owner), \"owner index out of bounds\");\n        return _ownedTokens[_owner][_index];\n    }\n\n    function _mint(address _to, uint256 _tokenId) internal override(ERC721) {\n        super._mint(_to, _tokenId);\n        _addTokensToAllTokenEnumeration(_tokenId);\n        _addTokensToOwnerEnumeration(_to, _tokenId);\n    }\n\n    function _addTokensToAllTokenEnumeration(uint256 _tokenId) private {\n        _allTokensIndex[_tokenId] = _allTokens.length;\n        _allTokens.push(_tokenId);\n    }\n\n    function _addTokensToOwnerEnumeration(\n        address _to,\n        uint256 _tokenId\n    ) private {\n        _ownedTokensIndex[_tokenId] = _ownedTokens[_to].length;\n        _ownedTokens[_to].push(_tokenId);\n    }\n}\n",
  "sourcePath": "/home/david/projects/web3/nft-neonz-marketplace/src/contracts/ERC721Enumerable.sol",
  "compiler": {
    "name": "solc",
    "version": "0.8.23+commit.f704f362.Emscripten.clang"
  },
  "schemaVersion": "3.4.16",
  "updatedAt": "2023-11-27T13:34:41.892Z",
  "devdoc": {
    "kind": "dev",
    "methods": {},
    "version": 1
  },
  "userdoc": {
    "kind": "user",
    "methods": {},
    "version": 1
  }
}