{
  "contractName": "KryptoNeonz",
  "abi": [
    {
      "inputs": [],
      "stateMutability": "nonpayable",
      "type": "constructor"
    },
    {
      "anonymous": false,
      "inputs": [
        {
          "indexed": true,
          "internalType": "address",
          "name": "from",
          "type": "address"
        },
        {
          "indexed": true,
          "internalType": "address",
          "name": "to",
          "type": "address"
        },
        {
          "indexed": true,
          "internalType": "uint256",
          "name": "tokenId",
          "type": "uint256"
        }
      ],
      "name": "Transfer",
      "type": "event"
    },
    {
      "inputs": [
        {
          "internalType": "address",
          "name": "_owner",
          "type": "address"
        }
      ],
      "name": "balanceOf",
      "outputs": [
        {
          "internalType": "uint256",
          "name": "",
          "type": "uint256"
        }
      ],
      "stateMutability": "view",
      "type": "function",
      "constant": true
    },
    {
      "inputs": [],
      "name": "name",
      "outputs": [
        {
          "internalType": "string",
          "name": "",
          "type": "string"
        }
      ],
      "stateMutability": "view",
      "type": "function",
      "constant": true
    },
    {
      "inputs": [
        {
          "internalType": "uint256",
          "name": "",
          "type": "uint256"
        }
      ],
      "name": "neonz",
      "outputs": [
        {
          "internalType": "string",
          "name": "",
          "type": "string"
        }
      ],
      "stateMutability": "view",
      "type": "function",
      "constant": true
    },
    {
      "inputs": [
        {
          "internalType": "uint256",
          "name": "_tokenId",
          "type": "uint256"
        }
      ],
      "name": "ownerOf",
      "outputs": [
        {
          "internalType": "address",
          "name": "",
          "type": "address"
        }
      ],
      "stateMutability": "view",
      "type": "function",
      "constant": true
    },
    {
      "inputs": [],
      "name": "symbol",
      "outputs": [
        {
          "internalType": "string",
          "name": "",
          "type": "string"
        }
      ],
      "stateMutability": "view",
      "type": "function",
      "constant": true
    },
    {
      "inputs": [
        {
          "internalType": "uint256",
          "name": "_index",
          "type": "uint256"
        }
      ],
      "name": "tokenByIndex",
      "outputs": [
        {
          "internalType": "uint256",
          "name": "",
          "type": "uint256"
        }
      ],
      "stateMutability": "view",
      "type": "function",
      "constant": true
    },
    {
      "inputs": [
        {
          "internalType": "address",
          "name": "_owner",
          "type": "address"
        },
        {
          "internalType": "uint256",
          "name": "_index",
          "type": "uint256"
        }
      ],
      "name": "tokenOfOwnerByIndex",
      "outputs": [
        {
          "internalType": "uint256",
          "name": "",
          "type": "uint256"
        }
      ],
      "stateMutability": "view",
      "type": "function",
      "constant": true
    },
    {
      "inputs": [],
      "name": "totalSupply",
      "outputs": [
        {
          "internalType": "uint256",
          "name": "",
          "type": "uint256"
        }
      ],
      "stateMutability": "view",
      "type": "function",
      "constant": true
    },
    {
      "inputs": [
        {
          "internalType": "address",
          "name": "_from",
          "type": "address"
        },
        {
          "internalType": "address",
          "name": "_to",
          "type": "address"
        },
        {
          "internalType": "uint256",
          "name": "_tokenId",
          "type": "uint256"
        }
      ],
      "name": "transferFrom",
      "outputs": [],
      "stateMutability": "payable",
      "type": "function",
      "payable": true
    },
    {
      "inputs": [
        {
          "internalType": "string",
          "name": "_neonz",
          "type": "string"
        }
      ],
      "name": "mint",
      "outputs": [],
      "stateMutability": "nonpayable",
      "type": "function"
    }
  ],
  "bytecode": "0x608060405234801562000010575f80fd5b506040518060400160405280600b81526020017f4b727970746f4e656f6e7a0000000000000000000000000000000000000000008152506040518060400160405280600681526020017f4b4e454f4e5a00000000000000000000000000000000000000000000000000008152508181815f90816200008f919062000310565b508060019081620000a1919062000310565b5050505050620003f4565b5f81519050919050565b7f4e487b71000000000000000000000000000000000000000000000000000000005f52604160045260245ffd5b7f4e487b71000000000000000000000000000000000000000000000000000000005f52602260045260245ffd5b5f60028204905060018216806200012857607f821691505b6020821081036200013e576200013d620000e3565b5b50919050565b5f819050815f5260205f209050919050565b5f6020601f8301049050919050565b5f82821b905092915050565b5f60088302620001a27fffffffffffffffffffffffffffffffffffffffffffffffffffffffffffffffff8262000165565b620001ae868362000165565b95508019841693508086168417925050509392505050565b5f819050919050565b5f819050919050565b5f620001f8620001f2620001ec84620001c6565b620001cf565b620001c6565b9050919050565b5f819050919050565b6200021383620001d8565b6200022b6200022282620001ff565b84845462000171565b825550505050565b5f90565b6200024162000233565b6200024e81848462000208565b505050565b5b818110156200027557620002695f8262000237565b60018101905062000254565b5050565b601f821115620002c4576200028e8162000144565b620002998462000156565b81016020851015620002a9578190505b620002c1620002b88562000156565b83018262000253565b50505b505050565b5f82821c905092915050565b5f620002e65f1984600802620002c9565b1980831691505092915050565b5f620003008383620002d5565b9150826002028217905092915050565b6200031b82620000ac565b67ffffffffffffffff811115620003375762000336620000b6565b5b62000343825462000110565b6200035082828562000279565b5f60209050601f83116001811462000386575f841562000371578287015190505b6200037d8582620002f3565b865550620003ec565b601f198416620003968662000144565b5f5b82811015620003bf5784890151825560018201915060208501945060208101905062000398565b86831015620003df5784890151620003db601f891682620002d5565b8355505b6001600288020188555050505b505050505050565b6119b280620004025f395ff3fe608060405260043610610090575f3560e01c8063590f9e4e11610058578063590f9e4e1461017c5780636352211e146101b857806370a08231146101f457806395d89b4114610230578063d85d3d271461025a57610090565b806306fdde031461009457806318160ddd146100be57806323b872dd146100e85780632f745c59146101045780634f6ccce714610140575b5f80fd5b34801561009f575f80fd5b506100a8610282565b6040516100b59190610db2565b60405180910390f35b3480156100c9575f80fd5b506100d2610311565b6040516100df9190610dea565b60405180910390f35b61010260048036038101906100fd9190610e98565b61031d565b005b34801561010f575f80fd5b5061012a60048036038101906101259190610ee8565b61032d565b6040516101379190610dea565b60405180910390f35b34801561014b575f80fd5b5061016660048036038101906101619190610f26565b6103d8565b6040516101739190610dea565b60405180910390f35b348015610187575f80fd5b506101a2600480360381019061019d9190610f26565b610446565b6040516101af9190610db2565b60405180910390f35b3480156101c3575f80fd5b506101de60048036038101906101d99190610f26565b6104ec565b6040516101eb9190610f60565b60405180910390f35b3480156101ff575f80fd5b5061021a60048036038101906102159190610f79565b61056d565b6040516102279190610dea565b60405180910390f35b34801561023b575f80fd5b50610244610621565b6040516102519190610db2565b60405180910390f35b348015610265575f80fd5b50610280600480360381019061027b91906110d0565b6106b1565b005b60605f805461029090611144565b80601f01602080910402602001604051908101604052809291908181526020018280546102bc90611144565b80156103075780601f106102de57610100808354040283529160200191610307565b820191905f5260205f20905b8154815290600101906020018083116102ea57829003601f168201915b5050505050905090565b5f600580549050905090565b6103288383836107a7565b505050565b5f6103378361056d565b8210610378576040517f08c379a000000000000000000000000000000000000000000000000000000000815260040161036f906111be565b60405180910390fd5b60075f8473ffffffffffffffffffffffffffffffffffffffff1673ffffffffffffffffffffffffffffffffffffffff1681526020019081526020015f2082815481106103c7576103c66111dc565b5b905f5260205f200154905092915050565b5f6103e1610311565b8210610422576040517f08c379a000000000000000000000000000000000000000000000000000000000815260040161041990611253565b60405180910390fd5b60058281548110610436576104356111dc565b5b905f5260205f2001549050919050565b60098181548110610455575f80fd5b905f5260205f20015f91509050805461046d90611144565b80601f016020809104026020016040519081016040528092919081815260200182805461049990611144565b80156104e45780601f106104bb576101008083540402835291602001916104e4565b820191905f5260205f20905b8154815290600101906020018083116104c757829003601f168201915b505050505081565b5f6104f6826109e2565b610535576040517f08c379a000000000000000000000000000000000000000000000000000000000815260040161052c906112e1565b60405180910390fd5b60025f8381526020019081526020015f205f9054906101000a900473ffffffffffffffffffffffffffffffffffffffff169050919050565b5f8073ffffffffffffffffffffffffffffffffffffffff168273ffffffffffffffffffffffffffffffffffffffff16036105dc576040517f08c379a00000000000000000000000000000000000000000000000000000000081526004016105d39061136f565b60405180910390fd5b60035f8373ffffffffffffffffffffffffffffffffffffffff1673ffffffffffffffffffffffffffffffffffffffff1681526020019081526020015f20549050919050565b60606001805461063090611144565b80601f016020809104026020016040519081016040528092919081815260200182805461065c90611144565b80156106a75780601f1061067e576101008083540402835291602001916106a7565b820191905f5260205f20905b81548152906001019060200180831161068a57829003601f168201915b5050505050905090565b600a816040516106c191906113c7565b90815260200160405180910390205f9054906101000a900460ff161561071c576040517f08c379a00000000000000000000000000000000000000000000000000000000081526004016107139061144d565b60405180910390fd5b600981908060018154018082558091505060019003905f5260205f20015f90919091909150908161074d9190611608565b505f60016009805490506107619190611704565b905061076d3382610a4f565b6001600a8360405161077f91906113c7565b90815260200160405180910390205f6101000a81548160ff0219169083151502179055505050565b5f73ffffffffffffffffffffffffffffffffffffffff168273ffffffffffffffffffffffffffffffffffffffff1603610815576040517f08c379a000000000000000000000000000000000000000000000000000000000815260040161080c906117a7565b60405180910390fd5b8273ffffffffffffffffffffffffffffffffffffffff16610835826104ec565b73ffffffffffffffffffffffffffffffffffffffff161461088b576040517f08c379a000000000000000000000000000000000000000000000000000000000815260040161088290611835565b60405180910390fd5b600160035f8573ffffffffffffffffffffffffffffffffffffffff1673ffffffffffffffffffffffffffffffffffffffff1681526020019081526020015f205f8282546108d89190611704565b92505081905550600160035f8473ffffffffffffffffffffffffffffffffffffffff1673ffffffffffffffffffffffffffffffffffffffff1681526020019081526020015f205f82825461092c9190611853565b925050819055508160025f8381526020019081526020015f205f6101000a81548173ffffffffffffffffffffffffffffffffffffffff021916908373ffffffffffffffffffffffffffffffffffffffff160217905550808273ffffffffffffffffffffffffffffffffffffffff168473ffffffffffffffffffffffffffffffffffffffff167fddf252ad1be2c89b69c2b068fc378daa952ba7f163c4a11628f55a4df523b3ef60405160405180910390a4505050565b5f8060025f8481526020019081526020015f205f9054906101000a900473ffffffffffffffffffffffffffffffffffffffff1690505f73ffffffffffffffffffffffffffffffffffffffff168173ffffffffffffffffffffffffffffffffffffffff161415915050919050565b610a598282610a70565b610a6281610c29565b610a6c8282610c6d565b5050565b5f73ffffffffffffffffffffffffffffffffffffffff168273ffffffffffffffffffffffffffffffffffffffff1603610ade576040517f08c379a0000000000000000000000000000000000000000000000000000000008152600401610ad5906118f6565b60405180910390fd5b610ae7816109e2565b15610b27576040517f08c379a0000000000000000000000000000000000000000000000000000000008152600401610b1e9061195e565b60405180910390fd5b8160025f8381526020019081526020015f205f6101000a81548173ffffffffffffffffffffffffffffffffffffffff021916908373ffffffffffffffffffffffffffffffffffffffff160217905550600160035f8473ffffffffffffffffffffffffffffffffffffffff1673ffffffffffffffffffffffffffffffffffffffff1681526020019081526020015f205f828254610bc39190611853565b92505081905550808273ffffffffffffffffffffffffffffffffffffffff165f73ffffffffffffffffffffffffffffffffffffffff167fddf252ad1be2c89b69c2b068fc378daa952ba7f163c4a11628f55a4df523b3ef60405160405180910390a45050565b60058054905060065f8381526020019081526020015f2081905550600581908060018154018082558091505060019003905f5260205f20015f909190919091505550565b60075f8373ffffffffffffffffffffffffffffffffffffffff1673ffffffffffffffffffffffffffffffffffffffff1681526020019081526020015f208054905060085f8381526020019081526020015f208190555060075f8373ffffffffffffffffffffffffffffffffffffffff1673ffffffffffffffffffffffffffffffffffffffff1681526020019081526020015f2081908060018154018082558091505060019003905f5260205f20015f90919091909150555050565b5f81519050919050565b5f82825260208201905092915050565b5f5b83811015610d5f578082015181840152602081019050610d44565b5f8484015250505050565b5f601f19601f8301169050919050565b5f610d8482610d28565b610d8e8185610d32565b9350610d9e818560208601610d42565b610da781610d6a565b840191505092915050565b5f6020820190508181035f830152610dca8184610d7a565b905092915050565b5f819050919050565b610de481610dd2565b82525050565b5f602082019050610dfd5f830184610ddb565b92915050565b5f604051905090565b5f80fd5b5f80fd5b5f73ffffffffffffffffffffffffffffffffffffffff82169050919050565b5f610e3d82610e14565b9050919050565b610e4d81610e33565b8114610e57575f80fd5b50565b5f81359050610e6881610e44565b92915050565b610e7781610dd2565b8114610e81575f80fd5b50565b5f81359050610e9281610e6e565b92915050565b5f805f60608486031215610eaf57610eae610e0c565b5b5f610ebc86828701610e5a565b9350506020610ecd86828701610e5a565b9250506040610ede86828701610e84565b9150509250925092565b5f8060408385031215610efe57610efd610e0c565b5b5f610f0b85828601610e5a565b9250506020610f1c85828601610e84565b9150509250929050565b5f60208284031215610f3b57610f3a610e0c565b5b5f610f4884828501610e84565b91505092915050565b610f5a81610e33565b82525050565b5f602082019050610f735f830184610f51565b92915050565b5f60208284031215610f8e57610f8d610e0c565b5b5f610f9b84828501610e5a565b91505092915050565b5f80fd5b5f80fd5b7f4e487b71000000000000000000000000000000000000000000000000000000005f52604160045260245ffd5b610fe282610d6a565b810181811067ffffffffffffffff8211171561100157611000610fac565b5b80604052505050565b5f611013610e03565b905061101f8282610fd9565b919050565b5f67ffffffffffffffff82111561103e5761103d610fac565b5b61104782610d6a565b9050602081019050919050565b828183375f83830152505050565b5f61107461106f84611024565b61100a565b9050828152602081018484840111156110905761108f610fa8565b5b61109b848285611054565b509392505050565b5f82601f8301126110b7576110b6610fa4565b5b81356110c7848260208601611062565b91505092915050565b5f602082840312156110e5576110e4610e0c565b5b5f82013567ffffffffffffffff81111561110257611101610e10565b5b61110e848285016110a3565b91505092915050565b7f4e487b71000000000000000000000000000000000000000000000000000000005f52602260045260245ffd5b5f600282049050600182168061115b57607f821691505b60208210810361116e5761116d611117565b5b50919050565b7f6f776e657220696e646578206f7574206f6620626f756e6473000000000000005f82015250565b5f6111a8601983610d32565b91506111b382611174565b602082019050919050565b5f6020820190508181035f8301526111d58161119c565b9050919050565b7f4e487b71000000000000000000000000000000000000000000000000000000005f52603260045260245ffd5b7f676c6f62616c20696e646578206f7574206f6620626f756e64730000000000005f82015250565b5f61123d601a83610d32565b915061124882611209565b602082019050919050565b5f6020820190508181035f83015261126a81611231565b9050919050565b7f6f776e657220717565727920666f72206e6f6e2d717565727920666f72206e6f5f8201527f6e2d6578697374656e7420746f6b656e00000000000000000000000000000000602082015250565b5f6112cb603083610d32565b91506112d682611271565b604082019050919050565b5f6020820190508181035f8301526112f8816112bf565b9050919050565b7f4552433732313a206f776e657220717565727920666f72206e6f6e2d657869735f8201527f74656e7420746f6b656e00000000000000000000000000000000000000000000602082015250565b5f611359602a83610d32565b9150611364826112ff565b604082019050919050565b5f6020820190508181035f8301526113868161134d565b9050919050565b5f81905092915050565b5f6113a182610d28565b6113ab818561138d565b93506113bb818560208601610d42565b80840191505092915050565b5f6113d28284611397565b915081905092915050565b7f4572726f72202d204b727970746f4e656f6e20616c72656164792065786973745f8201527f7300000000000000000000000000000000000000000000000000000000000000602082015250565b5f611437602183610d32565b9150611442826113dd565b604082019050919050565b5f6020820190508181035f8301526114648161142b565b9050919050565b5f819050815f5260205f209050919050565b5f6020601f8301049050919050565b5f82821b905092915050565b5f600883026114c77fffffffffffffffffffffffffffffffffffffffffffffffffffffffffffffffff8261148c565b6114d1868361148c565b95508019841693508086168417925050509392505050565b5f819050919050565b5f61150c61150761150284610dd2565b6114e9565b610dd2565b9050919050565b5f819050919050565b611525836114f2565b61153961153182611513565b848454611498565b825550505050565b5f90565b61154d611541565b61155881848461151c565b505050565b5b8181101561157b576115705f82611545565b60018101905061155e565b5050565b601f8211156115c0576115918161146b565b61159a8461147d565b810160208510156115a9578190505b6115bd6115b58561147d565b83018261155d565b50505b505050565b5f82821c905092915050565b5f6115e05f19846008026115c5565b1980831691505092915050565b5f6115f883836115d1565b9150826002028217905092915050565b61161182610d28565b67ffffffffffffffff81111561162a57611629610fac565b5b6116348254611144565b61163f82828561157f565b5f60209050601f831160018114611670575f841561165e578287015190505b61166885826115ed565b8655506116cf565b601f19841661167e8661146b565b5f5b828110156116a557848901518255600182019150602085019450602081019050611680565b868310156116c257848901516116be601f8916826115d1565b8355505b6001600288020188555050505b505050505050565b7f4e487b71000000000000000000000000000000000000000000000000000000005f52601160045260245ffd5b5f61170e82610dd2565b915061171983610dd2565b9250828203905081811115611731576117306116d7565b5b92915050565b7f4552433732313a205472616e7366657220746f20746865207a65726f206164645f8201527f7265737300000000000000000000000000000000000000000000000000000000602082015250565b5f611791602483610d32565b915061179c82611737565b604082019050919050565b5f6020820190508181035f8301526117be81611785565b9050919050565b7f4552433732313a20547279696e6720746f207472616e73666572206120746f6b5f8201527f656e20746865206164647265737320646f6573206e6f74206f776e0000000000602082015250565b5f61181f603b83610d32565b915061182a826117c5565b604082019050919050565b5f6020820190508181035f83015261184c81611813565b9050919050565b5f61185d82610dd2565b915061186883610dd2565b92508282019050808211156118805761187f6116d7565b5b92915050565b7f4552433732313a206d696e74696e6720746f20746865207a65726f20616464725f8201527f657373206e6f7420706f737369626c6500000000000000000000000000000000602082015250565b5f6118e0603083610d32565b91506118eb82611886565b604082019050919050565b5f6020820190508181035f83015261190d816118d4565b9050919050565b7f4552433732313a20746f6b656e20616c7265616479206d696e746564000000005f82015250565b5f611948601c83610d32565b915061195382611914565b602082019050919050565b5f6020820190508181035f8301526119758161193c565b905091905056fea264697066735822122028ce265ebf2bc94357d08001f23616cb07a8cf0b01a39b360091049ced57b1aa64736f6c63430008170033",
  "immutableReferences": {},
  "source": "// SPDX-License-Identifier: MIT\npragma solidity ^0.8.0;\n\nimport \"./ERC721Connector.sol\";\n\ncontract KryptoNeonz is ERC721Connector {\n    string[] public neonz;\n\n    mapping(string => bool) neonzExists;\n\n    constructor() ERC721Connector(\"KryptoNeonz\", \"KNEONZ\") {}\n\n    function mint(string memory _neonz) public {\n        require(!neonzExists[_neonz], \"Error - KryptoNeon already exists\");\n        neonz.push(_neonz);\n\n        uint _id = neonz.length - 1;\n\n        _mint(msg.sender, _id);\n\n        neonzExists[_neonz] = true;\n    }\n}\n",
  "sourcePath": "/home/david/projects/web3/nft-neonz-marketplace/src/contracts/KryptoNeonz.sol",
  "compiler": {
    "name": "solc",
    "version": "0.8.23+commit.f704f362.Emscripten.clang"
  },
  "schemaVersion": "3.4.16",
  "updatedAt": "2023-11-27T13:34:55.257Z",
  "networkType": "ethereum",
  "devdoc": {
    "kind": "dev",
    "methods": {},
    "version": 1
  },
  "userdoc": {
    "kind": "user",
    "methods": {},
    "version": 1
  }
}