{
  "contractName": "KryptoNeonz",
  "abi": [
    {
      "inputs": [],
      "stateMutability": "nonpayable",
      "type": "constructor"
    },
    {
      "anonymous": false,
      "inputs": [
        {
          "indexed": true,
          "internalType": "address",
          "name": "from",
          "type": "address"
        },
        {
          "indexed": true,
          "internalType": "address",
          "name": "to",
          "type": "address"
        },
        {
          "indexed": true,
          "internalType": "uint256",
          "name": "tokenId",
          "type": "uint256"
        }
      ],
      "name": "Transfer",
      "type": "event"
    },
    {
      "inputs": [
        {
          "internalType": "address",
          "name": "_owner",
          "type": "address"
        }
      ],
      "name": "balanceOf",
      "outputs": [
        {
          "internalType": "uint256",
          "name": "",
          "type": "uint256"
        }
      ],
      "stateMutability": "view",
      "type": "function",
      "constant": true
    },
    {
      "inputs": [],
      "name": "name",
      "outputs": [
        {
          "internalType": "string",
          "name": "",
          "type": "string"
        }
      ],
      "stateMutability": "view",
      "type": "function",
      "constant": true
    },
    {
      "inputs": [
        {
          "internalType": "uint256",
          "name": "",
          "type": "uint256"
        }
      ],
      "name": "neonz",
      "outputs": [
        {
          "internalType": "string",
          "name": "",
          "type": "string"
        }
      ],
      "stateMutability": "view",
      "type": "function",
      "constant": true
    },
    {
      "inputs": [
        {
          "internalType": "uint256",
          "name": "_tokenId",
          "type": "uint256"
        }
      ],
      "name": "ownerOf",
      "outputs": [
        {
          "internalType": "address",
          "name": "",
          "type": "address"
        }
      ],
      "stateMutability": "view",
      "type": "function",
      "constant": true
    },
    {
      "inputs": [],
      "name": "symbol",
      "outputs": [
        {
          "internalType": "string",
          "name": "",
          "type": "string"
        }
      ],
      "stateMutability": "view",
      "type": "function",
      "constant": true
    },
    {
      "inputs": [
        {
          "internalType": "uint256",
          "name": "_index",
          "type": "uint256"
        }
      ],
      "name": "tokenByIndex",
      "outputs": [
        {
          "internalType": "uint256",
          "name": "",
          "type": "uint256"
        }
      ],
      "stateMutability": "view",
      "type": "function",
      "constant": true
    },
    {
      "inputs": [
        {
          "internalType": "address",
          "name": "_owner",
          "type": "address"
        },
        {
          "internalType": "uint256",
          "name": "_index",
          "type": "uint256"
        }
      ],
      "name": "tokenOfOwnerByIndex",
      "outputs": [
        {
          "internalType": "uint256",
          "name": "",
          "type": "uint256"
        }
      ],
      "stateMutability": "view",
      "type": "function",
      "constant": true
    },
    {
      "inputs": [],
      "name": "totalSupply",
      "outputs": [
        {
          "internalType": "uint256",
          "name": "",
          "type": "uint256"
        }
      ],
      "stateMutability": "view",
      "type": "function",
      "constant": true
    },
    {
      "inputs": [
        {
          "internalType": "string",
          "name": "_neonz",
          "type": "string"
        }
      ],
      "name": "mint",
      "outputs": [],
      "stateMutability": "nonpayable",
      "type": "function"
    }
  ],
  "bytecode": "0x608060405234801562000010575f80fd5b506040518060400160405280600b81526020017f4b727970746f4e656f6e7a0000000000000000000000000000000000000000008152506040518060400160405280600681526020017f4b4e454f4e5a00000000000000000000000000000000000000000000000000008152508181815f90816200008f919062000310565b508060019081620000a1919062000310565b5050505050620003f4565b5f81519050919050565b7f4e487b71000000000000000000000000000000000000000000000000000000005f52604160045260245ffd5b7f4e487b71000000000000000000000000000000000000000000000000000000005f52602260045260245ffd5b5f60028204905060018216806200012857607f821691505b6020821081036200013e576200013d620000e3565b5b50919050565b5f819050815f5260205f209050919050565b5f6020601f8301049050919050565b5f82821b905092915050565b5f60088302620001a27fffffffffffffffffffffffffffffffffffffffffffffffffffffffffffffffff8262000165565b620001ae868362000165565b95508019841693508086168417925050509392505050565b5f819050919050565b5f819050919050565b5f620001f8620001f2620001ec84620001c6565b620001cf565b620001c6565b9050919050565b5f819050919050565b6200021383620001d8565b6200022b6200022282620001ff565b84845462000171565b825550505050565b5f90565b6200024162000233565b6200024e81848462000208565b505050565b5b818110156200027557620002695f8262000237565b60018101905062000254565b5050565b601f821115620002c4576200028e8162000144565b620002998462000156565b81016020851015620002a9578190505b620002c1620002b88562000156565b83018262000253565b50505b505050565b5f82821c905092915050565b5f620002e65f1984600802620002c9565b1980831691505092915050565b5f620003008383620002d5565b9150826002028217905092915050565b6200031b82620000ac565b67ffffffffffffffff811115620003375762000336620000b6565b5b62000343825462000110565b6200035082828562000279565b5f60209050601f83116001811462000386575f841562000371578287015190505b6200037d8582620002f3565b865550620003ec565b601f198416620003968662000144565b5f5b82811015620003bf5784890151825560018201915060208501945060208101905062000398565b86831015620003df5784890151620003db601f891682620002d5565b8355505b6001600288020188555050505b505050505050565b61128b80620004025f395ff3fe608060405234801561000f575f80fd5b5060043610610091575f3560e01c8063590f9e4e11610064578063590f9e4e146101315780636352211e1461016157806370a082311461019157806395d89b41146101c1578063d85d3d27146101df57610091565b806306fdde031461009557806318160ddd146100b35780632f745c59146100d15780634f6ccce714610101575b5f80fd5b61009d6101fb565b6040516100aa91906108f4565b60405180910390f35b6100bb61028a565b6040516100c8919061092c565b60405180910390f35b6100eb60048036038101906100e691906109da565b610296565b6040516100f8919061092c565b60405180910390f35b61011b60048036038101906101169190610a18565b61029d565b604051610128919061092c565b60405180910390f35b61014b60048036038101906101469190610a18565b6102a3565b60405161015891906108f4565b60405180910390f35b61017b60048036038101906101769190610a18565b610349565b6040516101889190610a52565b60405180910390f35b6101ab60048036038101906101a69190610a6b565b6103ca565b6040516101b8919061092c565b60405180910390f35b6101c961047e565b6040516101d691906108f4565b60405180910390f35b6101f960048036038101906101f49190610bc2565b61050e565b005b60605f805461020990610c36565b80601f016020809104026020016040519081016040528092919081815260200182805461023590610c36565b80156102805780601f1061025757610100808354040283529160200191610280565b820191905f5260205f20905b81548152906001019060200180831161026357829003601f168201915b5050505050905090565b5f600480549050905090565b5f92915050565b5f919050565b600881815481106102b2575f80fd5b905f5260205f20015f9150905080546102ca90610c36565b80601f01602080910402602001604051908101604052809291908181526020018280546102f690610c36565b80156103415780601f1061031857610100808354040283529160200191610341565b820191905f5260205f20905b81548152906001019060200180831161032457829003601f168201915b505050505081565b5f61035382610604565b610392576040517f08c379a000000000000000000000000000000000000000000000000000000000815260040161038990610cd6565b60405180910390fd5b60025f8381526020019081526020015f205f9054906101000a900473ffffffffffffffffffffffffffffffffffffffff169050919050565b5f8073ffffffffffffffffffffffffffffffffffffffff168273ffffffffffffffffffffffffffffffffffffffff1603610439576040517f08c379a000000000000000000000000000000000000000000000000000000000815260040161043090610d64565b60405180910390fd5b60035f8373ffffffffffffffffffffffffffffffffffffffff1673ffffffffffffffffffffffffffffffffffffffff1681526020019081526020015f20549050919050565b60606001805461048d90610c36565b80601f01602080910402602001604051908101604052809291908181526020018280546104b990610c36565b80156105045780601f106104db57610100808354040283529160200191610504565b820191905f5260205f20905b8154815290600101906020018083116104e757829003601f168201915b5050505050905090565b60098160405161051e9190610dbc565b90815260200160405180910390205f9054906101000a900460ff1615610579576040517f08c379a000000000000000000000000000000000000000000000000000000000815260040161057090610e42565b60405180910390fd5b600881908060018154018082558091505060019003905f5260205f20015f9091909190915090816105aa9190610ffd565b505f60016008805490506105be91906110f9565b90506105ca3382610671565b60016009836040516105dc9190610dbc565b90815260200160405180910390205f6101000a81548160ff0219169083151502179055505050565b5f8060025f8481526020019081526020015f205f9054906101000a900473ffffffffffffffffffffffffffffffffffffffff1690505f73ffffffffffffffffffffffffffffffffffffffff168173ffffffffffffffffffffffffffffffffffffffff161415915050919050565b61067b8282610688565b61068481610841565b5050565b5f73ffffffffffffffffffffffffffffffffffffffff168273ffffffffffffffffffffffffffffffffffffffff16036106f6576040517f08c379a00000000000000000000000000000000000000000000000000000000081526004016106ed9061119c565b60405180910390fd5b6106ff81610604565b1561073f576040517f08c379a000000000000000000000000000000000000000000000000000000000815260040161073690611204565b60405180910390fd5b8160025f8381526020019081526020015f205f6101000a81548173ffffffffffffffffffffffffffffffffffffffff021916908373ffffffffffffffffffffffffffffffffffffffff160217905550600160035f8473ffffffffffffffffffffffffffffffffffffffff1673ffffffffffffffffffffffffffffffffffffffff1681526020019081526020015f205f8282546107db9190611222565b92505081905550808273ffffffffffffffffffffffffffffffffffffffff165f73ffffffffffffffffffffffffffffffffffffffff167fddf252ad1be2c89b69c2b068fc378daa952ba7f163c4a11628f55a4df523b3ef60405160405180910390a45050565b600481908060018154018082558091505060019003905f5260205f20015f909190919091505550565b5f81519050919050565b5f82825260208201905092915050565b5f5b838110156108a1578082015181840152602081019050610886565b5f8484015250505050565b5f601f19601f8301169050919050565b5f6108c68261086a565b6108d08185610874565b93506108e0818560208601610884565b6108e9816108ac565b840191505092915050565b5f6020820190508181035f83015261090c81846108bc565b905092915050565b5f819050919050565b61092681610914565b82525050565b5f60208201905061093f5f83018461091d565b92915050565b5f604051905090565b5f80fd5b5f80fd5b5f73ffffffffffffffffffffffffffffffffffffffff82169050919050565b5f61097f82610956565b9050919050565b61098f81610975565b8114610999575f80fd5b50565b5f813590506109aa81610986565b92915050565b6109b981610914565b81146109c3575f80fd5b50565b5f813590506109d4816109b0565b92915050565b5f80604083850312156109f0576109ef61094e565b5b5f6109fd8582860161099c565b9250506020610a0e858286016109c6565b9150509250929050565b5f60208284031215610a2d57610a2c61094e565b5b5f610a3a848285016109c6565b91505092915050565b610a4c81610975565b82525050565b5f602082019050610a655f830184610a43565b92915050565b5f60208284031215610a8057610a7f61094e565b5b5f610a8d8482850161099c565b91505092915050565b5f80fd5b5f80fd5b7f4e487b71000000000000000000000000000000000000000000000000000000005f52604160045260245ffd5b610ad4826108ac565b810181811067ffffffffffffffff82111715610af357610af2610a9e565b5b80604052505050565b5f610b05610945565b9050610b118282610acb565b919050565b5f67ffffffffffffffff821115610b3057610b2f610a9e565b5b610b39826108ac565b9050602081019050919050565b828183375f83830152505050565b5f610b66610b6184610b16565b610afc565b905082815260208101848484011115610b8257610b81610a9a565b5b610b8d848285610b46565b509392505050565b5f82601f830112610ba957610ba8610a96565b5b8135610bb9848260208601610b54565b91505092915050565b5f60208284031215610bd757610bd661094e565b5b5f82013567ffffffffffffffff811115610bf457610bf3610952565b5b610c0084828501610b95565b91505092915050565b7f4e487b71000000000000000000000000000000000000000000000000000000005f52602260045260245ffd5b5f6002820490506001821680610c4d57607f821691505b602082108103610c6057610c5f610c09565b5b50919050565b7f6f776e657220717565727920666f72206e6f6e2d717565727920666f72206e6f5f8201527f6e2d6578697374656e7420746f6b656e00000000000000000000000000000000602082015250565b5f610cc0603083610874565b9150610ccb82610c66565b604082019050919050565b5f6020820190508181035f830152610ced81610cb4565b9050919050565b7f4552433732313a206f776e657220717565727920666f72206e6f6e2d657869735f8201527f74656e7420746f6b656e00000000000000000000000000000000000000000000602082015250565b5f610d4e602a83610874565b9150610d5982610cf4565b604082019050919050565b5f6020820190508181035f830152610d7b81610d42565b9050919050565b5f81905092915050565b5f610d968261086a565b610da08185610d82565b9350610db0818560208601610884565b80840191505092915050565b5f610dc78284610d8c565b915081905092915050565b7f4572726f72202d204b727970746f4e656f6e20616c72656164792065786973745f8201527f7300000000000000000000000000000000000000000000000000000000000000602082015250565b5f610e2c602183610874565b9150610e3782610dd2565b604082019050919050565b5f6020820190508181035f830152610e5981610e20565b9050919050565b5f819050815f5260205f209050919050565b5f6020601f8301049050919050565b5f82821b905092915050565b5f60088302610ebc7fffffffffffffffffffffffffffffffffffffffffffffffffffffffffffffffff82610e81565b610ec68683610e81565b95508019841693508086168417925050509392505050565b5f819050919050565b5f610f01610efc610ef784610914565b610ede565b610914565b9050919050565b5f819050919050565b610f1a83610ee7565b610f2e610f2682610f08565b848454610e8d565b825550505050565b5f90565b610f42610f36565b610f4d818484610f11565b505050565b5b81811015610f7057610f655f82610f3a565b600181019050610f53565b5050565b601f821115610fb557610f8681610e60565b610f8f84610e72565b81016020851015610f9e578190505b610fb2610faa85610e72565b830182610f52565b50505b505050565b5f82821c905092915050565b5f610fd55f1984600802610fba565b1980831691505092915050565b5f610fed8383610fc6565b9150826002028217905092915050565b6110068261086a565b67ffffffffffffffff81111561101f5761101e610a9e565b5b6110298254610c36565b611034828285610f74565b5f60209050601f831160018114611065575f8415611053578287015190505b61105d8582610fe2565b8655506110c4565b601f19841661107386610e60565b5f5b8281101561109a57848901518255600182019150602085019450602081019050611075565b868310156110b757848901516110b3601f891682610fc6565b8355505b6001600288020188555050505b505050505050565b7f4e487b71000000000000000000000000000000000000000000000000000000005f52601160045260245ffd5b5f61110382610914565b915061110e83610914565b9250828203905081811115611126576111256110cc565b5b92915050565b7f4552433732313a206d696e74696e6720746f20746865207a65726f20616464725f8201527f657373206e6f7420706f737369626c6500000000000000000000000000000000602082015250565b5f611186603083610874565b91506111918261112c565b604082019050919050565b5f6020820190508181035f8301526111b38161117a565b9050919050565b7f4552433732313a20746f6b656e20616c7265616479206d696e746564000000005f82015250565b5f6111ee601c83610874565b91506111f9826111ba565b602082019050919050565b5f6020820190508181035f83015261121b816111e2565b9050919050565b5f61122c82610914565b915061123783610914565b925082820190508082111561124f5761124e6110cc565b5b9291505056fea264697066735822122087835339cf33c999c5be69a3b97d477d3b90033e63a312eaf7c4e8ab7bb6d51e64736f6c63430008170033",
  "immutableReferences": {},
  "source": "// SPDX-License-Identifier: MIT\npragma solidity ^0.8.0;\n\nimport \"./ERC721Connector.sol\";\n\ncontract KryptoNeonz is ERC721Connector {\n    string[] public neonz;\n\n    mapping(string => bool) neonzExists;\n\n    constructor() ERC721Connector(\"KryptoNeonz\", \"KNEONZ\") {}\n\n    function mint(string memory _neonz) public {\n        require(!neonzExists[_neonz], \"Error - KryptoNeon already exists\");\n        neonz.push(_neonz);\n\n        uint _id = neonz.length - 1;\n\n        _mint(msg.sender, _id);\n\n        neonzExists[_neonz] = true;\n    }\n}\n",
  "sourcePath": "/home/david/projects/web3/nft-neonz-marketplace/src/contracts/KryptoNeonz.sol",
  "compiler": {
    "name": "solc",
    "version": "0.8.23+commit.f704f362.Emscripten.clang"
  },
  "schemaVersion": "3.4.16",
  "updatedAt": "2023-11-24T16:16:54.085Z",
  "networkType": "ethereum",
  "devdoc": {
    "kind": "dev",
    "methods": {},
    "version": 1
  },
  "userdoc": {
    "kind": "user",
    "methods": {},
    "version": 1
  }
}