{
  "contractName": "KryptoNeonz",
  "abi": [
    {
      "inputs": [],
      "stateMutability": "nonpayable",
      "type": "constructor"
    },
    {
      "anonymous": false,
      "inputs": [
        {
          "indexed": true,
          "internalType": "address",
          "name": "_owner",
          "type": "address"
        },
        {
          "indexed": true,
          "internalType": "address",
          "name": "_approved",
          "type": "address"
        },
        {
          "indexed": true,
          "internalType": "uint256",
          "name": "_tokenId",
          "type": "uint256"
        }
      ],
      "name": "Approval",
      "type": "event"
    },
    {
      "anonymous": false,
      "inputs": [
        {
          "indexed": true,
          "internalType": "address",
          "name": "_from",
          "type": "address"
        },
        {
          "indexed": true,
          "internalType": "address",
          "name": "_to",
          "type": "address"
        },
        {
          "indexed": true,
          "internalType": "uint256",
          "name": "_tokenId",
          "type": "uint256"
        }
      ],
      "name": "Transfer",
      "type": "event"
    },
    {
      "inputs": [
        {
          "internalType": "address",
          "name": "_to",
          "type": "address"
        },
        {
          "internalType": "uint256",
          "name": "_tokenId",
          "type": "uint256"
        }
      ],
      "name": "approve",
      "outputs": [],
      "stateMutability": "nonpayable",
      "type": "function"
    },
    {
      "inputs": [
        {
          "internalType": "address",
          "name": "_owner",
          "type": "address"
        }
      ],
      "name": "balanceOf",
      "outputs": [
        {
          "internalType": "uint256",
          "name": "",
          "type": "uint256"
        }
      ],
      "stateMutability": "view",
      "type": "function"
    },
    {
      "inputs": [],
      "name": "name",
      "outputs": [
        {
          "internalType": "string",
          "name": "",
          "type": "string"
        }
      ],
      "stateMutability": "view",
      "type": "function"
    },
    {
      "inputs": [
        {
          "internalType": "uint256",
          "name": "",
          "type": "uint256"
        }
      ],
      "name": "neonz",
      "outputs": [
        {
          "internalType": "string",
          "name": "",
          "type": "string"
        }
      ],
      "stateMutability": "view",
      "type": "function"
    },
    {
      "inputs": [
        {
          "internalType": "uint256",
          "name": "_tokenId",
          "type": "uint256"
        }
      ],
      "name": "ownerOf",
      "outputs": [
        {
          "internalType": "address",
          "name": "",
          "type": "address"
        }
      ],
      "stateMutability": "view",
      "type": "function"
    },
    {
      "inputs": [
        {
          "internalType": "bytes4",
          "name": "interfaceId",
          "type": "bytes4"
        }
      ],
      "name": "registerInterface",
      "outputs": [],
      "stateMutability": "nonpayable",
      "type": "function"
    },
    {
      "inputs": [
        {
          "internalType": "bytes4",
          "name": "interfaceId",
          "type": "bytes4"
        }
      ],
      "name": "supportsInterface",
      "outputs": [
        {
          "internalType": "bool",
          "name": "",
          "type": "bool"
        }
      ],
      "stateMutability": "view",
      "type": "function"
    },
    {
      "inputs": [],
      "name": "symbol",
      "outputs": [
        {
          "internalType": "string",
          "name": "",
          "type": "string"
        }
      ],
      "stateMutability": "view",
      "type": "function"
    },
    {
      "inputs": [
        {
          "internalType": "uint256",
          "name": "_index",
          "type": "uint256"
        }
      ],
      "name": "tokenByIndex",
      "outputs": [
        {
          "internalType": "uint256",
          "name": "",
          "type": "uint256"
        }
      ],
      "stateMutability": "view",
      "type": "function"
    },
    {
      "inputs": [
        {
          "internalType": "address",
          "name": "_owner",
          "type": "address"
        },
        {
          "internalType": "uint256",
          "name": "_index",
          "type": "uint256"
        }
      ],
      "name": "tokenOfOwnerByIndex",
      "outputs": [
        {
          "internalType": "uint256",
          "name": "",
          "type": "uint256"
        }
      ],
      "stateMutability": "view",
      "type": "function"
    },
    {
      "inputs": [],
      "name": "totalSupply",
      "outputs": [
        {
          "internalType": "uint256",
          "name": "",
          "type": "uint256"
        }
      ],
      "stateMutability": "view",
      "type": "function"
    },
    {
      "inputs": [
        {
          "internalType": "address",
          "name": "_from",
          "type": "address"
        },
        {
          "internalType": "address",
          "name": "_to",
          "type": "address"
        },
        {
          "internalType": "uint256",
          "name": "_tokenId",
          "type": "uint256"
        }
      ],
      "name": "transferFrom",
      "outputs": [],
      "stateMutability": "payable",
      "type": "function"
    },
    {
      "inputs": [
        {
          "internalType": "string",
          "name": "_neonz",
          "type": "string"
        }
      ],
      "name": "mint",
      "outputs": [],
      "stateMutability": "nonpayable",
      "type": "function"
    }
  ],
  "bytecode": "0x608060405234801562000010575f80fd5b506040518060400160405280600b81526020017f4b727970746f4e656f6e7a0000000000000000000000000000000000000000008152506040518060400160405280600681526020017f4b4e454f4e5a00000000000000000000000000000000000000000000000000008152508181815f90816200008f91906200042c565b508060019081620000a191906200042c565b505050620000c4620000b8620000cc60201b60201c565b620000f360201b60201c565b50506200058e565b5f7f01ffc9a7a5cef8baa21ed3c5c0d7e23accb804b619e9333b597f47a0d84076e2905090565b63ffffffff60e01b817bffffffffffffffffffffffffffffffffffffffffffffffffffffffff1916036200015e576040517f08c379a000000000000000000000000000000000000000000000000000000000815260040162000155906200056e565b60405180910390fd5b600160025f837bffffffffffffffffffffffffffffffffffffffffffffffffffffffff19167bffffffffffffffffffffffffffffffffffffffffffffffffffffffff191681526020019081526020015f205f6101000a81548160ff02191690831515021790555050565b5f81519050919050565b7f4e487b71000000000000000000000000000000000000000000000000000000005f52604160045260245ffd5b7f4e487b71000000000000000000000000000000000000000000000000000000005f52602260045260245ffd5b5f60028204905060018216806200024457607f821691505b6020821081036200025a5762000259620001ff565b5b50919050565b5f819050815f5260205f209050919050565b5f6020601f8301049050919050565b5f82821b905092915050565b5f60088302620002be7fffffffffffffffffffffffffffffffffffffffffffffffffffffffffffffffff8262000281565b620002ca868362000281565b95508019841693508086168417925050509392505050565b5f819050919050565b5f819050919050565b5f620003146200030e6200030884620002e2565b620002eb565b620002e2565b9050919050565b5f819050919050565b6200032f83620002f4565b620003476200033e826200031b565b8484546200028d565b825550505050565b5f90565b6200035d6200034f565b6200036a81848462000324565b505050565b5b818110156200039157620003855f8262000353565b60018101905062000370565b5050565b601f821115620003e057620003aa8162000260565b620003b58462000272565b81016020851015620003c5578190505b620003dd620003d48562000272565b8301826200036f565b50505b505050565b5f82821c905092915050565b5f620004025f1984600802620003e5565b1980831691505092915050565b5f6200041c8383620003f1565b9150826002028217905092915050565b6200043782620001c8565b67ffffffffffffffff811115620004535762000452620001d2565b5b6200045f82546200022c565b6200046c82828562000395565b5f60209050601f831160018114620004a2575f84156200048d578287015190505b6200049985826200040f565b86555062000508565b601f198416620004b28662000260565b5f5b82811015620004db57848901518255600182019150602085019450602081019050620004b4565b86831015620004fb5784890151620004f7601f891682620003f1565b8355505b6001600288020188555050505b505050505050565b5f82825260208201905092915050565b7f4552433136353a20696e76616c696420696e74657266616365000000000000005f82015250565b5f6200055660198362000510565b9150620005638262000520565b602082019050919050565b5f6020820190508181035f830152620005878162000548565b9050919050565b612119806200059c5f395ff3fe6080604052600436106100c1575f3560e01c80632f745c591161007e5780636352211e116100585780636352211e1461027557806370a08231146102b157806395d89b41146102ed578063d85d3d2714610317576100c1565b80632f745c59146101c15780634f6ccce7146101fd578063590f9e4e14610239576100c1565b806301ffc9a7146100c557806306fdde0314610101578063095ea7b31461012b57806318160ddd14610153578063214cdb801461017d57806323b872dd146101a5575b5f80fd5b3480156100d0575f80fd5b506100eb60048036038101906100e691906111ee565b61033f565b6040516100f89190611233565b60405180910390f35b34801561010c575f80fd5b506101156103a3565b60405161012291906112d6565b60405180910390f35b348015610136575f80fd5b50610151600480360381019061014c9190611383565b610432565b005b34801561015e575f80fd5b506101676105c9565b60405161017491906113d0565b60405180910390f35b348015610188575f80fd5b506101a3600480360381019061019e91906111ee565b6105d5565b005b6101bf60048036038101906101ba91906113e9565b6106a7565b005b3480156101cc575f80fd5b506101e760048036038101906101e29190611383565b610700565b6040516101f491906113d0565b60405180910390f35b348015610208575f80fd5b50610223600480360381019061021e9190611439565b6107ab565b60405161023091906113d0565b60405180910390f35b348015610244575f80fd5b5061025f600480360381019061025a9190611439565b610819565b60405161026c91906112d6565b60405180910390f35b348015610280575f80fd5b5061029b60048036038101906102969190611439565b6108bf565b6040516102a89190611473565b60405180910390f35b3480156102bc575f80fd5b506102d760048036038101906102d2919061148c565b610940565b6040516102e491906113d0565b60405180910390f35b3480156102f8575f80fd5b506103016109f4565b60405161030e91906112d6565b60405180910390f35b348015610322575f80fd5b5061033d600480360381019061033891906115e3565b610a84565b005b5f60025f837bffffffffffffffffffffffffffffffffffffffffffffffffffffffff19167bffffffffffffffffffffffffffffffffffffffffffffffffffffffff191681526020019081526020015f205f9054906101000a900460ff169050919050565b60605f80546103b190611657565b80601f01602080910402602001604051908101604052809291908181526020018280546103dd90611657565b80156104285780601f106103ff57610100808354040283529160200191610428565b820191905f5260205f20905b81548152906001019060200180831161040b57829003601f168201915b5050505050905090565b5f61043c826108bf565b90508073ffffffffffffffffffffffffffffffffffffffff168373ffffffffffffffffffffffffffffffffffffffff16036104ac576040517f08c379a00000000000000000000000000000000000000000000000000000000081526004016104a3906116f7565b60405180910390fd5b8073ffffffffffffffffffffffffffffffffffffffff163373ffffffffffffffffffffffffffffffffffffffff161461051a576040517f08c379a000000000000000000000000000000000000000000000000000000000815260040161051190611785565b60405180910390fd5b8260055f8481526020019081526020015f205f6101000a81548173ffffffffffffffffffffffffffffffffffffffff021916908373ffffffffffffffffffffffffffffffffffffffff160217905550818373ffffffffffffffffffffffffffffffffffffffff168273ffffffffffffffffffffffffffffffffffffffff167f8c5be1e5ebec7d5bd14f71427d1e84f3dd0314c0f7b2291e5b200ac8c7c3b92560405160405180910390a4505050565b5f600680549050905090565b63ffffffff60e01b817bffffffffffffffffffffffffffffffffffffffffffffffffffffffff19160361063d576040517f08c379a0000000000000000000000000000000000000000000000000000000008152600401610634906117ed565b60405180910390fd5b600160025f837bffffffffffffffffffffffffffffffffffffffffffffffffffffffff19167bffffffffffffffffffffffffffffffffffffffffffffffffffffffff191681526020019081526020015f205f6101000a81548160ff02191690831515021790555050565b6106b13382610b7a565b6106f0576040517f08c379a00000000000000000000000000000000000000000000000000000000081526004016106e790611855565b60405180910390fd5b6106fb838383610c07565b505050565b5f61070a83610940565b821061074b576040517f08c379a0000000000000000000000000000000000000000000000000000000008152600401610742906118bd565b60405180910390fd5b60085f8473ffffffffffffffffffffffffffffffffffffffff1673ffffffffffffffffffffffffffffffffffffffff1681526020019081526020015f20828154811061079a576107996118db565b5b905f5260205f200154905092915050565b5f6107b46105c9565b82106107f5576040517f08c379a00000000000000000000000000000000000000000000000000000000081526004016107ec90611952565b60405180910390fd5b60068281548110610809576108086118db565b5b905f5260205f2001549050919050565b600a8181548110610828575f80fd5b905f5260205f20015f91509050805461084090611657565b80601f016020809104026020016040519081016040528092919081815260200182805461086c90611657565b80156108b75780601f1061088e576101008083540402835291602001916108b7565b820191905f5260205f20905b81548152906001019060200180831161089a57829003601f168201915b505050505081565b5f6108c982610e42565b610908576040517f08c379a00000000000000000000000000000000000000000000000000000000081526004016108ff906119e0565b60405180910390fd5b60035f8381526020019081526020015f205f9054906101000a900473ffffffffffffffffffffffffffffffffffffffff169050919050565b5f8073ffffffffffffffffffffffffffffffffffffffff168273ffffffffffffffffffffffffffffffffffffffff16036109af576040517f08c379a00000000000000000000000000000000000000000000000000000000081526004016109a690611a6e565b60405180910390fd5b60045f8373ffffffffffffffffffffffffffffffffffffffff1673ffffffffffffffffffffffffffffffffffffffff1681526020019081526020015f20549050919050565b606060018054610a0390611657565b80601f0160208091040260200160405190810160405280929190818152602001828054610a2f90611657565b8015610a7a5780601f10610a5157610100808354040283529160200191610a7a565b820191905f5260205f20905b815481529060010190602001808311610a5d57829003601f168201915b5050505050905090565b600b81604051610a949190611ac6565b90815260200160405180910390205f9054906101000a900460ff1615610aef576040517f08c379a0000000000000000000000000000000000000000000000000000000008152600401610ae690611b4c565b60405180910390fd5b600a81908060018154018082558091505060019003905f5260205f20015f909190919091509081610b209190611d07565b505f6001600a80549050610b349190611e03565b9050610b403382610eaf565b6001600b83604051610b529190611ac6565b90815260200160405180910390205f6101000a81548160ff0219169083151502179055505050565b5f610b8482610e42565b610bc3576040517f08c379a0000000000000000000000000000000000000000000000000000000008152600401610bba90611e80565b60405180910390fd5b5f610bcd836108bf565b90508073ffffffffffffffffffffffffffffffffffffffff168473ffffffffffffffffffffffffffffffffffffffff161491505092915050565b5f73ffffffffffffffffffffffffffffffffffffffff168273ffffffffffffffffffffffffffffffffffffffff1603610c75576040517f08c379a0000000000000000000000000000000000000000000000000000000008152600401610c6c90611f0e565b60405180910390fd5b8273ffffffffffffffffffffffffffffffffffffffff16610c95826108bf565b73ffffffffffffffffffffffffffffffffffffffff1614610ceb576040517f08c379a0000000000000000000000000000000000000000000000000000000008152600401610ce290611f9c565b60405180910390fd5b600160045f8573ffffffffffffffffffffffffffffffffffffffff1673ffffffffffffffffffffffffffffffffffffffff1681526020019081526020015f205f828254610d389190611e03565b92505081905550600160045f8473ffffffffffffffffffffffffffffffffffffffff1673ffffffffffffffffffffffffffffffffffffffff1681526020019081526020015f205f828254610d8c9190611fba565b925050819055508160035f8381526020019081526020015f205f6101000a81548173ffffffffffffffffffffffffffffffffffffffff021916908373ffffffffffffffffffffffffffffffffffffffff160217905550808273ffffffffffffffffffffffffffffffffffffffff168473ffffffffffffffffffffffffffffffffffffffff167fddf252ad1be2c89b69c2b068fc378daa952ba7f163c4a11628f55a4df523b3ef60405160405180910390a4505050565b5f8060035f8481526020019081526020015f205f9054906101000a900473ffffffffffffffffffffffffffffffffffffffff1690505f73ffffffffffffffffffffffffffffffffffffffff168173ffffffffffffffffffffffffffffffffffffffff161415915050919050565b610eb98282610ed0565b610ec281611089565b610ecc82826110cd565b5050565b5f73ffffffffffffffffffffffffffffffffffffffff168273ffffffffffffffffffffffffffffffffffffffff1603610f3e576040517f08c379a0000000000000000000000000000000000000000000000000000000008152600401610f359061205d565b60405180910390fd5b610f4781610e42565b15610f87576040517f08c379a0000000000000000000000000000000000000000000000000000000008152600401610f7e906120c5565b60405180910390fd5b8160035f8381526020019081526020015f205f6101000a81548173ffffffffffffffffffffffffffffffffffffffff021916908373ffffffffffffffffffffffffffffffffffffffff160217905550600160045f8473ffffffffffffffffffffffffffffffffffffffff1673ffffffffffffffffffffffffffffffffffffffff1681526020019081526020015f205f8282546110239190611fba565b92505081905550808273ffffffffffffffffffffffffffffffffffffffff165f73ffffffffffffffffffffffffffffffffffffffff167fddf252ad1be2c89b69c2b068fc378daa952ba7f163c4a11628f55a4df523b3ef60405160405180910390a45050565b60068054905060075f8381526020019081526020015f2081905550600681908060018154018082558091505060019003905f5260205f20015f909190919091505550565b60085f8373ffffffffffffffffffffffffffffffffffffffff1673ffffffffffffffffffffffffffffffffffffffff1681526020019081526020015f208054905060095f8381526020019081526020015f208190555060085f8373ffffffffffffffffffffffffffffffffffffffff1673ffffffffffffffffffffffffffffffffffffffff1681526020019081526020015f2081908060018154018082558091505060019003905f5260205f20015f90919091909150555050565b5f604051905090565b5f80fd5b5f80fd5b5f7fffffffff0000000000000000000000000000000000000000000000000000000082169050919050565b6111cd81611199565b81146111d7575f80fd5b50565b5f813590506111e8816111c4565b92915050565b5f6020828403121561120357611202611191565b5b5f611210848285016111da565b91505092915050565b5f8115159050919050565b61122d81611219565b82525050565b5f6020820190506112465f830184611224565b92915050565b5f81519050919050565b5f82825260208201905092915050565b5f5b83811015611283578082015181840152602081019050611268565b5f8484015250505050565b5f601f19601f8301169050919050565b5f6112a88261124c565b6112b28185611256565b93506112c2818560208601611266565b6112cb8161128e565b840191505092915050565b5f6020820190508181035f8301526112ee818461129e565b905092915050565b5f73ffffffffffffffffffffffffffffffffffffffff82169050919050565b5f61131f826112f6565b9050919050565b61132f81611315565b8114611339575f80fd5b50565b5f8135905061134a81611326565b92915050565b5f819050919050565b61136281611350565b811461136c575f80fd5b50565b5f8135905061137d81611359565b92915050565b5f806040838503121561139957611398611191565b5b5f6113a68582860161133c565b92505060206113b78582860161136f565b9150509250929050565b6113ca81611350565b82525050565b5f6020820190506113e35f8301846113c1565b92915050565b5f805f60608486031215611400576113ff611191565b5b5f61140d8682870161133c565b935050602061141e8682870161133c565b925050604061142f8682870161136f565b9150509250925092565b5f6020828403121561144e5761144d611191565b5b5f61145b8482850161136f565b91505092915050565b61146d81611315565b82525050565b5f6020820190506114865f830184611464565b92915050565b5f602082840312156114a1576114a0611191565b5b5f6114ae8482850161133c565b91505092915050565b5f80fd5b5f80fd5b7f4e487b71000000000000000000000000000000000000000000000000000000005f52604160045260245ffd5b6114f58261128e565b810181811067ffffffffffffffff82111715611514576115136114bf565b5b80604052505050565b5f611526611188565b905061153282826114ec565b919050565b5f67ffffffffffffffff821115611551576115506114bf565b5b61155a8261128e565b9050602081019050919050565b828183375f83830152505050565b5f61158761158284611537565b61151d565b9050828152602081018484840111156115a3576115a26114bb565b5b6115ae848285611567565b509392505050565b5f82601f8301126115ca576115c96114b7565b5b81356115da848260208601611575565b91505092915050565b5f602082840312156115f8576115f7611191565b5b5f82013567ffffffffffffffff81111561161557611614611195565b5b611621848285016115b6565b91505092915050565b7f4e487b71000000000000000000000000000000000000000000000000000000005f52602260045260245ffd5b5f600282049050600182168061166e57607f821691505b6020821081036116815761168061162a565b5b50919050565b7f4552433732313a20617070726f76616c20746f2063757272656e74206f776e655f8201527f7200000000000000000000000000000000000000000000000000000000000000602082015250565b5f6116e1602183611256565b91506116ec82611687565b604082019050919050565b5f6020820190508181035f83015261170e816116d5565b9050919050565b7f4552433732313a2063757272656e742063616c6c6572206973206e6f742074685f8201527f65206f776e6572206f662074686520746f6b656e000000000000000000000000602082015250565b5f61176f603483611256565b915061177a82611715565b604082019050919050565b5f6020820190508181035f83015261179c81611763565b9050919050565b7f4552433136353a20696e76616c696420696e74657266616365000000000000005f82015250565b5f6117d7601983611256565b91506117e2826117a3565b602082019050919050565b5f6020820190508181035f830152611804816117cb565b9050919050565b7f4f776e6572206973206e6f7420617070726f76656400000000000000000000005f82015250565b5f61183f601583611256565b915061184a8261180b565b602082019050919050565b5f6020820190508181035f83015261186c81611833565b9050919050565b7f6f776e657220696e646578206f7574206f6620626f756e6473000000000000005f82015250565b5f6118a7601983611256565b91506118b282611873565b602082019050919050565b5f6020820190508181035f8301526118d48161189b565b9050919050565b7f4e487b71000000000000000000000000000000000000000000000000000000005f52603260045260245ffd5b7f676c6f62616c20696e646578206f7574206f6620626f756e64730000000000005f82015250565b5f61193c601a83611256565b915061194782611908565b602082019050919050565b5f6020820190508181035f83015261196981611930565b9050919050565b7f6f776e657220717565727920666f72206e6f6e2d717565727920666f72206e6f5f8201527f6e2d6578697374656e7420746f6b656e00000000000000000000000000000000602082015250565b5f6119ca603083611256565b91506119d582611970565b604082019050919050565b5f6020820190508181035f8301526119f7816119be565b9050919050565b7f4552433732313a206f776e657220717565727920666f72206e6f6e2d657869735f8201527f74656e7420746f6b656e00000000000000000000000000000000000000000000602082015250565b5f611a58602a83611256565b9150611a63826119fe565b604082019050919050565b5f6020820190508181035f830152611a8581611a4c565b9050919050565b5f81905092915050565b5f611aa08261124c565b611aaa8185611a8c565b9350611aba818560208601611266565b80840191505092915050565b5f611ad18284611a96565b915081905092915050565b7f4572726f72202d204b727970746f4e656f6e20616c72656164792065786973745f8201527f7300000000000000000000000000000000000000000000000000000000000000602082015250565b5f611b36602183611256565b9150611b4182611adc565b604082019050919050565b5f6020820190508181035f830152611b6381611b2a565b9050919050565b5f819050815f5260205f209050919050565b5f6020601f8301049050919050565b5f82821b905092915050565b5f60088302611bc67fffffffffffffffffffffffffffffffffffffffffffffffffffffffffffffffff82611b8b565b611bd08683611b8b565b95508019841693508086168417925050509392505050565b5f819050919050565b5f611c0b611c06611c0184611350565b611be8565b611350565b9050919050565b5f819050919050565b611c2483611bf1565b611c38611c3082611c12565b848454611b97565b825550505050565b5f90565b611c4c611c40565b611c57818484611c1b565b505050565b5b81811015611c7a57611c6f5f82611c44565b600181019050611c5d565b5050565b601f821115611cbf57611c9081611b6a565b611c9984611b7c565b81016020851015611ca8578190505b611cbc611cb485611b7c565b830182611c5c565b50505b505050565b5f82821c905092915050565b5f611cdf5f1984600802611cc4565b1980831691505092915050565b5f611cf78383611cd0565b9150826002028217905092915050565b611d108261124c565b67ffffffffffffffff811115611d2957611d286114bf565b5b611d338254611657565b611d3e828285611c7e565b5f60209050601f831160018114611d6f575f8415611d5d578287015190505b611d678582611cec565b865550611dce565b601f198416611d7d86611b6a565b5f5b82811015611da457848901518255600182019150602085019450602081019050611d7f565b86831015611dc15784890151611dbd601f891682611cd0565b8355505b6001600288020188555050505b505050505050565b7f4e487b71000000000000000000000000000000000000000000000000000000005f52601160045260245ffd5b5f611e0d82611350565b9150611e1883611350565b9250828203905081811115611e3057611e2f611dd6565b5b92915050565b7f546f6b656e20646f6573206e6f742065786973747300000000000000000000005f82015250565b5f611e6a601583611256565b9150611e7582611e36565b602082019050919050565b5f6020820190508181035f830152611e9781611e5e565b9050919050565b7f4552433732313a205472616e7366657220746f20746865207a65726f206164645f8201527f7265737300000000000000000000000000000000000000000000000000000000602082015250565b5f611ef8602483611256565b9150611f0382611e9e565b604082019050919050565b5f6020820190508181035f830152611f2581611eec565b9050919050565b7f4552433732313a20547279696e6720746f207472616e73666572206120746f6b5f8201527f656e20746865206164647265737320646f6573206e6f74206f776e0000000000602082015250565b5f611f86603b83611256565b9150611f9182611f2c565b604082019050919050565b5f6020820190508181035f830152611fb381611f7a565b9050919050565b5f611fc482611350565b9150611fcf83611350565b9250828201905080821115611fe757611fe6611dd6565b5b92915050565b7f4552433732313a206d696e74696e6720746f20746865207a65726f20616464725f8201527f657373206e6f7420706f737369626c6500000000000000000000000000000000602082015250565b5f612047603083611256565b915061205282611fed565b604082019050919050565b5f6020820190508181035f8301526120748161203b565b9050919050565b7f4552433732313a20746f6b656e20616c7265616479206d696e746564000000005f82015250565b5f6120af601c83611256565b91506120ba8261207b565b602082019050919050565b5f6020820190508181035f8301526120dc816120a3565b905091905056fea26469706673582212200ead149e6daf8bd09416e07711b9867dd85292121c024c4ffc515968b6d9cfa364736f6c63430008170033",
  "immutableReferences": {},
  "source": "// SPDX-License-Identifier: MIT\r\npragma solidity ^0.8.0;\r\n\r\nimport \"./ERC721Connector.sol\";\r\n\r\ncontract KryptoNeonz is ERC721Connector {\r\n    string[] public neonz;\r\n\r\n    mapping(string => bool) neonzExists;\r\n\r\n    constructor() ERC721Connector(\"KryptoNeonz\", \"KNEONZ\") {}\r\n\r\n    function mint(string memory _neonz) public {\r\n        require(!neonzExists[_neonz], \"Error - KryptoNeon already exists\");\r\n        neonz.push(_neonz);\r\n\r\n        uint _id = neonz.length - 1;\r\n\r\n        _mint(msg.sender, _id);\r\n\r\n        neonzExists[_neonz] = true;\r\n    }\r\n}\r\n",
  "sourcePath": "/home/davaux/projects/web3-projects/nft-neonz-marketplace/src/contracts/KryptoNeonz.sol",
  "compiler": {
    "name": "solc",
    "version": "0.8.23+commit.f704f362.Emscripten.clang"
  },
  "schemaVersion": "3.4.16",
  "updatedAt": "2023-11-28T15:59:06.551Z",
  "devdoc": {
    "events": {
      "Approval(address,address,uint256)": {
        "details": "This emits when the approved address for an NFT is changed or  reaffirmed. The zero address indicates there is no approved address.  When a Transfer event emits, this also indicates that the approved  address for that NFT (if any) is reset to none."
      },
      "Transfer(address,address,uint256)": {
        "details": "This emits when ownership of any NFT changes by any mechanism.  This event emits when NFTs are created (`from` == 0) and destroyed  (`to` == 0). Exception: during contract creation, any number of NFTs  may be created and assigned without emitting Transfer. At the time of  any transfer, the approved address for that NFT (if any) is reset to none."
      }
    },
    "kind": "dev",
    "methods": {
      "balanceOf(address)": {
        "details": "NFTs assigned to the zero address are considered invalid, and this  function throws for queries about the zero address.",
        "params": {
          "_owner": "An address for whom to query the balance"
        },
        "returns": {
          "_0": "The number of NFTs owned by `_owner`, possibly zero"
        }
      },
      "ownerOf(uint256)": {
        "details": "NFTs assigned to zero address are considered invalid, and queries  about them do throw.",
        "params": {
          "_tokenId": "The identifier for an NFT"
        },
        "returns": {
          "_0": "The address of the owner of the NFT"
        }
      },
      "transferFrom(address,address,uint256)": {
        "details": "Throws unless `msg.sender` is the current owner, an authorized  operator, or the approved address for this NFT. Throws if `_from` is  not the current owner. Throws if `_to` is the zero address. Throws if  `_tokenId` is not a valid NFT.",
        "params": {
          "_from": "The current owner of the NFT",
          "_to": "The new owner",
          "_tokenId": "The NFT to transfer"
        }
      }
    },
    "version": 1
  },
  "userdoc": {
    "kind": "user",
    "methods": {
      "balanceOf(address)": {
        "notice": "Count all NFTs assigned to an owner"
      },
      "ownerOf(uint256)": {
        "notice": "Find the owner of an NFT"
      },
      "transferFrom(address,address,uint256)": {
        "notice": "Transfer ownership of an NFT -- THE CALLER IS RESPONSIBLE  TO CONFIRM THAT `_to` IS CAPABLE OF RECEIVING NFTS OR ELSE  THEY MAY BE PERMANENTLY LOST"
      }
    },
    "version": 1
  }
}