{
  "contractName": "KryptoNeonz",
  "abi": [
    {
      "inputs": [],
      "stateMutability": "nonpayable",
      "type": "constructor"
    },
    {
      "anonymous": false,
      "inputs": [
        {
          "indexed": true,
          "internalType": "address",
          "name": "_owner",
          "type": "address"
        },
        {
          "indexed": true,
          "internalType": "address",
          "name": "_approved",
          "type": "address"
        },
        {
          "indexed": true,
          "internalType": "uint256",
          "name": "_tokenId",
          "type": "uint256"
        }
      ],
      "name": "Approval",
      "type": "event"
    },
    {
      "anonymous": false,
      "inputs": [
        {
          "indexed": true,
          "internalType": "address",
          "name": "_from",
          "type": "address"
        },
        {
          "indexed": true,
          "internalType": "address",
          "name": "_to",
          "type": "address"
        },
        {
          "indexed": true,
          "internalType": "uint256",
          "name": "_tokenId",
          "type": "uint256"
        }
      ],
      "name": "Transfer",
      "type": "event"
    },
    {
      "inputs": [
        {
          "internalType": "address",
          "name": "_to",
          "type": "address"
        },
        {
          "internalType": "uint256",
          "name": "_tokenId",
          "type": "uint256"
        }
      ],
      "name": "approve",
      "outputs": [],
      "stateMutability": "nonpayable",
      "type": "function"
    },
    {
      "inputs": [
        {
          "internalType": "address",
          "name": "_owner",
          "type": "address"
        }
      ],
      "name": "balanceOf",
      "outputs": [
        {
          "internalType": "uint256",
          "name": "",
          "type": "uint256"
        }
      ],
      "stateMutability": "view",
      "type": "function",
      "constant": true
    },
    {
      "inputs": [],
      "name": "name",
      "outputs": [
        {
          "internalType": "string",
          "name": "",
          "type": "string"
        }
      ],
      "stateMutability": "view",
      "type": "function",
      "constant": true
    },
    {
      "inputs": [
        {
          "internalType": "uint256",
          "name": "",
          "type": "uint256"
        }
      ],
      "name": "neonz",
      "outputs": [
        {
          "internalType": "string",
          "name": "",
          "type": "string"
        }
      ],
      "stateMutability": "view",
      "type": "function",
      "constant": true
    },
    {
      "inputs": [
        {
          "internalType": "uint256",
          "name": "_tokenId",
          "type": "uint256"
        }
      ],
      "name": "ownerOf",
      "outputs": [
        {
          "internalType": "address",
          "name": "",
          "type": "address"
        }
      ],
      "stateMutability": "view",
      "type": "function",
      "constant": true
    },
    {
      "inputs": [
        {
          "internalType": "bytes4",
          "name": "interfaceId",
          "type": "bytes4"
        }
      ],
      "name": "registerInterface",
      "outputs": [],
      "stateMutability": "nonpayable",
      "type": "function"
    },
    {
      "inputs": [
        {
          "internalType": "bytes4",
          "name": "interfaceId",
          "type": "bytes4"
        }
      ],
      "name": "supportsInterface",
      "outputs": [
        {
          "internalType": "bool",
          "name": "",
          "type": "bool"
        }
      ],
      "stateMutability": "view",
      "type": "function",
      "constant": true
    },
    {
      "inputs": [],
      "name": "symbol",
      "outputs": [
        {
          "internalType": "string",
          "name": "",
          "type": "string"
        }
      ],
      "stateMutability": "view",
      "type": "function",
      "constant": true
    },
    {
      "inputs": [
        {
          "internalType": "uint256",
          "name": "_index",
          "type": "uint256"
        }
      ],
      "name": "tokenByIndex",
      "outputs": [
        {
          "internalType": "uint256",
          "name": "",
          "type": "uint256"
        }
      ],
      "stateMutability": "view",
      "type": "function",
      "constant": true
    },
    {
      "inputs": [
        {
          "internalType": "address",
          "name": "_owner",
          "type": "address"
        },
        {
          "internalType": "uint256",
          "name": "_index",
          "type": "uint256"
        }
      ],
      "name": "tokenOfOwnerByIndex",
      "outputs": [
        {
          "internalType": "uint256",
          "name": "",
          "type": "uint256"
        }
      ],
      "stateMutability": "view",
      "type": "function",
      "constant": true
    },
    {
      "inputs": [],
      "name": "totalSupply",
      "outputs": [
        {
          "internalType": "uint256",
          "name": "",
          "type": "uint256"
        }
      ],
      "stateMutability": "view",
      "type": "function",
      "constant": true
    },
    {
      "inputs": [
        {
          "internalType": "address",
          "name": "_from",
          "type": "address"
        },
        {
          "internalType": "address",
          "name": "_to",
          "type": "address"
        },
        {
          "internalType": "uint256",
          "name": "_tokenId",
          "type": "uint256"
        }
      ],
      "name": "transferFrom",
      "outputs": [],
      "stateMutability": "payable",
      "type": "function",
      "payable": true
    },
    {
      "inputs": [
        {
          "internalType": "string",
          "name": "_neonz",
          "type": "string"
        }
      ],
      "name": "mint",
      "outputs": [],
      "stateMutability": "nonpayable",
      "type": "function"
    }
  ],
  "bytecode": "0x608060405234801562000010575f80fd5b506040518060400160405280600b81526020017f4b727970746f4e656f6e7a0000000000000000000000000000000000000000008152506040518060400160405280600681526020017f4b4e454f4e5a000000000000000000000000000000000000000000000000000081525081816200009f620000936200020a60201b60201c565b6200023160201b60201c565b8160019081620000b0919062000569565b508060029081620000c2919062000569565b50620001167f13b182f4c0e5b2efbac0efe6cf6d756c8b89f4b79c5707a043ed9ea740574ee97f7feaf19471f34a12a7eaf32d5f3090aa2260ea8624dc8a138e74e0bf0f623076186200023160201b60201c565b50506200018d7f22c82707ba960a14c7592ffb6b8cfaa073fed0048a84cc7fa41f6b5bd8e7f2e47f3a6eb71757dfc6e784c1459d26270140c2c147d95ca985c80026fc5301c3eca17f8a7e378434598edc36d108689a030cbc9d7d465de4f74c71bae1028eed6a881b18186200023160201b60201c565b620002027f8230223f691b981717299fae9549350a0d894555723531f02108b1f522c1a7977f6da5e1284143cdd2d15038a59bde3be031250f00291d64494c12d967b3a4e0c37fc53637662700e6c65104059db8bba34439e0c32483ab7c34e3ccae52c739549518186200023160201b60201c565b5050620006cb565b5f7f01ffc9a7a5cef8baa21ed3c5c0d7e23accb804b619e9333b597f47a0d84076e2905090565b63ffffffff60e01b817bffffffffffffffffffffffffffffffffffffffffffffffffffffffff1916036200029c576040517f08c379a00000000000000000000000000000000000000000000000000000000081526004016200029390620006ab565b60405180910390fd5b60015f80837bffffffffffffffffffffffffffffffffffffffffffffffffffffffff19167bffffffffffffffffffffffffffffffffffffffffffffffffffffffff191681526020019081526020015f205f6101000a81548160ff02191690831515021790555050565b5f81519050919050565b7f4e487b71000000000000000000000000000000000000000000000000000000005f52604160045260245ffd5b7f4e487b71000000000000000000000000000000000000000000000000000000005f52602260045260245ffd5b5f60028204905060018216806200038157607f821691505b6020821081036200039757620003966200033c565b5b50919050565b5f819050815f5260205f209050919050565b5f6020601f8301049050919050565b5f82821b905092915050565b5f60088302620003fb7fffffffffffffffffffffffffffffffffffffffffffffffffffffffffffffffff82620003be565b620004078683620003be565b95508019841693508086168417925050509392505050565b5f819050919050565b5f819050919050565b5f620004516200044b62000445846200041f565b62000428565b6200041f565b9050919050565b5f819050919050565b6200046c8362000431565b620004846200047b8262000458565b848454620003ca565b825550505050565b5f90565b6200049a6200048c565b620004a781848462000461565b505050565b5b81811015620004ce57620004c25f8262000490565b600181019050620004ad565b5050565b601f8211156200051d57620004e7816200039d565b620004f284620003af565b8101602085101562000502578190505b6200051a6200051185620003af565b830182620004ac565b50505b505050565b5f82821c905092915050565b5f6200053f5f198460080262000522565b1980831691505092915050565b5f6200055983836200052e565b9150826002028217905092915050565b620005748262000305565b67ffffffffffffffff81111562000590576200058f6200030f565b5b6200059c825462000369565b620005a9828285620004d2565b5f60209050601f831160018114620005df575f8415620005ca578287015190505b620005d685826200054c565b86555062000645565b601f198416620005ef866200039d565b5f5b828110156200061857848901518255600182019150602085019450602081019050620005f1565b8683101562000638578489015162000634601f8916826200052e565b8355505b6001600288020188555050505b505050505050565b5f82825260208201905092915050565b7f4552433136353a20696e76616c696420696e74657266616365000000000000005f82015250565b5f620006936019836200064d565b9150620006a0826200065d565b602082019050919050565b5f6020820190508181035f830152620006c48162000685565b9050919050565b61211880620006d95f395ff3fe6080604052600436106100c1575f3560e01c80632f745c591161007e5780636352211e116100585780636352211e1461027557806370a08231146102b157806395d89b41146102ed578063d85d3d2714610317576100c1565b80632f745c59146101c15780634f6ccce7146101fd578063590f9e4e14610239576100c1565b806301ffc9a7146100c557806306fdde0314610101578063095ea7b31461012b57806318160ddd14610153578063214cdb801461017d57806323b872dd146101a5575b5f80fd5b3480156100d0575f80fd5b506100eb60048036038101906100e691906111ed565b61033f565b6040516100f89190611232565b60405180910390f35b34801561010c575f80fd5b506101156103a2565b60405161012291906112d5565b60405180910390f35b348015610136575f80fd5b50610151600480360381019061014c9190611382565b610432565b005b34801561015e575f80fd5b506101676105c9565b60405161017491906113cf565b60405180910390f35b348015610188575f80fd5b506101a3600480360381019061019e91906111ed565b6105d5565b005b6101bf60048036038101906101ba91906113e8565b6106a6565b005b3480156101cc575f80fd5b506101e760048036038101906101e29190611382565b6106ff565b6040516101f491906113cf565b60405180910390f35b348015610208575f80fd5b50610223600480360381019061021e9190611438565b6107aa565b60405161023091906113cf565b60405180910390f35b348015610244575f80fd5b5061025f600480360381019061025a9190611438565b610818565b60405161026c91906112d5565b60405180910390f35b348015610280575f80fd5b5061029b60048036038101906102969190611438565b6108be565b6040516102a89190611472565b60405180910390f35b3480156102bc575f80fd5b506102d760048036038101906102d2919061148b565b61093f565b6040516102e491906113cf565b60405180910390f35b3480156102f8575f80fd5b506103016109f3565b60405161030e91906112d5565b60405180910390f35b348015610322575f80fd5b5061033d600480360381019061033891906115e2565b610a83565b005b5f805f837bffffffffffffffffffffffffffffffffffffffffffffffffffffffff19167bffffffffffffffffffffffffffffffffffffffffffffffffffffffff191681526020019081526020015f205f9054906101000a900460ff169050919050565b6060600180546103b190611656565b80601f01602080910402602001604051908101604052809291908181526020018280546103dd90611656565b80156104285780601f106103ff57610100808354040283529160200191610428565b820191905f5260205f20905b81548152906001019060200180831161040b57829003601f168201915b5050505050905090565b5f61043c826108be565b90508073ffffffffffffffffffffffffffffffffffffffff168373ffffffffffffffffffffffffffffffffffffffff16036104ac576040517f08c379a00000000000000000000000000000000000000000000000000000000081526004016104a3906116f6565b60405180910390fd5b8073ffffffffffffffffffffffffffffffffffffffff163373ffffffffffffffffffffffffffffffffffffffff161461051a576040517f08c379a000000000000000000000000000000000000000000000000000000000815260040161051190611784565b60405180910390fd5b8260055f8481526020019081526020015f205f6101000a81548173ffffffffffffffffffffffffffffffffffffffff021916908373ffffffffffffffffffffffffffffffffffffffff160217905550818373ffffffffffffffffffffffffffffffffffffffff168273ffffffffffffffffffffffffffffffffffffffff167f8c5be1e5ebec7d5bd14f71427d1e84f3dd0314c0f7b2291e5b200ac8c7c3b92560405160405180910390a4505050565b5f600680549050905090565b63ffffffff60e01b817bffffffffffffffffffffffffffffffffffffffffffffffffffffffff19160361063d576040517f08c379a0000000000000000000000000000000000000000000000000000000008152600401610634906117ec565b60405180910390fd5b60015f80837bffffffffffffffffffffffffffffffffffffffffffffffffffffffff19167bffffffffffffffffffffffffffffffffffffffffffffffffffffffff191681526020019081526020015f205f6101000a81548160ff02191690831515021790555050565b6106b03382610b79565b6106ef576040517f08c379a00000000000000000000000000000000000000000000000000000000081526004016106e690611854565b60405180910390fd5b6106fa838383610c06565b505050565b5f6107098361093f565b821061074a576040517f08c379a0000000000000000000000000000000000000000000000000000000008152600401610741906118bc565b60405180910390fd5b60085f8473ffffffffffffffffffffffffffffffffffffffff1673ffffffffffffffffffffffffffffffffffffffff1681526020019081526020015f208281548110610799576107986118da565b5b905f5260205f200154905092915050565b5f6107b36105c9565b82106107f4576040517f08c379a00000000000000000000000000000000000000000000000000000000081526004016107eb90611951565b60405180910390fd5b60068281548110610808576108076118da565b5b905f5260205f2001549050919050565b600a8181548110610827575f80fd5b905f5260205f20015f91509050805461083f90611656565b80601f016020809104026020016040519081016040528092919081815260200182805461086b90611656565b80156108b65780601f1061088d576101008083540402835291602001916108b6565b820191905f5260205f20905b81548152906001019060200180831161089957829003601f168201915b505050505081565b5f6108c882610e41565b610907576040517f08c379a00000000000000000000000000000000000000000000000000000000081526004016108fe906119df565b60405180910390fd5b60035f8381526020019081526020015f205f9054906101000a900473ffffffffffffffffffffffffffffffffffffffff169050919050565b5f8073ffffffffffffffffffffffffffffffffffffffff168273ffffffffffffffffffffffffffffffffffffffff16036109ae576040517f08c379a00000000000000000000000000000000000000000000000000000000081526004016109a590611a6d565b60405180910390fd5b60045f8373ffffffffffffffffffffffffffffffffffffffff1673ffffffffffffffffffffffffffffffffffffffff1681526020019081526020015f20549050919050565b606060028054610a0290611656565b80601f0160208091040260200160405190810160405280929190818152602001828054610a2e90611656565b8015610a795780601f10610a5057610100808354040283529160200191610a79565b820191905f5260205f20905b815481529060010190602001808311610a5c57829003601f168201915b5050505050905090565b600b81604051610a939190611ac5565b90815260200160405180910390205f9054906101000a900460ff1615610aee576040517f08c379a0000000000000000000000000000000000000000000000000000000008152600401610ae590611b4b565b60405180910390fd5b600a81908060018154018082558091505060019003905f5260205f20015f909190919091509081610b1f9190611d06565b505f6001600a80549050610b339190611e02565b9050610b3f3382610eae565b6001600b83604051610b519190611ac5565b90815260200160405180910390205f6101000a81548160ff0219169083151502179055505050565b5f610b8382610e41565b610bc2576040517f08c379a0000000000000000000000000000000000000000000000000000000008152600401610bb990611e7f565b60405180910390fd5b5f610bcc836108be565b90508073ffffffffffffffffffffffffffffffffffffffff168473ffffffffffffffffffffffffffffffffffffffff161491505092915050565b5f73ffffffffffffffffffffffffffffffffffffffff168273ffffffffffffffffffffffffffffffffffffffff1603610c74576040517f08c379a0000000000000000000000000000000000000000000000000000000008152600401610c6b90611f0d565b60405180910390fd5b8273ffffffffffffffffffffffffffffffffffffffff16610c94826108be565b73ffffffffffffffffffffffffffffffffffffffff1614610cea576040517f08c379a0000000000000000000000000000000000000000000000000000000008152600401610ce190611f9b565b60405180910390fd5b600160045f8573ffffffffffffffffffffffffffffffffffffffff1673ffffffffffffffffffffffffffffffffffffffff1681526020019081526020015f205f828254610d379190611e02565b92505081905550600160045f8473ffffffffffffffffffffffffffffffffffffffff1673ffffffffffffffffffffffffffffffffffffffff1681526020019081526020015f205f828254610d8b9190611fb9565b925050819055508160035f8381526020019081526020015f205f6101000a81548173ffffffffffffffffffffffffffffffffffffffff021916908373ffffffffffffffffffffffffffffffffffffffff160217905550808273ffffffffffffffffffffffffffffffffffffffff168473ffffffffffffffffffffffffffffffffffffffff167fddf252ad1be2c89b69c2b068fc378daa952ba7f163c4a11628f55a4df523b3ef60405160405180910390a4505050565b5f8060035f8481526020019081526020015f205f9054906101000a900473ffffffffffffffffffffffffffffffffffffffff1690505f73ffffffffffffffffffffffffffffffffffffffff168173ffffffffffffffffffffffffffffffffffffffff161415915050919050565b610eb88282610ecf565b610ec181611088565b610ecb82826110cc565b5050565b5f73ffffffffffffffffffffffffffffffffffffffff168273ffffffffffffffffffffffffffffffffffffffff1603610f3d576040517f08c379a0000000000000000000000000000000000000000000000000000000008152600401610f349061205c565b60405180910390fd5b610f4681610e41565b15610f86576040517f08c379a0000000000000000000000000000000000000000000000000000000008152600401610f7d906120c4565b60405180910390fd5b8160035f8381526020019081526020015f205f6101000a81548173ffffffffffffffffffffffffffffffffffffffff021916908373ffffffffffffffffffffffffffffffffffffffff160217905550600160045f8473ffffffffffffffffffffffffffffffffffffffff1673ffffffffffffffffffffffffffffffffffffffff1681526020019081526020015f205f8282546110229190611fb9565b92505081905550808273ffffffffffffffffffffffffffffffffffffffff165f73ffffffffffffffffffffffffffffffffffffffff167fddf252ad1be2c89b69c2b068fc378daa952ba7f163c4a11628f55a4df523b3ef60405160405180910390a45050565b60068054905060075f8381526020019081526020015f2081905550600681908060018154018082558091505060019003905f5260205f20015f909190919091505550565b60085f8373ffffffffffffffffffffffffffffffffffffffff1673ffffffffffffffffffffffffffffffffffffffff1681526020019081526020015f208054905060095f8381526020019081526020015f208190555060085f8373ffffffffffffffffffffffffffffffffffffffff1673ffffffffffffffffffffffffffffffffffffffff1681526020019081526020015f2081908060018154018082558091505060019003905f5260205f20015f90919091909150555050565b5f604051905090565b5f80fd5b5f80fd5b5f7fffffffff0000000000000000000000000000000000000000000000000000000082169050919050565b6111cc81611198565b81146111d6575f80fd5b50565b5f813590506111e7816111c3565b92915050565b5f6020828403121561120257611201611190565b5b5f61120f848285016111d9565b91505092915050565b5f8115159050919050565b61122c81611218565b82525050565b5f6020820190506112455f830184611223565b92915050565b5f81519050919050565b5f82825260208201905092915050565b5f5b83811015611282578082015181840152602081019050611267565b5f8484015250505050565b5f601f19601f8301169050919050565b5f6112a78261124b565b6112b18185611255565b93506112c1818560208601611265565b6112ca8161128d565b840191505092915050565b5f6020820190508181035f8301526112ed818461129d565b905092915050565b5f73ffffffffffffffffffffffffffffffffffffffff82169050919050565b5f61131e826112f5565b9050919050565b61132e81611314565b8114611338575f80fd5b50565b5f8135905061134981611325565b92915050565b5f819050919050565b6113618161134f565b811461136b575f80fd5b50565b5f8135905061137c81611358565b92915050565b5f806040838503121561139857611397611190565b5b5f6113a58582860161133b565b92505060206113b68582860161136e565b9150509250929050565b6113c98161134f565b82525050565b5f6020820190506113e25f8301846113c0565b92915050565b5f805f606084860312156113ff576113fe611190565b5b5f61140c8682870161133b565b935050602061141d8682870161133b565b925050604061142e8682870161136e565b9150509250925092565b5f6020828403121561144d5761144c611190565b5b5f61145a8482850161136e565b91505092915050565b61146c81611314565b82525050565b5f6020820190506114855f830184611463565b92915050565b5f602082840312156114a05761149f611190565b5b5f6114ad8482850161133b565b91505092915050565b5f80fd5b5f80fd5b7f4e487b71000000000000000000000000000000000000000000000000000000005f52604160045260245ffd5b6114f48261128d565b810181811067ffffffffffffffff82111715611513576115126114be565b5b80604052505050565b5f611525611187565b905061153182826114eb565b919050565b5f67ffffffffffffffff8211156115505761154f6114be565b5b6115598261128d565b9050602081019050919050565b828183375f83830152505050565b5f61158661158184611536565b61151c565b9050828152602081018484840111156115a2576115a16114ba565b5b6115ad848285611566565b509392505050565b5f82601f8301126115c9576115c86114b6565b5b81356115d9848260208601611574565b91505092915050565b5f602082840312156115f7576115f6611190565b5b5f82013567ffffffffffffffff81111561161457611613611194565b5b611620848285016115b5565b91505092915050565b7f4e487b71000000000000000000000000000000000000000000000000000000005f52602260045260245ffd5b5f600282049050600182168061166d57607f821691505b6020821081036116805761167f611629565b5b50919050565b7f4552433732313a20617070726f76616c20746f2063757272656e74206f776e655f8201527f7200000000000000000000000000000000000000000000000000000000000000602082015250565b5f6116e0602183611255565b91506116eb82611686565b604082019050919050565b5f6020820190508181035f83015261170d816116d4565b9050919050565b7f4552433732313a2063757272656e742063616c6c6572206973206e6f742074685f8201527f65206f776e6572206f662074686520746f6b656e000000000000000000000000602082015250565b5f61176e603483611255565b915061177982611714565b604082019050919050565b5f6020820190508181035f83015261179b81611762565b9050919050565b7f4552433136353a20696e76616c696420696e74657266616365000000000000005f82015250565b5f6117d6601983611255565b91506117e1826117a2565b602082019050919050565b5f6020820190508181035f830152611803816117ca565b9050919050565b7f4f776e6572206973206e6f7420617070726f76656400000000000000000000005f82015250565b5f61183e601583611255565b91506118498261180a565b602082019050919050565b5f6020820190508181035f83015261186b81611832565b9050919050565b7f6f776e657220696e646578206f7574206f6620626f756e6473000000000000005f82015250565b5f6118a6601983611255565b91506118b182611872565b602082019050919050565b5f6020820190508181035f8301526118d38161189a565b9050919050565b7f4e487b71000000000000000000000000000000000000000000000000000000005f52603260045260245ffd5b7f676c6f62616c20696e646578206f7574206f6620626f756e64730000000000005f82015250565b5f61193b601a83611255565b915061194682611907565b602082019050919050565b5f6020820190508181035f8301526119688161192f565b9050919050565b7f6f776e657220717565727920666f72206e6f6e2d717565727920666f72206e6f5f8201527f6e2d6578697374656e7420746f6b656e00000000000000000000000000000000602082015250565b5f6119c9603083611255565b91506119d48261196f565b604082019050919050565b5f6020820190508181035f8301526119f6816119bd565b9050919050565b7f4552433732313a206f776e657220717565727920666f72206e6f6e2d657869735f8201527f74656e7420746f6b656e00000000000000000000000000000000000000000000602082015250565b5f611a57602a83611255565b9150611a62826119fd565b604082019050919050565b5f6020820190508181035f830152611a8481611a4b565b9050919050565b5f81905092915050565b5f611a9f8261124b565b611aa98185611a8b565b9350611ab9818560208601611265565b80840191505092915050565b5f611ad08284611a95565b915081905092915050565b7f4572726f72202d204b727970746f4e656f6e20616c72656164792065786973745f8201527f7300000000000000000000000000000000000000000000000000000000000000602082015250565b5f611b35602183611255565b9150611b4082611adb565b604082019050919050565b5f6020820190508181035f830152611b6281611b29565b9050919050565b5f819050815f5260205f209050919050565b5f6020601f8301049050919050565b5f82821b905092915050565b5f60088302611bc57fffffffffffffffffffffffffffffffffffffffffffffffffffffffffffffffff82611b8a565b611bcf8683611b8a565b95508019841693508086168417925050509392505050565b5f819050919050565b5f611c0a611c05611c008461134f565b611be7565b61134f565b9050919050565b5f819050919050565b611c2383611bf0565b611c37611c2f82611c11565b848454611b96565b825550505050565b5f90565b611c4b611c3f565b611c56818484611c1a565b505050565b5b81811015611c7957611c6e5f82611c43565b600181019050611c5c565b5050565b601f821115611cbe57611c8f81611b69565b611c9884611b7b565b81016020851015611ca7578190505b611cbb611cb385611b7b565b830182611c5b565b50505b505050565b5f82821c905092915050565b5f611cde5f1984600802611cc3565b1980831691505092915050565b5f611cf68383611ccf565b9150826002028217905092915050565b611d0f8261124b565b67ffffffffffffffff811115611d2857611d276114be565b5b611d328254611656565b611d3d828285611c7d565b5f60209050601f831160018114611d6e575f8415611d5c578287015190505b611d668582611ceb565b865550611dcd565b601f198416611d7c86611b69565b5f5b82811015611da357848901518255600182019150602085019450602081019050611d7e565b86831015611dc05784890151611dbc601f891682611ccf565b8355505b6001600288020188555050505b505050505050565b7f4e487b71000000000000000000000000000000000000000000000000000000005f52601160045260245ffd5b5f611e0c8261134f565b9150611e178361134f565b9250828203905081811115611e2f57611e2e611dd5565b5b92915050565b7f546f6b656e20646f6573206e6f742065786973747300000000000000000000005f82015250565b5f611e69601583611255565b9150611e7482611e35565b602082019050919050565b5f6020820190508181035f830152611e9681611e5d565b9050919050565b7f4552433732313a205472616e7366657220746f20746865207a65726f206164645f8201527f7265737300000000000000000000000000000000000000000000000000000000602082015250565b5f611ef7602483611255565b9150611f0282611e9d565b604082019050919050565b5f6020820190508181035f830152611f2481611eeb565b9050919050565b7f4552433732313a20547279696e6720746f207472616e73666572206120746f6b5f8201527f656e20746865206164647265737320646f6573206e6f74206f776e0000000000602082015250565b5f611f85603b83611255565b9150611f9082611f2b565b604082019050919050565b5f6020820190508181035f830152611fb281611f79565b9050919050565b5f611fc38261134f565b9150611fce8361134f565b9250828201905080821115611fe657611fe5611dd5565b5b92915050565b7f4552433732313a206d696e74696e6720746f20746865207a65726f20616464725f8201527f657373206e6f7420706f737369626c6500000000000000000000000000000000602082015250565b5f612046603083611255565b915061205182611fec565b604082019050919050565b5f6020820190508181035f8301526120738161203a565b9050919050565b7f4552433732313a20746f6b656e20616c7265616479206d696e746564000000005f82015250565b5f6120ae601c83611255565b91506120b98261207a565b602082019050919050565b5f6020820190508181035f8301526120db816120a2565b905091905056fea264697066735822122043e3a7a2d75a76d43ef466d436826080b6a5412ee06aed75cb28c9ab7b9879b564736f6c63430008170033",
  "immutableReferences": {},
  "source": "// SPDX-License-Identifier: MIT\npragma solidity ^0.8.0;\n\nimport \"./ERC721Connector.sol\";\n\ncontract KryptoNeonz is ERC721Connector {\n    string[] public neonz;\n\n    mapping(string => bool) neonzExists;\n\n    constructor() ERC721Connector(\"KryptoNeonz\", \"KNEONZ\") {}\n\n    function mint(string memory _neonz) public {\n        require(!neonzExists[_neonz], \"Error - KryptoNeon already exists\");\n        neonz.push(_neonz);\n\n        uint _id = neonz.length - 1;\n\n        _mint(msg.sender, _id);\n\n        neonzExists[_neonz] = true;\n    }\n}\n",
  "sourcePath": "/home/david/projects/web3/nft-neonz-marketplace/src/contracts/KryptoNeonz.sol",
  "compiler": {
    "name": "solc",
    "version": "0.8.23+commit.f704f362.Emscripten.clang"
  },
  "schemaVersion": "3.4.16",
  "updatedAt": "2023-12-07T10:25:30.919Z",
  "networkType": "ethereum",
  "devdoc": {
    "events": {
      "Approval(address,address,uint256)": {
        "details": "This emits when the approved address for an NFT is changed or  reaffirmed. The zero address indicates there is no approved address.  When a Transfer event emits, this also indicates that the approved  address for that NFT (if any) is reset to none."
      },
      "Transfer(address,address,uint256)": {
        "details": "This emits when ownership of any NFT changes by any mechanism.  This event emits when NFTs are created (`from` == 0) and destroyed  (`to` == 0). Exception: during contract creation, any number of NFTs  may be created and assigned without emitting Transfer. At the time of  any transfer, the approved address for that NFT (if any) is reset to none."
      }
    },
    "kind": "dev",
    "methods": {
      "balanceOf(address)": {
        "details": "NFTs assigned to the zero address are considered invalid, and this  function throws for queries about the zero address.",
        "params": {
          "_owner": "An address for whom to query the balance"
        },
        "returns": {
          "_0": "The number of NFTs owned by `_owner`, possibly zero"
        }
      },
      "ownerOf(uint256)": {
        "details": "NFTs assigned to zero address are considered invalid, and queries  about them do throw.",
        "params": {
          "_tokenId": "The identifier for an NFT"
        },
        "returns": {
          "_0": "The address of the owner of the NFT"
        }
      },
      "tokenByIndex(uint256)": {
        "details": "Throws if `_index` >= `totalSupply()`.",
        "params": {
          "_index": "A counter less than `totalSupply()`"
        },
        "returns": {
          "_0": "The token identifier for the `_index`th NFT,  (sort order not specified)"
        }
      },
      "tokenOfOwnerByIndex(address,uint256)": {
        "details": "Throws if `_index` >= `balanceOf(_owner)` or if  `_owner` is the zero address, representing invalid NFTs.",
        "params": {
          "_index": "A counter less than `balanceOf(_owner)`",
          "_owner": "An address where we are interested in NFTs owned by them"
        },
        "returns": {
          "_0": "The token identifier for the `_index`th NFT assigned to `_owner`,   (sort order not specified)"
        }
      },
      "totalSupply()": {
        "returns": {
          "_0": "A count of valid NFTs tracked by this contract, where each one of  them has an assigned and queryable owner not equal to the zero address"
        }
      },
      "transferFrom(address,address,uint256)": {
        "details": "Throws unless `msg.sender` is the current owner, an authorized  operator, or the approved address for this NFT. Throws if `_from` is  not the current owner. Throws if `_to` is the zero address. Throws if  `_tokenId` is not a valid NFT.",
        "params": {
          "_from": "The current owner of the NFT",
          "_to": "The new owner",
          "_tokenId": "The NFT to transfer"
        }
      }
    },
    "version": 1
  },
  "userdoc": {
    "kind": "user",
    "methods": {
      "balanceOf(address)": {
        "notice": "Count all NFTs assigned to an owner"
      },
      "name()": {
        "notice": "A descriptive name for a collection of NFTs in this contract"
      },
      "ownerOf(uint256)": {
        "notice": "Find the owner of an NFT"
      },
      "symbol()": {
        "notice": "An abbreviated name for NFTs in this contract"
      },
      "tokenByIndex(uint256)": {
        "notice": "Enumerate valid NFTs"
      },
      "tokenOfOwnerByIndex(address,uint256)": {
        "notice": "Enumerate NFTs assigned to an owner"
      },
      "totalSupply()": {
        "notice": "Count NFTs tracked by this contract"
      },
      "transferFrom(address,address,uint256)": {
        "notice": "Transfer ownership of an NFT -- THE CALLER IS RESPONSIBLE  TO CONFIRM THAT `_to` IS CAPABLE OF RECEIVING NFTS OR ELSE  THEY MAY BE PERMANENTLY LOST"
      }
    },
    "version": 1
  }
}